{
  "contractName": "Identity",
  "abi": [
    {
      "constant": true,
      "inputs": [],
      "name": "subject",
      "outputs": [
        {
          "name": "",
          "type": "string"
        }
      ],
      "payable": false,
      "stateMutability": "view",
      "type": "function"
    },
    {
      "constant": true,
      "inputs": [],
      "name": "audience",
      "outputs": [
        {
          "name": "",
          "type": "string"
        }
      ],
      "payable": false,
      "stateMutability": "view",
      "type": "function"
    },
    {
      "constant": true,
      "inputs": [
        {
          "name": "",
          "type": "address"
        }
      ],
      "name": "accounts",
      "outputs": [
        {
          "name": "",
          "type": "bool"
        }
      ],
      "payable": false,
      "stateMutability": "view",
      "type": "function"
    },
    {
      "inputs": [
        {
          "name": "sub",
          "type": "string"
        },
        {
          "name": "aud",
          "type": "string"
        }
      ],
      "payable": true,
      "stateMutability": "payable",
      "type": "constructor"
    },
    {
      "constant": false,
      "inputs": [
        {
          "name": "headerJson",
          "type": "string"
        },
        {
          "name": "payloadJson",
          "type": "string"
        },
        {
          "name": "signature",
          "type": "bytes"
        }
      ],
      "name": "recover",
      "outputs": [],
      "payable": false,
      "stateMutability": "nonpayable",
      "type": "function"
    }
  ],
  "bytecode": "0x60806040526040516200510938038062005109833981018060405260408110156200002957600080fd5b8101908080516401000000008111156200004257600080fd5b828101905060208101848111156200005957600080fd5b81518560018202830111640100000000821117156200007757600080fd5b505092919060200180516401000000008111156200009457600080fd5b82810190506020810184811115620000ab57600080fd5b8151856001820283011164010000000082111715620000c957600080fd5b505092919050505060016000803373ffffffffffffffffffffffffffffffffffffffff1673ffffffffffffffffffffffffffffffffffffffff16815260200190815260200160002060006101000a81548160ff02191690831515021790555080600190805190602001906200014092919062000162565b5081600290805190602001906200015992919062000162565b50505062000211565b828054600181600116156101000203166002900490600052602060002090601f016020900481019282601f10620001a557805160ff1916838001178555620001d6565b82800160010185558215620001d6579182015b82811115620001d5578251825591602001919060010190620001b8565b5b509050620001e59190620001e9565b5090565b6200020e91905b808211156200020a576000816000905550600101620001f0565b5090565b90565b614ee880620002216000396000f3fe608060405234801561001057600080fd5b5060043610610069576000357c0100000000000000000000000000000000000000000000000000000000900480630a59a98c1461006e5780631ee1f800146100f15780635e5c06e2146101745780637fac7eec146101d0575b600080fd5b6100766103b9565b6040518080602001828103825283818151815260200191508051906020019080838360005b838110156100b657808201518184015260208101905061009b565b50505050905090810190601f1680156100e35780820380516001836020036101000a031916815260200191505b509250505060405180910390f35b6100f9610457565b6040518080602001828103825283818151815260200191508051906020019080838360005b8381101561013957808201518184015260208101905061011e565b50505050905090810190601f1680156101665780820380516001836020036101000a031916815260200191505b509250505060405180910390f35b6101b66004803603602081101561018a57600080fd5b81019080803573ffffffffffffffffffffffffffffffffffffffff1690602001909291905050506104f5565b604051808215151515815260200191505060405180910390f35b6103b7600480360360608110156101e657600080fd5b810190808035906020019064010000000081111561020357600080fd5b82018360208201111561021557600080fd5b8035906020019184600183028401116401000000008311171561023757600080fd5b91908080601f016020809104026020016040519081016040528093929190818152602001838380828437600081840152601f19601f8201169050808301925050505050505091929192908035906020019064010000000081111561029a57600080fd5b8201836020820111156102ac57600080fd5b803590602001918460018302840111640100000000831117156102ce57600080fd5b91908080601f016020809104026020016040519081016040528093929190818152602001838380828437600081840152601f19601f8201169050808301925050505050505091929192908035906020019064010000000081111561033157600080fd5b82018360208201111561034357600080fd5b8035906020019184600183028401116401000000008311171561036557600080fd5b91908080601f016020809104026020016040519081016040528093929190818152602001838380828437600081840152601f19601f820116905080830192505050505050509192919290505050610515565b005b60028054600181600116156101000203166002900480601f01602080910402602001604051908101604052809291908181526020018280546001816001161561010002031660029004801561044f5780601f106104245761010080835404028352916020019161044f565b820191906000526020600020905b81548152906001019060200180831161043257829003601f168201915b505050505081565b60018054600181600116156101000203166002900480601f0160208091040260200160405190810160405280929190818152602001828054600181600116156101000203166002900480156104ed5780601f106104c2576101008083540402835291602001916104ed565b820191906000526020600020905b8154815290600101906020018083116104d057829003601f168201915b505050505081565b60006020528060005260406000206000915054906101000a900460ff1681565b606061052084610a7f565b9050606061052d84610a7f565b90506060600260405190808252806020026020018201604052801561056c57816020015b610559614680565b8152602001906001900390816105515790505b50905061057883610fc5565b81600081518110151561058757fe5b9060200190602002018190525061059d82610fc5565b8160018151811015156105ac57fe5b90602001906020020181905250606061060b826105fd6040805190810160405280600181526020017f2e00000000000000000000000000000000000000000000000000000000000000815250610fc5565b610ff390919063ffffffff16565b9050606061061888611157565b90506060610625826114f4565b905060606106328361151a565b9050600061064d89848488611747909392919063ffffffff16565b1415156106c2576040517f08c379a000000000000000000000000000000000000000000000000000000000815260040180806020018281038252601a8152602001807f525341207369676e617475726520636865636b206661696c656400000000000081525060200191505060405180910390fd5b60608060606106d08c6117fe565b925092509250600061078560018054600181600116156101000203166002900480601f0160208091040260200160405190810160405280929190818152602001828054600181600116156101000203166002900480156107715780601f1061074657610100808354040283529160200191610771565b820191906000526020600020905b81548152906001019060200180831161075457829003601f168201915b505050505085611e4090919063ffffffff16565b148061078f575060015b1515610803576040517f08c379a00000000000000000000000000000000000000000000000000000000081526004018080602001828103825260178152602001807f41756469656e636520646f6573206e6f74206d6174636800000000000000000081525060200191505060405180910390fd5b60006108b260028054600181600116156101000203166002900480601f01602080910402602001604051908101604052809291908181526020018280546001816001161561010002031660029004801561089e5780601f106108735761010080835404028352916020019161089e565b820191906000526020600020905b81548152906001019060200180831161088157829003601f168201915b505050505083611e4090919063ffffffff16565b141515610927576040517f08c379a00000000000000000000000000000000000000000000000000000000081526004018080602001828103825260168152602001807f5375626a65637420646f6573206e6f74206d617463680000000000000000000081525060200191505060405180910390fd5b606061098c33604051602001808273ffffffffffffffffffffffffffffffffffffffff1673ffffffffffffffffffffffffffffffffffffffff166c01000000000000000000000000028152601401915050604051602081830303815290604052610a7f565b905060006109a38483611e4090919063ffffffff16565b141515610a18576040517f08c379a000000000000000000000000000000000000000000000000000000000815260040180806020018281038252601b8152602001807f53656e64657220646f6573206e6f74206d61746368206e6f6e6365000000000081525060200191505060405180910390fd5b60016000803373ffffffffffffffffffffffffffffffffffffffff1673ffffffffffffffffffffffffffffffffffffffff16815260200190815260200160002060006101000a81548160ff0219169083151502179055505050505050505050505050505050565b606080829050600060038251811515610a9457fe5b0690506000600382600303811515610aa857fe5b06600460036002865101811515610abb57fe5b04020390506060816040519080825280601f01601f191660200182016040528015610af55781602001600182028038833980820191505090505b509050600080905060008090505b855160038301111515610da557610c9b8683815181101515610b2157fe5b9060200101517f010000000000000000000000000000000000000000000000000000000000000090047f0100000000000000000000000000000000000000000000000000000000000000027f0100000000000000000000000000000000000000000000000000000000000000900460ff168760018501815181101515610ba357fe5b9060200101517f010000000000000000000000000000000000000000000000000000000000000090047f0100000000000000000000000000000000000000000000000000000000000000027f0100000000000000000000000000000000000000000000000000000000000000900460ff168860028601815181101515610c2557fe5b9060200101517f010000000000000000000000000000000000000000000000000000000000000090047f0100000000000000000000000000000000000000000000000000000000000000027f0100000000000000000000000000000000000000000000000000000000000000900460ff16612106565b8685815181101515610ca957fe5b90602001018760018701815181101515610cbf57fe5b90602001018860028801815181101515610cd557fe5b90602001018960038901815181101515610ceb57fe5b9060200101847effffffffffffffffffffffffffffffffffffffffffffffffffffffffffffff191660001a9053847effffffffffffffffffffffffffffffffffffffffffffffffffffffffffffff191660001a9053847effffffffffffffffffffffffffffffffffffffffffffffffffffffffffffff191660001a9053847effffffffffffffffffffffffffffffffffffffffffffffffffffffffffffff191660001a905350505050600481019050600382019150610b03565b600085141515610fb75760008686885103815181101515610dc257fe5b9060200101517f010000000000000000000000000000000000000000000000000000000000000090047f0100000000000000000000000000000000000000000000000000000000000000027f01000000000000000000000000000000000000000000000000000000000000009004905060008090506002871415610ec357876001895103815181101515610e5257fe5b9060200101517f010000000000000000000000000000000000000000000000000000000000000090047f0100000000000000000000000000000000000000000000000000000000000000027f0100000000000000000000000000000000000000000000000000000000000000900490505b600080600080610edb8660ff168660ff166000612106565b9350935093509350838988815181101515610ef257fe5b9060200101907effffffffffffffffffffffffffffffffffffffffffffffffffffffffffffff1916908160001a905350828960018901815181101515610f3457fe5b9060200101907effffffffffffffffffffffffffffffffffffffffffffffffffffffffffffff1916908160001a90535060028b1415610fb057818960028901815181101515610f7f57fe5b9060200101907effffffffffffffffffffffffffffffffffffffffffffffffffffffffffffff1916908160001a9053505b5050505050505b829650505050505050919050565b610fcd61469a565b600060208301905060408051908101604052808451815260200182815250915050919050565b60606000825114156110175760206040519081016040528060008152509050611151565b60006001835103846000015102905060008090505b835181101561106257838181518110151561104357fe5b906020019060200201516000015182019150808060010191505061102c565b506060816040519080825280601f01601f1916602001820160405280156110985781602001600182028038833980820191505090505b509050600060208201905060008090505b8551811015611149576110f38287838151811015156110c457fe5b906020019060200201516020015188848151811015156110e057fe5b9060200190602002015160000151612345565b858181518110151561110157fe5b906020019060200201516000015182019150600186510381101561113c576111328288602001518960000151612345565b8660000151820191505b80806001019150506110a9565b508193505050505b92915050565b606060006060600061117360148661239090919063ffffffff16565b9250925092506000831415156111f1576040517f08c379a00000000000000000000000000000000000000000000000000000000081526004018080602001828103825260118152602001807f4a534f4e207061727365206661696c656400000000000000000000000000000081525060200191505060405180910390fd5b600160048111156111fe57fe5b82600081518110151561120d57fe5b9060200190602002015160000151600481111561122657fe5b14151561129b576040517f08c379a000000000000000000000000000000000000000000000000000000000815260040180806020018281038252601c8152602001807f4578706563746564204a575420746f20626520616e206f626a6563740000000081525060200191505060405180910390fd5b6000600190505b818110156114ea57600360048111156112b757fe5b83828151811015156112c557fe5b906020019060200201516000015160048111156112de57fe5b141515611336576040517f08c379a0000000000000000000000000000000000000000000000000000000008152600401808060200182810382526028815260200180614a6d6028913960400191505060405180910390fd5b6060611383848381518110151561134957fe5b9060200190602002015160200151858481518110151561136557fe5b90602001906020020151606001518961319d9092919063ffffffff16565b905060006113cf6040805190810160405280600381526020017f6b6964000000000000000000000000000000000000000000000000000000000081525083611e4090919063ffffffff16565b14156114de57600360048111156113e257fe5b84600184018151811015156113f357fe5b9060200190602002015160000151600481111561140c57fe5b141515611481576040517f08c379a000000000000000000000000000000000000000000000000000000000815260040180806020018281038252601b8152602001807f4578706563746564206b696420746f206265206120737472696e67000000000081525060200191505060405180910390fd5b6114d2846001840181518110151561149557fe5b906020019060200201516020015185600185018151811015156114b457fe5b90602001906020020151606001518961319d9092919063ffffffff16565b955050505050506114ef565b600282019150506112a2565b505050505b919050565b6060610120604051908101604052806101008152602001614dbd61010091399050919050565b6060600061154a60606040519081016040528060288152602001614b956028913984611e4090919063ffffffff16565b1415611574576101206040519081016040528061010081526020016147dd61010091399050611742565b60006115a260606040519081016040528060288152602001614a456028913984611e4090919063ffffffff16565b14156115cc57610120604051908101604052806101008152602001614bbd61010091399050611742565b60006115fa60606040519081016040528060288152602001614a1d6028913984611e4090919063ffffffff16565b141561162457610120604051908101604052806101008152602001614cbd61010091399050611742565b60006116526060604051908101604052806028815260200161478d6028913984611e4090919063ffffffff16565b141561167c576101206040519081016040528061010081526020016148dd61010091399050611742565b60006116aa606060405190810160405280602881526020016147b56028913984611e4090919063ffffffff16565b14156116d457610120604051908101604052806101008152602001614a9561010091399050611742565b6040517f08c379a00000000000000000000000000000000000000000000000000000000081526004018080602001828103825260158152602001807f4b6579206964206e6f74207265636f676e69736564000000000000000000000081525060200191505060405180910390fd5b919050565b60006117f46002866040518082805190602001908083835b602083101515611784578051825260208201915060208101905060208303925061175f565b6001836020036101000a038019825116818451168082178552505050505050905001915050602060405180830381855afa1580156117c6573d6000803e3d6000fd5b5050506040513d60208110156117db57600080fd5b810190808051906020019092919050505085858561329e565b9050949350505050565b606080606060006060600061181d60288861239090919063ffffffff16565b92509250925060008314151561189b576040517f08c379a00000000000000000000000000000000000000000000000000000000081526004018080602001828103825260118152602001807f4a534f4e207061727365206661696c656400000000000000000000000000000081525060200191505060405180910390fd5b600160048111156118a857fe5b8260008151811015156118b757fe5b906020019060200201516000015160048111156118d057fe5b141515611945576040517f08c379a000000000000000000000000000000000000000000000000000000000815260040180806020018281038252601c8152602001807f4578706563746564204a575420746f20626520616e206f626a6563740000000081525060200191505060405180910390fd5b6000600190505b81811015611e35576003600481111561196157fe5b838281518110151561196f57fe5b9060200190602002015160000151600481111561198857fe5b1415156119e0576040517f08c379a0000000000000000000000000000000000000000000000000000000008152600401808060200182810382526028815260200180614a6d6028913960400191505060405180910390fd5b6060611a2d84838151811015156119f357fe5b90602001906020020151602001518584815181101515611a0f57fe5b90602001906020020151606001518b61319d9092919063ffffffff16565b90506000611a796040805190810160405280600381526020017f737562000000000000000000000000000000000000000000000000000000000081525083611e4090919063ffffffff16565b1415611b835760036004811115611a8c57fe5b8460018401815181101515611a9d57fe5b90602001906020020151600001516004811115611ab657fe5b141515611b2b576040517f08c379a000000000000000000000000000000000000000000000000000000000815260040180806020018281038252601b8152602001807f45787065637465642073756220746f206265206120737472696e67000000000081525060200191505060405180910390fd5b611b7c8460018401815181101515611b3f57fe5b90602001906020020151602001518560018501815181101515611b5e57fe5b90602001906020020151606001518b61319d9092919063ffffffff16565b9550611e29565b6000611bcd6040805190810160405280600381526020017f617564000000000000000000000000000000000000000000000000000000000081525083611e4090919063ffffffff16565b1415611cd75760036004811115611be057fe5b8460018401815181101515611bf157fe5b90602001906020020151600001516004811115611c0a57fe5b141515611c7f576040517f08c379a000000000000000000000000000000000000000000000000000000000815260040180806020018281038252601b8152602001807f45787065637465642061756420746f206265206120737472696e67000000000081525060200191505060405180910390fd5b611cd08460018401815181101515611c9357fe5b90602001906020020151602001518560018501815181101515611cb257fe5b90602001906020020151606001518b61319d9092919063ffffffff16565b9750611e28565b6000611d216040805190810160405280600581526020017f6e6f6e636500000000000000000000000000000000000000000000000000000081525083611e4090919063ffffffff16565b1415611e275760036004811115611d3457fe5b8460018401815181101515611d4557fe5b90602001906020020151600001516004811115611d5e57fe5b141515611dd3576040517f08c379a000000000000000000000000000000000000000000000000000000000815260040180806020018281038252601d8152602001807f4578706563746564206e6f6e636520746f206265206120737472696e6700000081525060200191505060405180910390fd5b611e248460018401815181101515611de757fe5b90602001906020020151602001518560018501815181101515611e0657fe5b90602001906020020151606001518b61319d9092919063ffffffff16565b96505b5b5b6002820191505061194c565b505050509193909250565b6000606083905060608390506000825190508082511015611e6057815190505b60008090505b818110156120ac578281815181101515611e7c57fe5b9060200101517f010000000000000000000000000000000000000000000000000000000000000090047f0100000000000000000000000000000000000000000000000000000000000000027effffffffffffffffffffffffffffffffffffffffffffffffffffffffffffff19168482815181101515611ef757fe5b9060200101517f010000000000000000000000000000000000000000000000000000000000000090047f0100000000000000000000000000000000000000000000000000000000000000027effffffffffffffffffffffffffffffffffffffffffffffffffffffffffffff19161015611f96577fffffffffffffffffffffffffffffffffffffffffffffffffffffffffffffffff945050505050612100565b8281815181101515611fa457fe5b9060200101517f010000000000000000000000000000000000000000000000000000000000000090047f0100000000000000000000000000000000000000000000000000000000000000027effffffffffffffffffffffffffffffffffffffffffffffffffffffffffffff1916848281518110151561201f57fe5b9060200101517f010000000000000000000000000000000000000000000000000000000000000090047f0100000000000000000000000000000000000000000000000000000000000000027effffffffffffffffffffffffffffffffffffffffffffffffffffffffffffff1916111561209f576001945050505050612100565b8080600101915050611e66565b508151835110156120e2577fffffffffffffffffffffffffffffffffffffffffffffffffffffffffffffffff9350505050612100565b8151835111156120f85760019350505050612100565b600093505050505b92915050565b6000806000806000856008889060020a0260108a9060020a02171790506000603f601283908060020a82049150501690506000603f600c84908060020a82049150501690506000603f600685908060020a82049150501690506000603f85169050606060405190810160405280604081526020016149dd604091398481518110151561218e57fe5b9060200101517f010000000000000000000000000000000000000000000000000000000000000090047f0100000000000000000000000000000000000000000000000000000000000000029850606060405190810160405280604081526020016149dd604091398381518110151561220257fe5b9060200101517f010000000000000000000000000000000000000000000000000000000000000090047f0100000000000000000000000000000000000000000000000000000000000000029750606060405190810160405280604081526020016149dd604091398281518110151561227657fe5b9060200101517f010000000000000000000000000000000000000000000000000000000000000090047f0100000000000000000000000000000000000000000000000000000000000000029650606060405190810160405280604081526020016149dd60409139818151811015156122ea57fe5b9060200101517f010000000000000000000000000000000000000000000000000000000000000090047f0100000000000000000000000000000000000000000000000000000000000000029550505050505093509350935093565b5b60208110151561236b5781518352602083019250602082019150602081039050612346565b60006001826020036101000a0390508019835116818551168181178652505050505050565b600060606000606085905060006123a56146b4565b6123ae876138bc565b80965081925050506000808260200151905060006123ca6146d6565b5b8651856000015110156131805760008786600001518151811015156123ec57fe5b9060200101517f010000000000000000000000000000000000000000000000000000000000000090047f0100000000000000000000000000000000000000000000000000000000000000029050607b7f010000000000000000000000000000000000000000000000000000000000000002817effffffffffffffffffffffffffffffffffffffffffffffffffffffffffffff191614806124d05750605b7f010000000000000000000000000000000000000000000000000000000000000002817effffffffffffffffffffffffffffffffffffffffffffffffffffffffffffff1916145b1561261d5783806001019450506124e7868b61395a565b80935081985050508615156125115760038a60008090509a509a509a505050505050505050613196565b7fffffffffffffffffffffffffffffffffffffffffffffffffffffffffffffffff86604001511415156125705789866040015181518110151561255057fe5b9060200190602002015160a001805180919060010160ff1660ff16815250505b607b7f010000000000000000000000000000000000000000000000000000000000000002817effffffffffffffffffffffffffffffffffffffffffffffffffffffffffffff1916146125c35760026125c6565b60015b826000019060048111156125d657fe5b908160048111156125e357fe5b815250508560000151826020018181525050600182604001901515908115158152505060018660200151038660400181815250505061316b565b607d7f010000000000000000000000000000000000000000000000000000000000000002817effffffffffffffffffffffffffffffffffffffffffffffffffffffffffffff191614806126b45750605d7f010000000000000000000000000000000000000000000000000000000000000002817effffffffffffffffffffffffffffffffffffffffffffffffffffffffffffff1916145b1561290e576000607d7f010000000000000000000000000000000000000000000000000000000000000002827effffffffffffffffffffffffffffffffffffffffffffffffffffffffffffff19161461270e576002612711565b60015b90506000809050600188602001510394505b600085101515612830578b8581518110151561273b57fe5b9060200190602002015193508360400151801561275a57508360800151155b156128225781600481111561276b57fe5b8460000151600481111561277b57fe5b14151561279f5760018c60008090509c509c509c5050505050505050505050613196565b7fffffffffffffffffffffffffffffffffffffffffffffffffffffffffffffffff88604001818152505060018860000151018c868151811015156127df57fe5b90602001906020020151606001818152505060018c8681518110151561280157fe5b90602001906020020151608001901515908115158152505060019050612830565b848060019003955050612723565b8015156128545760018c60008090509c509c509c5050505050505050505050613196565b5b60008511156128ad578b8581518110151561286c57fe5b9060200190602002015193508360400151801561288b57508360800151155b1561289f57848860400181815250506128ad565b848060019003955050612855565b6000851415612906578b858151811015156128c457fe5b906020019060200201519350836040015180156128e357508360800151155b1561290557846fffffffffffffffffffffffffffffffff168860400181815250505b5b50505061316b565b7f2200000000000000000000000000000000000000000000000000000000000000817effffffffffffffffffffffffffffffffffffffffffffffffffffffffffffff191614156129f657612963868b8a613a2c565b945060008514151561298957848a60008090509a509a509a505050505050505050613196565b83806001019450507fffffffffffffffffffffffffffffffffffffffffffffffffffffffffffffffff86604001511415156129f0578986604001518151811015156129d057fe5b9060200190602002015160a001805180919060010160ff1660ff16815250505b5061316b565b7f2000000000000000000000000000000000000000000000000000000000000000817effffffffffffffffffffffffffffffffffffffffffffffffffffffffffffff19161480612a8a575060117f010000000000000000000000000000000000000000000000000000000000000002817effffffffffffffffffffffffffffffffffffffffffffffffffffffffffffff1916145b80612ad9575060127f010000000000000000000000000000000000000000000000000000000000000002817effffffffffffffffffffffffffffffffffffffffffffffffffffffffffffff1916145b80612b28575060147f010000000000000000000000000000000000000000000000000000000000000002817effffffffffffffffffffffffffffffffffffffffffffffffffffffffffffff1916145b15612b33575061316b565b7f3a00000000000000000000000000000000000000000000000000000000000000817effffffffffffffffffffffffffffffffffffffffffffffffffffffffffffff19161415612b945760018660200151038660400181815250505061316b565b7f2c00000000000000000000000000000000000000000000000000000000000000817effffffffffffffffffffffffffffffffffffffffffffffffffffffffffffff19161415612d85577fffffffffffffffffffffffffffffffffffffffffffffffffffffffffffffffff866040015114158015612c48575060026004811115612c1a57fe5b8a8760400151815181101515612c2c57fe5b90602001906020020151600001516004811115612c4557fe5b14155b8015612c8a575060016004811115612c5c57fe5b8a8760400151815181101515612c6e57fe5b90602001906020020151600001516004811115612c8757fe5b14155b15612d7f57600186602001510392505b600083101515612d7e5760026004811115612cb157fe5b8a84815181101515612cbf57fe5b90602001906020020151600001516004811115612cd857fe5b1480612d15575060016004811115612cec57fe5b8a84815181101515612cfa57fe5b90602001906020020151600001516004811115612d1357fe5b145b15612d70578983815181101515612d2857fe5b90602001906020020151604001518015612d5b57508983815181101515612d4b57fe5b9060200190602002015160800151155b15612d6f5782866040018181525050612d7e565b5b828060019003935050612c9a565b5b5061316b565b7f3000000000000000000000000000000000000000000000000000000000000000817effffffffffffffffffffffffffffffffffffffffffffffffffffffffffffff191610158015612e1957507f3900000000000000000000000000000000000000000000000000000000000000817effffffffffffffffffffffffffffffffffffffffffffffffffffffffffffff191611155b80612e6557507f2d00000000000000000000000000000000000000000000000000000000000000817effffffffffffffffffffffffffffffffffffffffffffffffffffffffffffff1916145b80612eb157507f6600000000000000000000000000000000000000000000000000000000000000817effffffffffffffffffffffffffffffffffffffffffffffffffffffffffffff1916145b80612efd57507f7400000000000000000000000000000000000000000000000000000000000000817effffffffffffffffffffffffffffffffffffffffffffffffffffffffffffff1916145b80612f4957507f6e00000000000000000000000000000000000000000000000000000000000000817effffffffffffffffffffffffffffffffffffffffffffffffffffffffffffff1916145b156130af577fffffffffffffffffffffffffffffffffffffffffffffffffffffffffffffffff866040015114151561301157898660400151815181101515612f8d57fe5b90602001906020020151915060016004811115612fa657fe5b82600001516004811115612fb657fe5b1480612ff0575060036004811115612fca57fe5b82600001516004811115612fda57fe5b148015612fef575060008260a0015160ff1614155b5b156130105760018a60008090509a509a509a505050505050505050613196565b5b61301c868b8a614137565b945060008514151561304257848a60008090509a509a509a505050505050505050613196565b83806001019450507fffffffffffffffffffffffffffffffffffffffffffffffffffffffffffffffff86604001511415156130a95789866040015181518110151561308957fe5b9060200190602002015160a001805180919060010160ff1660ff16815250505b5061316b565b60207f010000000000000000000000000000000000000000000000000000000000000002817effffffffffffffffffffffffffffffffffffffffffffffffffffffffffffff1916101580156131495750607e7f010000000000000000000000000000000000000000000000000000000000000002817effffffffffffffffffffffffffffffffffffffffffffffffffffffffffffff191611155b156131695760018a60008090509a509a509a505050505050505050613196565b505b846000018051809190600101815250506123cb565b6000898660200151995099509950505050505050505b9250925092565b60608084905060608484036040519080825280601f01601f1916602001820160405280156131da5781602001600182028038833980820191505090505b50905060008590505b848110156132915782818151811015156131f957fe5b9060200101517f010000000000000000000000000000000000000000000000000000000000000090047f0100000000000000000000000000000000000000000000000000000000000000028287830381518110151561325457fe5b9060200101907effffffffffffffffffffffffffffffffffffffffffffffffffffffffffffff1916908160001a90535080806001019150506131e3565b5080925050509392505050565b60006132a861471f565b61026060405190810160405280603060ff168152602001603160ff168152602001603060ff168152602001600d60ff168152602001600660ff168152602001600960ff168152602001606060ff168152602001608660ff168152602001604860ff168152602001600160ff168152602001606560ff168152602001600360ff168152602001600460ff168152602001600260ff168152602001600160ff168152602001600560ff168152602001600060ff168152602001600460ff168152602001602060ff168152509050600b602060ff166013010183511015151561338d57600080fd5b6000606061339c8787876144f0565b90506000815190506000865190506060816040519080825280601f01601f1916602001820160405280156133df5781602001600182028038833980820191505090505b5090508160208201846020870160056107d05a03fa50600060206013600385030303905060007f01000000000000000000000000000000000000000000000000000000000000000282600081518110151561343657fe5b9060200101517f010000000000000000000000000000000000000000000000000000000000000090047f0100000000000000000000000000000000000000000000000000000000000000027effffffffffffffffffffffffffffffffffffffffffffffffffffffffffffff1916141580613530575060018260018151811015156134bc57fe5b9060200101517f010000000000000000000000000000000000000000000000000000000000000090047f0100000000000000000000000000000000000000000000000000000000000000027f0100000000000000000000000000000000000000000000000000000000000000900460ff1614155b156135455760019750505050505050506138b4565b600295505b806002018610156136185760ff7f010000000000000000000000000000000000000000000000000000000000000002828781518110151561358757fe5b9060200101517f010000000000000000000000000000000000000000000000000000000000000090047f0100000000000000000000000000000000000000000000000000000000000000027effffffffffffffffffffffffffffffffffffffffffffffffffffffffffffff191614151561360b5760029750505050505050506138b4565b858060010196505061354a565b60007f010000000000000000000000000000000000000000000000000000000000000002828260020181518110151561364d57fe5b9060200101517f010000000000000000000000000000000000000000000000000000000000000090047f0100000000000000000000000000000000000000000000000000000000000000027effffffffffffffffffffffffffffffffffffffffffffffffffffffffffffff19161415156136d15760039750505050505050506138b4565b600095505b601386101561379d5786866013811015156136ed57fe5b602002015160ff168287836003010181518110151561370857fe5b9060200101517f010000000000000000000000000000000000000000000000000000000000000090047f0100000000000000000000000000000000000000000000000000000000000000027f0100000000000000000000000000000000000000000000000000000000000000900460ff161415156137905760049750505050505050506138b4565b85806001019650506136d6565b600095505b602060ff168610156138a8578b866020811015156137bc57fe5b1a7f0100000000000000000000000000000000000000000000000000000000000000027effffffffffffffffffffffffffffffffffffffffffffffffffffffffffffff19168287601384600301010181518110151561381757fe5b9060200101517f010000000000000000000000000000000000000000000000000000000000000090047f0100000000000000000000000000000000000000000000000000000000000000027effffffffffffffffffffffffffffffffffffffffffffffffffffffffffffff191614151561389b5760059750505050505050506138b4565b85806001019650506137a2565b60009750505050505050505b949350505050565b6138c46146b4565b60606138ce6146b4565b60606040519081016040528060008152602001600081526020017fffffffffffffffffffffffffffffffffffffffffffffffffffffffffffffffff815250905060608460405190808252806020026020018201604052801561394a57816020015b613937614743565b81526020019060019003908161392f5790505b5090508181935093505050915091565b60006139646146d6565b8251846020015110151561399c57600083600185510381518110151561398657fe5b9060200190602002015180905091509150613a25565b6139a46146d6565b60c060405190810160405280600060048111156139bd57fe5b81526020016000815260200160001515815260200160008152602001600015158152602001600060ff168152509050808486602001518151811015156139ff57fe5b906020019060200201819052508460200180518091906001018152505060018192509250505b9250929050565b600080846000015190506000613a406146d6565b866000018051809190600101815250505b84518760000151101561411e576000858860000151815181101515613a7257fe5b9060200101517f010000000000000000000000000000000000000000000000000000000000000090047f01000000000000000000000000000000000000000000000000000000000000000290507f2200000000000000000000000000000000000000000000000000000000000000817effffffffffffffffffffffffffffffffffffffffffffffffffffffffffffff19161415613b5a57613b13888861395a565b8093508194505050821515613b3957838860000181815250506003945050505050614130565b613b4d826003600187018b600001516145c4565b6000945050505050614130565b605c817f0100000000000000000000000000000000000000000000000000000000000000900460ff16148015613b97575085516001896000015101105b1561410757876000018051809190600101815250507f2200000000000000000000000000000000000000000000000000000000000000868960000151815181101515613bdf57fe5b9060200101517f010000000000000000000000000000000000000000000000000000000000000090047f0100000000000000000000000000000000000000000000000000000000000000027effffffffffffffffffffffffffffffffffffffffffffffffffffffffffffff19161480613cf557507f2f00000000000000000000000000000000000000000000000000000000000000868960000151815181101515613c8657fe5b9060200101517f010000000000000000000000000000000000000000000000000000000000000090047f0100000000000000000000000000000000000000000000000000000000000000027effffffffffffffffffffffffffffffffffffffffffffffffffffffffffffff1916145b80613d9d57507f5c00000000000000000000000000000000000000000000000000000000000000868960000151815181101515613d2e57fe5b9060200101517f010000000000000000000000000000000000000000000000000000000000000090047f0100000000000000000000000000000000000000000000000000000000000000027effffffffffffffffffffffffffffffffffffffffffffffffffffffffffffff1916145b80613e4557507f6600000000000000000000000000000000000000000000000000000000000000868960000151815181101515613dd657fe5b9060200101517f010000000000000000000000000000000000000000000000000000000000000090047f0100000000000000000000000000000000000000000000000000000000000000027effffffffffffffffffffffffffffffffffffffffffffffffffffffffffffff1916145b80613eed57507f7200000000000000000000000000000000000000000000000000000000000000868960000151815181101515613e7e57fe5b9060200101517f010000000000000000000000000000000000000000000000000000000000000090047f0100000000000000000000000000000000000000000000000000000000000000027effffffffffffffffffffffffffffffffffffffffffffffffffffffffffffff1916145b80613f9557507f6e00000000000000000000000000000000000000000000000000000000000000868960000151815181101515613f2657fe5b9060200101517f010000000000000000000000000000000000000000000000000000000000000090047f0100000000000000000000000000000000000000000000000000000000000000027effffffffffffffffffffffffffffffffffffffffffffffffffffffffffffff1916145b8061403d57507f6200000000000000000000000000000000000000000000000000000000000000868960000151815181101515613fce57fe5b9060200101517f010000000000000000000000000000000000000000000000000000000000000090047f0100000000000000000000000000000000000000000000000000000000000000027effffffffffffffffffffffffffffffffffffffffffffffffffffffffffffff1916145b806140e557507f740000000000000000000000000000000000000000000000000000000000000086896000015181518110151561407657fe5b9060200101517f010000000000000000000000000000000000000000000000000000000000000090047f0100000000000000000000000000000000000000000000000000000000000000027effffffffffffffffffffffffffffffffffffffffffffffffffffffffffffff1916145b156140f05750614109565b838860000181815250506001945050505050614130565b505b86600001805180919060010181525050613a51565b82876000018181525050600293505050505b9392505050565b600080600090506000856000015190506000806141526146d6565b5b86518960000151101561446d5786896000015181518110151561417257fe5b9060200101517f010000000000000000000000000000000000000000000000000000000000000090047f01000000000000000000000000000000000000000000000000000000000000000292507f2000000000000000000000000000000000000000000000000000000000000000837effffffffffffffffffffffffffffffffffffffffffffffffffffffffffffff1916148061425057507f0900000000000000000000000000000000000000000000000000000000000000837effffffffffffffffffffffffffffffffffffffffffffffffffffffffffffff1916145b8061429c57507f0a00000000000000000000000000000000000000000000000000000000000000837effffffffffffffffffffffffffffffffffffffffffffffffffffffffffffff1916145b806142e857507f0d00000000000000000000000000000000000000000000000000000000000000837effffffffffffffffffffffffffffffffffffffffffffffffffffffffffffff1916145b8061433457507f2c00000000000000000000000000000000000000000000000000000000000000837effffffffffffffffffffffffffffffffffffffffffffffffffffffffffffff1916145b806143835750607d7f010000000000000000000000000000000000000000000000000000000000000002837effffffffffffffffffffffffffffffffffffffffffffffffffffffffffffff1916145b806143d25750605d7f010000000000000000000000000000000000000000000000000000000000000002837effffffffffffffffffffffffffffffffffffffffffffffffffffffffffffff1916145b156143e0576001945061446d565b6020837f0100000000000000000000000000000000000000000000000000000000000000900460ff16108061443b5750607f837f0100000000000000000000000000000000000000000000000000000000000000900460ff16115b1561445857838960000181815250506001955050505050506144e9565b88600001805180919060010181525050614153565b84151561448c57838960000181815250506002955050505050506144e9565b614496898961395a565b80925081935050508115156144bd57838960000181815250506003955050505050506144e9565b6144ce816004868c600001516145c4565b88600001805180919060019003815250506000955050505050505b9392505050565b60606000825184518651606001010190506000855190506000855190506000855190506000806000806060886040519080825280601f01601f19166020018201604052801561454e5781602001600182028038833980820191505090505b50905060208d01945060208c01935060208b01925087602082015286604082015285606082015260208101915061458a60608301868f51614635565b61459c8d516060840101858e51614635565b6145b18c518e51606085010101848d51614635565b8099505050505050505050509392505050565b82846000019060048111156145d557fe5b908160048111156145e257fe5b8152505081846020018181525050600184604001901515908115158152505080846060018181525050600184608001901515908115158152505060008460a0019060ff16908160ff168152505050505050565b5b60208110151561465b5781518352602083019250602082019150602081039050614636565b60006001826020036101000a0390508019835116818551168181178652505050505050565b604080519081016040528060008152602001600081525090565b604080519081016040528060008152602001600081525090565b6060604051908101604052806000815260200160008152602001600081525090565b60c060405190810160405280600060048111156146ef57fe5b81526020016000815260200160001515815260200160008152602001600015158152602001600060ff1681525090565b61026060405190810160405280601390602082028038833980820191505090505090565b60c0604051908101604052806000600481111561475c57fe5b81526020016000815260200160001515815260200160008152602001600015158152602001600060ff168152509056fe3666363738316261373131393961363538653736306161356161393365356663336463373532623533373832643366306263383930303864396432633031373330663736356366623139643362373065c1b45cfe1541884184feccaa75b9e4784c7e1901003aea816e04889f51e04b4c5a3aa8e4f2dac78b414d4cb83f3e66a3a387f7ad679d961fc0046c8978d4794e986a51119e980760e7507778034eaf293326083df36e2b8d6208f7847146878b544a9d5377741ba9cfc7677b4f3d8fdb0f6f37409d2904e75c6d5ba5bb4e09de113f0fe336f3459679eb76b62e9bbc04f668eee2e4c25654dc533ea16481bfc10a75b8b6da591585c624f362445d421aaeb41ce2c68f5513c78b50fa2d8c396d9ef1ae41bb47390c0e5ca5045b10935dad704f897ad581cba3668c1b14e9cc2ec1d781b7db77a4636b7fdb8445db5ddec064f3226cc5bd8081a0b5d9109254c1d49dbceff76b39683d609a217bd4ceed3d3f97710591738e5840a45f953eec42e118571f4a7ba0f97ee39e4e1425ed88cb39716584b3b2c85481302f5d290b4026e4353f60aa280e984ed7ef450029a6aadc8af247fc8cf76929981787d33a0d445afed1ff6f013aeddc4daaf682b2293d7a344cb35aabab93dc39720744076ece177f3d7ed14af07f813adc81d601b388bbd7558e144d57c638f7bc54a4edd937cd5ab75ce3482df4bf225b88420f3325602650fbad5d2e18ff9ae2185c35c37cca87d582bf25a0b3028c33ceec3acc258b77d7141009dca2d11b12c4141aa8687fb288b2e5fde9a8c664a39628192fcc1394cebf0468e5386060323afc95274142434445464748494a4b4c4d4e4f505152535455565758595a6162636465666768696a6b6c6d6e6f707172737475767778797a303132333435363738392d5f61343331336537666431653965326134646564336232393264326137663465353139353734333038356438383766323663653332353737633462356138613165316135326531396433303166383138314578706563746564204a575420746f20636f6e7461696e206f6e6c7920737472696e67206b657973bc8b34bc6a0525159745b3cec2b6e4018b6872e41b90738df7151d0b7629d16ca0d515c69c58cee046495a259794845d30e456fc0044cfc820879fb9d7375264ae11112ece8250fd4f3a14bd9802c2f788fffc33d98beabef6637a51e2c64b07267eddc4129dfea201f7803d242b534dc5f8b49131ba006b673e4ea52f4fa01791e3f7301d1936eb5f10f427b3863066396116e64c9f0c087325cf1fea6a5dd695f4d387bf3b26c3eb185f507827074bd3e39a1c14798acd9e4b19f2723f1a9790b9297b3a1f102e253b9aeef725212b6d3db3b180068dfd657ea06231caa1c29e1b1311c368d9ff98c12bdfa3729f6ea6a3bbb206df1a91e3c5913a3ebe9bb332366663346364323364333837636263343930663630646235346139346136646431363533393938d7719dac3e6c7d4ba2f383c81cd5114ed6eefdb9425ce1cc836e9bbb070d6d75a6bdbf600c04f6f6a06b341d8c162f98022d389a0123daca3db05faed688a16bc8896f39fc159689efa58fc9f13849a3e1cbd1528a7e7af58c77c0fa19615291a05739654e21fea8d844a3bf271effbb2a076a6f3e125d3b0e6b03267cecd34563535353887673d4fc2b8ce66c95824284753d03033f35c227076a4f1859b77857ad2c39244ce1fe4eddbb4c2788aff6d4a74f5d08819c743c1c63dc11927aa52976ad805dc473d4a618221bf6e24a4ccfbf3bda4e991cf8b15025c7d6c0d35c4891610b01977c56112da20cc490860eb4a7504e1791aa4cb9e2134fb5632ed594edff42845dfc3f141c08c571d834ffc18e88bc96a385628b2f1c0cb3467fc4f579096aaa13d8666bc638f87220b599f452273974fd0331f928f7de3a7304cf2e13a9f18bb5d70096e7ea00b7bfaaeb26abb49234855f4b0e623d98f35e4dc15e3ce814d64b7eab28aa1786cde93eb095754e2e49410da144f4994216daf71567e86f14c6be6e815847436e4fe872f869c8e1bafa523c4167eed8af1088566442f7e427aa1de95ffb8f160383cbcd156f7c5312fa15ba7ab8d7eeec53f668fcb93ef31a5e35ff305df65327d8241e3f768b0de405a0568b697d8d65cb5101212bcfa1fd3085d09e0335a622a773ce219a27f2f9902c3e905cc70ee1785a584700000000000000000000000000000000000000000000000000000000000000000000000000000000000000000000000000000000000000000000000000000000000000000000000000000000000000000000000000000000000000000000000000000000000000000000000000000000000000000000000000000000000000000000000000000000000000000000000000000000000000000000000000000000000000000000000000000000000000000000000000000000000000000000000000000000000000000000000000000000000000000000000000000000000000000000000000000000000000000000000000000000000000000000000000010001a165627a7a7230582090e0b3f73c75d3e6109311288041907a0d0458cc0d529f02854aee72784249410029",
  "source": "pragma solidity ^0.5.0;\n\nimport \"./Base64.sol\";\nimport \"./JsmnSolLib.sol\";\nimport \"./JWT.sol\";\nimport \"./SolRsaVerify.sol\";\nimport \"./Strings.sol\";\n\ncontract Identity {\n\n  using Base64 for string;\n  using StringUtils for *;\n  using SolRsaVerify for *;\n  using JsmnSolLib for string;\n\n  mapping (address => bool) public accounts;\n  string public audience;\n  string public subject;\n  \n  constructor(string memory sub, string memory aud) public payable {\n    accounts[msg.sender] = true;\n    audience = aud;\n    subject = sub;\n  }\n\n  // function verify(string memory headerJson, string memory payloadJson, bytes memory signature) public view returns (string memory, string memory) {\n  //   string memory headerBase64 = headerJson.encode();\n  //   string memory payloadBase64 = payloadJson.encode();\n  //   StringUtils.slice[] memory slices = new StringUtils.slice[](2);\n  //   slices[0] = headerBase64.toSlice();\n  //   slices[1] = payloadBase64.toSlice();\n  //   string memory message = \".\".toSlice().join(slices);\n  //   string memory kid = parseHeader(headerJson);\n  //   bytes memory exponent = getRsaExponent(kid);\n  //   bytes memory modulus = getRsaModulus(kid);\n  //   // require(message.pkcs1Sha256VerifyStr(signature, exponent, modulus) == 0, \"RSA signature check failed\");\n\n  //   (string memory aud, string memory nonce, string memory sub) = parseToken(payloadJson);\n    \n  //   require(aud.strCompare(audience) == 0 || true, \"Audience does not match\");\n  //   require(sub.strCompare(subject) == 0, \"Subject does not match\");\n\n  //   string memory senderBase64 = string(abi.encodePacked(msg.sender)).encode();\n  //   return (senderBase64, nonce);\n  //   // require(senderBase64.strCompare(nonce) == 0, \"Sender does not match nonce\");\n  // }\n\n  function recover(string memory headerJson, string memory payloadJson, bytes memory signature) public {\n    string memory headerBase64 = headerJson.encode();\n    string memory payloadBase64 = payloadJson.encode();\n    StringUtils.slice[] memory slices = new StringUtils.slice[](2);\n    slices[0] = headerBase64.toSlice();\n    slices[1] = payloadBase64.toSlice();\n    string memory message = \".\".toSlice().join(slices);\n    string memory kid = parseHeader(headerJson);\n    bytes memory exponent = getRsaExponent(kid);\n    bytes memory modulus = getRsaModulus(kid);\n    require(message.pkcs1Sha256VerifyStr(signature, exponent, modulus) == 0, \"RSA signature check failed\");\n\n    (string memory aud, string memory nonce, string memory sub) = parseToken(payloadJson);\n    \n    require(aud.strCompare(audience) == 0 || true, \"Audience does not match\");\n    require(sub.strCompare(subject) == 0, \"Subject does not match\");\n\n    string memory senderBase64 = string(abi.encodePacked(msg.sender)).encode();\n    require(senderBase64.strCompare(nonce) == 0, \"Sender does not match nonce\");\n\n    accounts[msg.sender] = true;\n  }\n\n  function parseHeader(string memory json) internal pure returns (string memory kid) {\n    (uint exitCode, JsmnSolLib.Token[] memory tokens, uint ntokens) = json.parse(20);\n    require(exitCode == 0, \"JSON parse failed\");\n    \n    require(tokens[0].jsmnType == JsmnSolLib.JsmnType.OBJECT, \"Expected JWT to be an object\");\n    uint i = 1;\n    while (i < ntokens) {\n      require(tokens[i].jsmnType == JsmnSolLib.JsmnType.STRING, \"Expected JWT to contain only string keys\");\n      string memory key = json.getBytes(tokens[i].start, tokens[i].end);\n      if (key.strCompare(\"kid\") == 0) {\n        require(tokens[i+1].jsmnType == JsmnSolLib.JsmnType.STRING, \"Expected kid to be a string\");\n        return json.getBytes(tokens[i+1].start, tokens[i+1].end);\n      }\n      i += 2;\n    }\n  }\n\n  function parseToken(string memory json) internal pure returns (string memory aud, string memory nonce, string memory sub) {\n    (uint exitCode, JsmnSolLib.Token[] memory tokens, uint ntokens) = json.parse(40);\n    require(exitCode == 0, \"JSON parse failed\");\n    \n    require(tokens[0].jsmnType == JsmnSolLib.JsmnType.OBJECT, \"Expected JWT to be an object\");\n    uint i = 1;\n    while (i < ntokens) {\n      require(tokens[i].jsmnType == JsmnSolLib.JsmnType.STRING, \"Expected JWT to contain only string keys\");\n      string memory key = json.getBytes(tokens[i].start, tokens[i].end);\n      if (key.strCompare(\"sub\") == 0) {\n        require(tokens[i+1].jsmnType == JsmnSolLib.JsmnType.STRING, \"Expected sub to be a string\");\n        sub = json.getBytes(tokens[i+1].start, tokens[i+1].end);\n      } else if (key.strCompare(\"aud\") == 0) {\n        require(tokens[i+1].jsmnType == JsmnSolLib.JsmnType.STRING, \"Expected aud to be a string\");\n        aud = json.getBytes(tokens[i+1].start, tokens[i+1].end);\n      } else if (key.strCompare(\"nonce\") == 0) {\n        require(tokens[i+1].jsmnType == JsmnSolLib.JsmnType.STRING, \"Expected nonce to be a string\");\n        nonce = json.getBytes(tokens[i+1].start, tokens[i+1].end);\n      }\n      i += 2;\n    }\n  }\n\n  function getRsaModulus(string memory kid) internal pure returns (bytes memory) {\n    if (kid.strCompare(\"26fc4cd23d387cbc490f60db54a94a6dd1653998\") == 0) {\n      return hex\"c1b45cfe1541884184feccaa75b9e4784c7e1901003aea816e04889f51e04b4c5a3aa8e4f2dac78b414d4cb83f3e66a3a387f7ad679d961fc0046c8978d4794e986a51119e980760e7507778034eaf293326083df36e2b8d6208f7847146878b544a9d5377741ba9cfc7677b4f3d8fdb0f6f37409d2904e75c6d5ba5bb4e09de113f0fe336f3459679eb76b62e9bbc04f668eee2e4c25654dc533ea16481bfc10a75b8b6da591585c624f362445d421aaeb41ce2c68f5513c78b50fa2d8c396d9ef1ae41bb47390c0e5ca5045b10935dad704f897ad581cba3668c1b14e9cc2ec1d781b7db77a4636b7fdb8445db5ddec064f3226cc5bd8081a0b5d9109254c1\";\n    } else if (kid.strCompare(\"5d887f26ce32577c4b5a8a1e1a52e19d301f8181\") == 0) {\n      return hex\"d7719dac3e6c7d4ba2f383c81cd5114ed6eefdb9425ce1cc836e9bbb070d6d75a6bdbf600c04f6f6a06b341d8c162f98022d389a0123daca3db05faed688a16bc8896f39fc159689efa58fc9f13849a3e1cbd1528a7e7af58c77c0fa19615291a05739654e21fea8d844a3bf271effbb2a076a6f3e125d3b0e6b03267cecd34563535353887673d4fc2b8ce66c95824284753d03033f35c227076a4f1859b77857ad2c39244ce1fe4eddbb4c2788aff6d4a74f5d08819c743c1c63dc11927aa52976ad805dc473d4a618221bf6e24a4ccfbf3bda4e991cf8b15025c7d6c0d35c4891610b01977c56112da20cc490860eb4a7504e1791aa4cb9e2134fb5632ed5\";\n    } else if (kid.strCompare(\"a4313e7fd1e9e2a4ded3b292d2a7f4e519574308\") == 0) {\n      return hex\"94edff42845dfc3f141c08c571d834ffc18e88bc96a385628b2f1c0cb3467fc4f579096aaa13d8666bc638f87220b599f452273974fd0331f928f7de3a7304cf2e13a9f18bb5d70096e7ea00b7bfaaeb26abb49234855f4b0e623d98f35e4dc15e3ce814d64b7eab28aa1786cde93eb095754e2e49410da144f4994216daf71567e86f14c6be6e815847436e4fe872f869c8e1bafa523c4167eed8af1088566442f7e427aa1de95ffb8f160383cbcd156f7c5312fa15ba7ab8d7eeec53f668fcb93ef31a5e35ff305df65327d8241e3f768b0de405a0568b697d8d65cb5101212bcfa1fd3085d09e0335a622a773ce219a27f2f9902c3e905cc70ee1785a5847\";\n    } else if (kid.strCompare(\"6f6781ba71199a658e760aa5aa93e5fc3dc752b5\") == 0) {\n      return hex\"d49dbceff76b39683d609a217bd4ceed3d3f97710591738e5840a45f953eec42e118571f4a7ba0f97ee39e4e1425ed88cb39716584b3b2c85481302f5d290b4026e4353f60aa280e984ed7ef450029a6aadc8af247fc8cf76929981787d33a0d445afed1ff6f013aeddc4daaf682b2293d7a344cb35aabab93dc39720744076ece177f3d7ed14af07f813adc81d601b388bbd7558e144d57c638f7bc54a4edd937cd5ab75ce3482df4bf225b88420f3325602650fbad5d2e18ff9ae2185c35c37cca87d582bf25a0b3028c33ceec3acc258b77d7141009dca2d11b12c4141aa8687fb288b2e5fde9a8c664a39628192fcc1394cebf0468e5386060323afc9527\";\n    } else if (kid.strCompare(\"3782d3f0bc89008d9d2c01730f765cfb19d3b70e\") == 0) {\n      return hex\"bc8b34bc6a0525159745b3cec2b6e4018b6872e41b90738df7151d0b7629d16ca0d515c69c58cee046495a259794845d30e456fc0044cfc820879fb9d7375264ae11112ece8250fd4f3a14bd9802c2f788fffc33d98beabef6637a51e2c64b07267eddc4129dfea201f7803d242b534dc5f8b49131ba006b673e4ea52f4fa01791e3f7301d1936eb5f10f427b3863066396116e64c9f0c087325cf1fea6a5dd695f4d387bf3b26c3eb185f507827074bd3e39a1c14798acd9e4b19f2723f1a9790b9297b3a1f102e253b9aeef725212b6d3db3b180068dfd657ea06231caa1c29e1b1311c368d9ff98c12bdfa3729f6ea6a3bbb206df1a91e3c5913a3ebe9bb3\";\n    } else {\n      revert(\"Key id not recognised\");\n    }\n  }\n\n  function getRsaExponent(string memory) internal pure returns (bytes memory) {\n    return hex\"00000000000000000000000000000000000000000000000000000000000000000000000000000000000000000000000000000000000000000000000000000000000000000000000000000000000000000000000000000000000000000000000000000000000000000000000000000000000000000000000000000000000000000000000000000000000000000000000000000000000000000000000000000000000000000000000000000000000000000000000000000000000000000000000000000000000000000000000000000000000000000000000000000000000000000000000000000000000000000000000000000000000000000000000000010001\";\n  }\n}",
  "sourcePath": "/home/spalladino/Projects/solidity-jwt/contracts/Identity.sol",
  "compiler": {
    "name": "solc",
    "version": "0.5.4+commit.9549d8ff.Emscripten.clang"
  },
  "schemaVersion": "3.0.6",
  "updatedAt": "2019-05-02T01:17:43.191Z",
  "devdoc": {
    "methods": {}
  },
  "userdoc": {
    "methods": {}
  }
}