{
  "contractName": "Identity",
  "abi": [
    {
      "constant": true,
      "inputs": [],
      "name": "subject",
      "outputs": [
        {
          "name": "",
          "type": "string"
        }
      ],
      "payable": false,
      "stateMutability": "view",
      "type": "function"
    },
    {
      "constant": true,
      "inputs": [],
      "name": "audience",
      "outputs": [
        {
          "name": "",
          "type": "string"
        }
      ],
      "payable": false,
      "stateMutability": "view",
      "type": "function"
    },
    {
      "constant": true,
      "inputs": [],
      "name": "keys",
      "outputs": [
        {
          "name": "",
          "type": "address"
        }
      ],
      "payable": false,
      "stateMutability": "view",
      "type": "function"
    },
    {
      "constant": true,
      "inputs": [
        {
          "name": "",
          "type": "address"
        }
      ],
      "name": "accounts",
      "outputs": [
        {
          "name": "",
          "type": "bool"
        }
      ],
      "payable": false,
      "stateMutability": "view",
      "type": "function"
    },
    {
      "inputs": [
        {
          "name": "sub",
          "type": "string"
        },
        {
          "name": "aud",
          "type": "string"
        },
        {
          "name": "jwks",
          "type": "address"
        }
      ],
      "payable": true,
      "stateMutability": "payable",
      "type": "constructor"
    },
    {
      "constant": false,
      "inputs": [
        {
          "name": "headerJson",
          "type": "string"
        },
        {
          "name": "payloadJson",
          "type": "string"
        },
        {
          "name": "signature",
          "type": "bytes"
        }
      ],
      "name": "recover",
      "outputs": [],
      "payable": false,
      "stateMutability": "nonpayable",
      "type": "function"
    },
    {
      "constant": true,
      "inputs": [],
      "name": "getAccounts",
      "outputs": [
        {
          "name": "",
          "type": "address[]"
        }
      ],
      "payable": false,
      "stateMutability": "view",
      "type": "function"
    }
  ],
  "bytecode": "0x608060405260405162004dfb38038062004dfb833981018060405260608110156200002957600080fd5b8101908080516401000000008111156200004257600080fd5b828101905060208101848111156200005957600080fd5b81518560018202830111640100000000821117156200007757600080fd5b505092919060200180516401000000008111156200009457600080fd5b82810190506020810184811115620000ab57600080fd5b8151856001820283011164010000000082111715620000c957600080fd5b50509291906020018051906020019092919050505060016000803373ffffffffffffffffffffffffffffffffffffffff1673ffffffffffffffffffffffffffffffffffffffff16815260200190815260200160002060006101000a81548160ff02191690831515021790555060013390806001815401808255809150509060018203906000526020600020016000909192909190916101000a81548173ffffffffffffffffffffffffffffffffffffffff021916908373ffffffffffffffffffffffffffffffffffffffff160217905550508160029080519060200190620001b392919062000217565b508260039080519060200190620001cc92919062000217565b5080600460006101000a81548173ffffffffffffffffffffffffffffffffffffffff021916908373ffffffffffffffffffffffffffffffffffffffff160217905550505050620002c6565b828054600181600116156101000203166002900490600052602060002090601f016020900481019282601f106200025a57805160ff19168380011785556200028b565b828001600101855582156200028b579182015b828111156200028a5782518255916020019190600101906200026d565b5b5090506200029a91906200029e565b5090565b620002c391905b80821115620002bf576000816000905550600101620002a5565b5090565b90565b614b2580620002d66000396000f3fe608060405234801561001057600080fd5b506004361061007f576000357c0100000000000000000000000000000000000000000000000000000000900480630a59a98c146100845780631ee1f80014610107578063307540f61461018a5780635e5c06e2146101d45780637fac7eec146102305780638a48ac0314610419575b600080fd5b61008c610478565b6040518080602001828103825283818151815260200191508051906020019080838360005b838110156100cc5780820151818401526020810190506100b1565b50505050905090810190601f1680156100f95780820380516001836020036101000a031916815260200191505b509250505060405180910390f35b61010f610516565b6040518080602001828103825283818151815260200191508051906020019080838360005b8381101561014f578082015181840152602081019050610134565b50505050905090810190601f16801561017c5780820380516001836020036101000a031916815260200191505b509250505060405180910390f35b6101926105b4565b604051808273ffffffffffffffffffffffffffffffffffffffff1673ffffffffffffffffffffffffffffffffffffffff16815260200191505060405180910390f35b610216600480360360208110156101ea57600080fd5b81019080803573ffffffffffffffffffffffffffffffffffffffff1690602001909291905050506105da565b604051808215151515815260200191505060405180910390f35b6104176004803603606081101561024657600080fd5b810190808035906020019064010000000081111561026357600080fd5b82018360208201111561027557600080fd5b8035906020019184600183028401116401000000008311171561029757600080fd5b91908080601f016020809104026020016040519081016040528093929190818152602001838380828437600081840152601f19601f820116905080830192505050505050509192919290803590602001906401000000008111156102fa57600080fd5b82018360208201111561030c57600080fd5b8035906020019184600183028401116401000000008311171561032e57600080fd5b91908080601f016020809104026020016040519081016040528093929190818152602001838380828437600081840152601f19601f8201169050808301925050505050505091929192908035906020019064010000000081111561039157600080fd5b8201836020820111156103a357600080fd5b803590602001918460018302840111640100000000831117156103c557600080fd5b91908080601f016020809104026020016040519081016040528093929190818152602001838380828437600081840152601f19601f8201169050808301925050505050505091929192905050506105fa565b005b610421610c1d565b6040518080602001828103825283818151815260200191508051906020019060200280838360005b83811015610464578082015181840152602081019050610449565b505050509050019250505060405180910390f35b60038054600181600116156101000203166002900480601f01602080910402602001604051908101604052809291908181526020018280546001816001161561010002031660029004801561050e5780601f106104e35761010080835404028352916020019161050e565b820191906000526020600020905b8154815290600101906020018083116104f157829003601f168201915b505050505081565b60028054600181600116156101000203166002900480601f0160208091040260200160405190810160405280929190818152602001828054600181600116156101000203166002900480156105ac5780601f10610581576101008083540402835291602001916105ac565b820191906000526020600020905b81548152906001019060200180831161058f57829003601f168201915b505050505081565b600460009054906101000a900473ffffffffffffffffffffffffffffffffffffffff1681565b60006020528060005260406000206000915054906101000a900460ff1681565b606061060584610cab565b9050606061061284610cab565b90506060600260405190808252806020026020018201604052801561065157816020015b61063e614885565b8152602001906001900390816106365790505b50905061065d836111f1565b81600081518110151561066c57fe5b90602001906020020181905250610682826111f1565b81600181518110151561069157fe5b9060200190602002018190525060606106f0826106e26040805190810160405280600181526020017f2e000000000000000000000000000000000000000000000000000000000000008152506111f1565b61121f90919063ffffffff16565b905060606106fd88611383565b9050606061070a82611720565b9050606061071783611746565b905060006107328984848861194c909392919063ffffffff16565b1415156107a7576040517f08c379a000000000000000000000000000000000000000000000000000000000815260040180806020018281038252601a8152602001807f525341207369676e617475726520636865636b206661696c656400000000000081525060200191505060405180910390fd5b60608060606107b58c611a03565b925092509250600061086a60028054600181600116156101000203166002900480601f0160208091040260200160405190810160405280929190818152602001828054600181600116156101000203166002900480156108565780601f1061082b57610100808354040283529160200191610856565b820191906000526020600020905b81548152906001019060200180831161083957829003601f168201915b50505050508561204590919063ffffffff16565b1480610874575060015b15156108e8576040517f08c379a00000000000000000000000000000000000000000000000000000000081526004018080602001828103825260178152602001807f41756469656e636520646f6573206e6f74206d6174636800000000000000000081525060200191505060405180910390fd5b600061099760038054600181600116156101000203166002900480601f0160208091040260200160405190810160405280929190818152602001828054600181600116156101000203166002900480156109835780601f1061095857610100808354040283529160200191610983565b820191906000526020600020905b81548152906001019060200180831161096657829003601f168201915b50505050508361204590919063ffffffff16565b141515610a0c576040517f08c379a00000000000000000000000000000000000000000000000000000000081526004018080602001828103825260168152602001807f5375626a65637420646f6573206e6f74206d617463680000000000000000000081525060200191505060405180910390fd5b6060610a7133604051602001808273ffffffffffffffffffffffffffffffffffffffff1673ffffffffffffffffffffffffffffffffffffffff166c01000000000000000000000000028152601401915050604051602081830303815290604052610cab565b90506000610a88848361204590919063ffffffff16565b141515610afd576040517f08c379a000000000000000000000000000000000000000000000000000000000815260040180806020018281038252601b8152602001807f53656e64657220646f6573206e6f74206d61746368206e6f6e6365000000000081525060200191505060405180910390fd5b6000803373ffffffffffffffffffffffffffffffffffffffff1673ffffffffffffffffffffffffffffffffffffffff16815260200190815260200160002060009054906101000a900460ff161515610c0d5760016000803373ffffffffffffffffffffffffffffffffffffffff1673ffffffffffffffffffffffffffffffffffffffff16815260200190815260200160002060006101000a81548160ff02191690831515021790555060013390806001815401808255809150509060018203906000526020600020016000909192909190916101000a81548173ffffffffffffffffffffffffffffffffffffffff021916908373ffffffffffffffffffffffffffffffffffffffff160217905550505b5050505050505050505050505050565b60606001805480602002602001604051908101604052809291908181526020018280548015610ca157602002820191906000526020600020905b8160009054906101000a900473ffffffffffffffffffffffffffffffffffffffff1673ffffffffffffffffffffffffffffffffffffffff1681526020019060010190808311610c57575b5050505050905090565b606080829050600060038251811515610cc057fe5b0690506000600382600303811515610cd457fe5b06600460036002865101811515610ce757fe5b04020390506060816040519080825280601f01601f191660200182016040528015610d215781602001600182028038833980820191505090505b509050600080905060008090505b855160038301111515610fd157610ec78683815181101515610d4d57fe5b9060200101517f010000000000000000000000000000000000000000000000000000000000000090047f0100000000000000000000000000000000000000000000000000000000000000027f0100000000000000000000000000000000000000000000000000000000000000900460ff168760018501815181101515610dcf57fe5b9060200101517f010000000000000000000000000000000000000000000000000000000000000090047f0100000000000000000000000000000000000000000000000000000000000000027f0100000000000000000000000000000000000000000000000000000000000000900460ff168860028601815181101515610e5157fe5b9060200101517f010000000000000000000000000000000000000000000000000000000000000090047f0100000000000000000000000000000000000000000000000000000000000000027f0100000000000000000000000000000000000000000000000000000000000000900460ff1661230b565b8685815181101515610ed557fe5b90602001018760018701815181101515610eeb57fe5b90602001018860028801815181101515610f0157fe5b90602001018960038901815181101515610f1757fe5b9060200101847effffffffffffffffffffffffffffffffffffffffffffffffffffffffffffff191660001a9053847effffffffffffffffffffffffffffffffffffffffffffffffffffffffffffff191660001a9053847effffffffffffffffffffffffffffffffffffffffffffffffffffffffffffff191660001a9053847effffffffffffffffffffffffffffffffffffffffffffffffffffffffffffff191660001a905350505050600481019050600382019150610d2f565b6000851415156111e35760008686885103815181101515610fee57fe5b9060200101517f010000000000000000000000000000000000000000000000000000000000000090047f0100000000000000000000000000000000000000000000000000000000000000027f010000000000000000000000000000000000000000000000000000000000000090049050600080905060028714156110ef5787600189510381518110151561107e57fe5b9060200101517f010000000000000000000000000000000000000000000000000000000000000090047f0100000000000000000000000000000000000000000000000000000000000000027f0100000000000000000000000000000000000000000000000000000000000000900490505b6000806000806111078660ff168660ff16600061230b565b935093509350935083898881518110151561111e57fe5b9060200101907effffffffffffffffffffffffffffffffffffffffffffffffffffffffffffff1916908160001a90535082896001890181518110151561116057fe5b9060200101907effffffffffffffffffffffffffffffffffffffffffffffffffffffffffffff1916908160001a90535060028b14156111dc578189600289018151811015156111ab57fe5b9060200101907effffffffffffffffffffffffffffffffffffffffffffffffffffffffffffff1916908160001a9053505b5050505050505b829650505050505050919050565b6111f961489f565b600060208301905060408051908101604052808451815260200182815250915050919050565b6060600082511415611243576020604051908101604052806000815250905061137d565b60006001835103846000015102905060008090505b835181101561128e57838181518110151561126f57fe5b9060200190602002015160000151820191508080600101915050611258565b506060816040519080825280601f01601f1916602001820160405280156112c45781602001600182028038833980820191505090505b509050600060208201905060008090505b85518110156113755761131f8287838151811015156112f057fe5b9060200190602002015160200151888481518110151561130c57fe5b906020019060200201516000015161254a565b858181518110151561132d57fe5b90602001906020020151600001518201915060018651038110156113685761135e828860200151896000015161254a565b8660000151820191505b80806001019150506112d5565b508193505050505b92915050565b606060006060600061139f60148661259590919063ffffffff16565b92509250925060008314151561141d576040517f08c379a00000000000000000000000000000000000000000000000000000000081526004018080602001828103825260118152602001807f4a534f4e207061727365206661696c656400000000000000000000000000000081525060200191505060405180910390fd5b6001600481111561142a57fe5b82600081518110151561143957fe5b9060200190602002015160000151600481111561145257fe5b1415156114c7576040517f08c379a000000000000000000000000000000000000000000000000000000000815260040180806020018281038252601c8152602001807f4578706563746564204a575420746f20626520616e206f626a6563740000000081525060200191505060405180910390fd5b6000600190505b8181101561171657600360048111156114e357fe5b83828151811015156114f157fe5b9060200190602002015160000151600481111561150a57fe5b141515611562576040517f08c379a00000000000000000000000000000000000000000000000000000000081526004018080602001828103825260288152602001806149d26028913960400191505060405180910390fd5b60606115af848381518110151561157557fe5b9060200190602002015160200151858481518110151561159157fe5b9060200190602002015160600151896133a29092919063ffffffff16565b905060006115fb6040805190810160405280600381526020017f6b696400000000000000000000000000000000000000000000000000000000008152508361204590919063ffffffff16565b141561170a576003600481111561160e57fe5b846001840181518110151561161f57fe5b9060200190602002015160000151600481111561163857fe5b1415156116ad576040517f08c379a000000000000000000000000000000000000000000000000000000000815260040180806020018281038252601b8152602001807f4578706563746564206b696420746f206265206120737472696e67000000000081525060200191505060405180910390fd5b6116fe84600184018151811015156116c157fe5b906020019060200201516020015185600185018151811015156116e057fe5b9060200190602002015160600151896133a29092919063ffffffff16565b9550505050505061171b565b600282019150506114ce565b505050505b919050565b60606101206040519081016040528061010081526020016149fa61010091399050919050565b6060600460009054906101000a900473ffffffffffffffffffffffffffffffffffffffff1673ffffffffffffffffffffffffffffffffffffffff1663497fc8f4836040518263ffffffff167c01000000000000000000000000000000000000000000000000000000000281526004018080602001828103825283818151815260200191508051906020019080838360005b838110156117f25780820151818401526020810190506117d7565b50505050905090810190601f16801561181f5780820380516001836020036101000a031916815260200191505b509250505060006040518083038186803b15801561183c57600080fd5b505afa158015611850573d6000803e3d6000fd5b505050506040513d6000823e3d601f19601f82011682018060405250602081101561187a57600080fd5b81019080805164010000000081111561189257600080fd5b828101905060208101848111156118a857600080fd5b81518560018202830111640100000000821117156118c557600080fd5b50509291905050509050600081511415611947576040517f08c379a000000000000000000000000000000000000000000000000000000000815260040180806020018281038252600d8152602001807f4b6579206e6f7420666f756e640000000000000000000000000000000000000081525060200191505060405180910390fd5b919050565b60006119f96002866040518082805190602001908083835b6020831015156119895780518252602082019150602081019050602083039250611964565b6001836020036101000a038019825116818451168082178552505050505050905001915050602060405180830381855afa1580156119cb573d6000803e3d6000fd5b5050506040513d60208110156119e057600080fd5b81019080805190602001909291905050508585856134a3565b9050949350505050565b6060806060600060606000611a2260288861259590919063ffffffff16565b925092509250600083141515611aa0576040517f08c379a00000000000000000000000000000000000000000000000000000000081526004018080602001828103825260118152602001807f4a534f4e207061727365206661696c656400000000000000000000000000000081525060200191505060405180910390fd5b60016004811115611aad57fe5b826000815181101515611abc57fe5b90602001906020020151600001516004811115611ad557fe5b141515611b4a576040517f08c379a000000000000000000000000000000000000000000000000000000000815260040180806020018281038252601c8152602001807f4578706563746564204a575420746f20626520616e206f626a6563740000000081525060200191505060405180910390fd5b6000600190505b8181101561203a5760036004811115611b6657fe5b8382815181101515611b7457fe5b90602001906020020151600001516004811115611b8d57fe5b141515611be5576040517f08c379a00000000000000000000000000000000000000000000000000000000081526004018080602001828103825260288152602001806149d26028913960400191505060405180910390fd5b6060611c328483815181101515611bf857fe5b90602001906020020151602001518584815181101515611c1457fe5b90602001906020020151606001518b6133a29092919063ffffffff16565b90506000611c7e6040805190810160405280600381526020017f73756200000000000000000000000000000000000000000000000000000000008152508361204590919063ffffffff16565b1415611d885760036004811115611c9157fe5b8460018401815181101515611ca257fe5b90602001906020020151600001516004811115611cbb57fe5b141515611d30576040517f08c379a000000000000000000000000000000000000000000000000000000000815260040180806020018281038252601b8152602001807f45787065637465642073756220746f206265206120737472696e67000000000081525060200191505060405180910390fd5b611d818460018401815181101515611d4457fe5b90602001906020020151602001518560018501815181101515611d6357fe5b90602001906020020151606001518b6133a29092919063ffffffff16565b955061202e565b6000611dd26040805190810160405280600381526020017f61756400000000000000000000000000000000000000000000000000000000008152508361204590919063ffffffff16565b1415611edc5760036004811115611de557fe5b8460018401815181101515611df657fe5b90602001906020020151600001516004811115611e0f57fe5b141515611e84576040517f08c379a000000000000000000000000000000000000000000000000000000000815260040180806020018281038252601b8152602001807f45787065637465642061756420746f206265206120737472696e67000000000081525060200191505060405180910390fd5b611ed58460018401815181101515611e9857fe5b90602001906020020151602001518560018501815181101515611eb757fe5b90602001906020020151606001518b6133a29092919063ffffffff16565b975061202d565b6000611f266040805190810160405280600581526020017f6e6f6e63650000000000000000000000000000000000000000000000000000008152508361204590919063ffffffff16565b141561202c5760036004811115611f3957fe5b8460018401815181101515611f4a57fe5b90602001906020020151600001516004811115611f6357fe5b141515611fd8576040517f08c379a000000000000000000000000000000000000000000000000000000000815260040180806020018281038252601d8152602001807f4578706563746564206e6f6e636520746f206265206120737472696e6700000081525060200191505060405180910390fd5b6120298460018401815181101515611fec57fe5b9060200190602002015160200151856001850181518110151561200b57fe5b90602001906020020151606001518b6133a29092919063ffffffff16565b96505b5b5b60028201915050611b51565b505050509193909250565b600060608390506060839050600082519050808251101561206557815190505b60008090505b818110156122b157828181518110151561208157fe5b9060200101517f010000000000000000000000000000000000000000000000000000000000000090047f0100000000000000000000000000000000000000000000000000000000000000027effffffffffffffffffffffffffffffffffffffffffffffffffffffffffffff191684828151811015156120fc57fe5b9060200101517f010000000000000000000000000000000000000000000000000000000000000090047f0100000000000000000000000000000000000000000000000000000000000000027effffffffffffffffffffffffffffffffffffffffffffffffffffffffffffff1916101561219b577fffffffffffffffffffffffffffffffffffffffffffffffffffffffffffffffff945050505050612305565b82818151811015156121a957fe5b9060200101517f010000000000000000000000000000000000000000000000000000000000000090047f0100000000000000000000000000000000000000000000000000000000000000027effffffffffffffffffffffffffffffffffffffffffffffffffffffffffffff1916848281518110151561222457fe5b9060200101517f010000000000000000000000000000000000000000000000000000000000000090047f0100000000000000000000000000000000000000000000000000000000000000027effffffffffffffffffffffffffffffffffffffffffffffffffffffffffffff191611156122a4576001945050505050612305565b808060010191505061206b565b508151835110156122e7577fffffffffffffffffffffffffffffffffffffffffffffffffffffffffffffffff9350505050612305565b8151835111156122fd5760019350505050612305565b600093505050505b92915050565b6000806000806000856008889060020a0260108a9060020a02171790506000603f601283908060020a82049150501690506000603f600c84908060020a82049150501690506000603f600685908060020a82049150501690506000603f8516905060606040519081016040528060408152602001614992604091398481518110151561239357fe5b9060200101517f010000000000000000000000000000000000000000000000000000000000000090047f010000000000000000000000000000000000000000000000000000000000000002985060606040519081016040528060408152602001614992604091398381518110151561240757fe5b9060200101517f010000000000000000000000000000000000000000000000000000000000000090047f010000000000000000000000000000000000000000000000000000000000000002975060606040519081016040528060408152602001614992604091398281518110151561247b57fe5b9060200101517f010000000000000000000000000000000000000000000000000000000000000090047f01000000000000000000000000000000000000000000000000000000000000000296506060604051908101604052806040815260200161499260409139818151811015156124ef57fe5b9060200101517f010000000000000000000000000000000000000000000000000000000000000090047f0100000000000000000000000000000000000000000000000000000000000000029550505050505093509350935093565b5b602081101515612570578151835260208301925060208201915060208103905061254b565b60006001826020036101000a0390508019835116818551168181178652505050505050565b600060606000606085905060006125aa6148b9565b6125b387613ac1565b80965081925050506000808260200151905060006125cf6148db565b5b8651856000015110156133855760008786600001518151811015156125f157fe5b9060200101517f010000000000000000000000000000000000000000000000000000000000000090047f0100000000000000000000000000000000000000000000000000000000000000029050607b7f010000000000000000000000000000000000000000000000000000000000000002817effffffffffffffffffffffffffffffffffffffffffffffffffffffffffffff191614806126d55750605b7f010000000000000000000000000000000000000000000000000000000000000002817effffffffffffffffffffffffffffffffffffffffffffffffffffffffffffff1916145b156128225783806001019450506126ec868b613b5f565b80935081985050508615156127165760038a60008090509a509a509a50505050505050505061339b565b7fffffffffffffffffffffffffffffffffffffffffffffffffffffffffffffffff86604001511415156127755789866040015181518110151561275557fe5b9060200190602002015160a001805180919060010160ff1660ff16815250505b607b7f010000000000000000000000000000000000000000000000000000000000000002817effffffffffffffffffffffffffffffffffffffffffffffffffffffffffffff1916146127c85760026127cb565b60015b826000019060048111156127db57fe5b908160048111156127e857fe5b8152505085600001518260200181815250506001826040019015159081151581525050600186602001510386604001818152505050613370565b607d7f010000000000000000000000000000000000000000000000000000000000000002817effffffffffffffffffffffffffffffffffffffffffffffffffffffffffffff191614806128b95750605d7f010000000000000000000000000000000000000000000000000000000000000002817effffffffffffffffffffffffffffffffffffffffffffffffffffffffffffff1916145b15612b13576000607d7f010000000000000000000000000000000000000000000000000000000000000002827effffffffffffffffffffffffffffffffffffffffffffffffffffffffffffff191614612913576002612916565b60015b90506000809050600188602001510394505b600085101515612a35578b8581518110151561294057fe5b9060200190602002015193508360400151801561295f57508360800151155b15612a275781600481111561297057fe5b8460000151600481111561298057fe5b1415156129a45760018c60008090509c509c509c505050505050505050505061339b565b7fffffffffffffffffffffffffffffffffffffffffffffffffffffffffffffffff88604001818152505060018860000151018c868151811015156129e457fe5b90602001906020020151606001818152505060018c86815181101515612a0657fe5b90602001906020020151608001901515908115158152505060019050612a35565b848060019003955050612928565b801515612a595760018c60008090509c509c509c505050505050505050505061339b565b5b6000851115612ab2578b85815181101515612a7157fe5b90602001906020020151935083604001518015612a9057508360800151155b15612aa45784886040018181525050612ab2565b848060019003955050612a5a565b6000851415612b0b578b85815181101515612ac957fe5b90602001906020020151935083604001518015612ae857508360800151155b15612b0a57846fffffffffffffffffffffffffffffffff168860400181815250505b5b505050613370565b7f2200000000000000000000000000000000000000000000000000000000000000817effffffffffffffffffffffffffffffffffffffffffffffffffffffffffffff19161415612bfb57612b68868b8a613c31565b9450600085141515612b8e57848a60008090509a509a509a50505050505050505061339b565b83806001019450507fffffffffffffffffffffffffffffffffffffffffffffffffffffffffffffffff8660400151141515612bf557898660400151815181101515612bd557fe5b9060200190602002015160a001805180919060010160ff1660ff16815250505b50613370565b7f2000000000000000000000000000000000000000000000000000000000000000817effffffffffffffffffffffffffffffffffffffffffffffffffffffffffffff19161480612c8f575060117f010000000000000000000000000000000000000000000000000000000000000002817effffffffffffffffffffffffffffffffffffffffffffffffffffffffffffff1916145b80612cde575060127f010000000000000000000000000000000000000000000000000000000000000002817effffffffffffffffffffffffffffffffffffffffffffffffffffffffffffff1916145b80612d2d575060147f010000000000000000000000000000000000000000000000000000000000000002817effffffffffffffffffffffffffffffffffffffffffffffffffffffffffffff1916145b15612d385750613370565b7f3a00000000000000000000000000000000000000000000000000000000000000817effffffffffffffffffffffffffffffffffffffffffffffffffffffffffffff19161415612d9957600186602001510386604001818152505050613370565b7f2c00000000000000000000000000000000000000000000000000000000000000817effffffffffffffffffffffffffffffffffffffffffffffffffffffffffffff19161415612f8a577fffffffffffffffffffffffffffffffffffffffffffffffffffffffffffffffff866040015114158015612e4d575060026004811115612e1f57fe5b8a8760400151815181101515612e3157fe5b90602001906020020151600001516004811115612e4a57fe5b14155b8015612e8f575060016004811115612e6157fe5b8a8760400151815181101515612e7357fe5b90602001906020020151600001516004811115612e8c57fe5b14155b15612f8457600186602001510392505b600083101515612f835760026004811115612eb657fe5b8a84815181101515612ec457fe5b90602001906020020151600001516004811115612edd57fe5b1480612f1a575060016004811115612ef157fe5b8a84815181101515612eff57fe5b90602001906020020151600001516004811115612f1857fe5b145b15612f75578983815181101515612f2d57fe5b90602001906020020151604001518015612f6057508983815181101515612f5057fe5b9060200190602002015160800151155b15612f745782866040018181525050612f83565b5b828060019003935050612e9f565b5b50613370565b7f3000000000000000000000000000000000000000000000000000000000000000817effffffffffffffffffffffffffffffffffffffffffffffffffffffffffffff19161015801561301e57507f3900000000000000000000000000000000000000000000000000000000000000817effffffffffffffffffffffffffffffffffffffffffffffffffffffffffffff191611155b8061306a57507f2d00000000000000000000000000000000000000000000000000000000000000817effffffffffffffffffffffffffffffffffffffffffffffffffffffffffffff1916145b806130b657507f6600000000000000000000000000000000000000000000000000000000000000817effffffffffffffffffffffffffffffffffffffffffffffffffffffffffffff1916145b8061310257507f7400000000000000000000000000000000000000000000000000000000000000817effffffffffffffffffffffffffffffffffffffffffffffffffffffffffffff1916145b8061314e57507f6e00000000000000000000000000000000000000000000000000000000000000817effffffffffffffffffffffffffffffffffffffffffffffffffffffffffffff1916145b156132b4577fffffffffffffffffffffffffffffffffffffffffffffffffffffffffffffffff86604001511415156132165789866040015181518110151561319257fe5b906020019060200201519150600160048111156131ab57fe5b826000015160048111156131bb57fe5b14806131f55750600360048111156131cf57fe5b826000015160048111156131df57fe5b1480156131f4575060008260a0015160ff1614155b5b156132155760018a60008090509a509a509a50505050505050505061339b565b5b613221868b8a61433c565b945060008514151561324757848a60008090509a509a509a50505050505050505061339b565b83806001019450507fffffffffffffffffffffffffffffffffffffffffffffffffffffffffffffffff86604001511415156132ae5789866040015181518110151561328e57fe5b9060200190602002015160a001805180919060010160ff1660ff16815250505b50613370565b60207f010000000000000000000000000000000000000000000000000000000000000002817effffffffffffffffffffffffffffffffffffffffffffffffffffffffffffff19161015801561334e5750607e7f010000000000000000000000000000000000000000000000000000000000000002817effffffffffffffffffffffffffffffffffffffffffffffffffffffffffffff191611155b1561336e5760018a60008090509a509a509a50505050505050505061339b565b505b846000018051809190600101815250506125d0565b6000898660200151995099509950505050505050505b9250925092565b60608084905060608484036040519080825280601f01601f1916602001820160405280156133df5781602001600182028038833980820191505090505b50905060008590505b848110156134965782818151811015156133fe57fe5b9060200101517f010000000000000000000000000000000000000000000000000000000000000090047f0100000000000000000000000000000000000000000000000000000000000000028287830381518110151561345957fe5b9060200101907effffffffffffffffffffffffffffffffffffffffffffffffffffffffffffff1916908160001a90535080806001019150506133e8565b5080925050509392505050565b60006134ad614924565b61026060405190810160405280603060ff168152602001603160ff168152602001603060ff168152602001600d60ff168152602001600660ff168152602001600960ff168152602001606060ff168152602001608660ff168152602001604860ff168152602001600160ff168152602001606560ff168152602001600360ff168152602001600460ff168152602001600260ff168152602001600160ff168152602001600560ff168152602001600060ff168152602001600460ff168152602001602060ff168152509050600b602060ff166013010183511015151561359257600080fd5b600060606135a18787876146f5565b90506000815190506000865190506060816040519080825280601f01601f1916602001820160405280156135e45781602001600182028038833980820191505090505b5090508160208201846020870160056107d05a03fa50600060206013600385030303905060007f01000000000000000000000000000000000000000000000000000000000000000282600081518110151561363b57fe5b9060200101517f010000000000000000000000000000000000000000000000000000000000000090047f0100000000000000000000000000000000000000000000000000000000000000027effffffffffffffffffffffffffffffffffffffffffffffffffffffffffffff1916141580613735575060018260018151811015156136c157fe5b9060200101517f010000000000000000000000000000000000000000000000000000000000000090047f0100000000000000000000000000000000000000000000000000000000000000027f0100000000000000000000000000000000000000000000000000000000000000900460ff1614155b1561374a576001975050505050505050613ab9565b600295505b8060020186101561381d5760ff7f010000000000000000000000000000000000000000000000000000000000000002828781518110151561378c57fe5b9060200101517f010000000000000000000000000000000000000000000000000000000000000090047f0100000000000000000000000000000000000000000000000000000000000000027effffffffffffffffffffffffffffffffffffffffffffffffffffffffffffff1916141515613810576002975050505050505050613ab9565b858060010196505061374f565b60007f010000000000000000000000000000000000000000000000000000000000000002828260020181518110151561385257fe5b9060200101517f010000000000000000000000000000000000000000000000000000000000000090047f0100000000000000000000000000000000000000000000000000000000000000027effffffffffffffffffffffffffffffffffffffffffffffffffffffffffffff19161415156138d6576003975050505050505050613ab9565b600095505b60138610156139a25786866013811015156138f257fe5b602002015160ff168287836003010181518110151561390d57fe5b9060200101517f010000000000000000000000000000000000000000000000000000000000000090047f0100000000000000000000000000000000000000000000000000000000000000027f0100000000000000000000000000000000000000000000000000000000000000900460ff16141515613995576004975050505050505050613ab9565b85806001019650506138db565b600095505b602060ff16861015613aad578b866020811015156139c157fe5b1a7f0100000000000000000000000000000000000000000000000000000000000000027effffffffffffffffffffffffffffffffffffffffffffffffffffffffffffff191682876013846003010101815181101515613a1c57fe5b9060200101517f010000000000000000000000000000000000000000000000000000000000000090047f0100000000000000000000000000000000000000000000000000000000000000027effffffffffffffffffffffffffffffffffffffffffffffffffffffffffffff1916141515613aa0576005975050505050505050613ab9565b85806001019650506139a7565b60009750505050505050505b949350505050565b613ac96148b9565b6060613ad36148b9565b60606040519081016040528060008152602001600081526020017fffffffffffffffffffffffffffffffffffffffffffffffffffffffffffffffff8152509050606084604051908082528060200260200182016040528015613b4f57816020015b613b3c614948565b815260200190600190039081613b345790505b5090508181935093505050915091565b6000613b696148db565b82518460200151101515613ba1576000836001855103815181101515613b8b57fe5b9060200190602002015180905091509150613c2a565b613ba96148db565b60c06040519081016040528060006004811115613bc257fe5b81526020016000815260200160001515815260200160008152602001600015158152602001600060ff16815250905080848660200151815181101515613c0457fe5b906020019060200201819052508460200180518091906001018152505060018192509250505b9250929050565b600080846000015190506000613c456148db565b866000018051809190600101815250505b845187600001511015614323576000858860000151815181101515613c7757fe5b9060200101517f010000000000000000000000000000000000000000000000000000000000000090047f01000000000000000000000000000000000000000000000000000000000000000290507f2200000000000000000000000000000000000000000000000000000000000000817effffffffffffffffffffffffffffffffffffffffffffffffffffffffffffff19161415613d5f57613d188888613b5f565b8093508194505050821515613d3e57838860000181815250506003945050505050614335565b613d52826003600187018b600001516147c9565b6000945050505050614335565b605c817f0100000000000000000000000000000000000000000000000000000000000000900460ff16148015613d9c575085516001896000015101105b1561430c57876000018051809190600101815250507f2200000000000000000000000000000000000000000000000000000000000000868960000151815181101515613de457fe5b9060200101517f010000000000000000000000000000000000000000000000000000000000000090047f0100000000000000000000000000000000000000000000000000000000000000027effffffffffffffffffffffffffffffffffffffffffffffffffffffffffffff19161480613efa57507f2f00000000000000000000000000000000000000000000000000000000000000868960000151815181101515613e8b57fe5b9060200101517f010000000000000000000000000000000000000000000000000000000000000090047f0100000000000000000000000000000000000000000000000000000000000000027effffffffffffffffffffffffffffffffffffffffffffffffffffffffffffff1916145b80613fa257507f5c00000000000000000000000000000000000000000000000000000000000000868960000151815181101515613f3357fe5b9060200101517f010000000000000000000000000000000000000000000000000000000000000090047f0100000000000000000000000000000000000000000000000000000000000000027effffffffffffffffffffffffffffffffffffffffffffffffffffffffffffff1916145b8061404a57507f6600000000000000000000000000000000000000000000000000000000000000868960000151815181101515613fdb57fe5b9060200101517f010000000000000000000000000000000000000000000000000000000000000090047f0100000000000000000000000000000000000000000000000000000000000000027effffffffffffffffffffffffffffffffffffffffffffffffffffffffffffff1916145b806140f257507f720000000000000000000000000000000000000000000000000000000000000086896000015181518110151561408357fe5b9060200101517f010000000000000000000000000000000000000000000000000000000000000090047f0100000000000000000000000000000000000000000000000000000000000000027effffffffffffffffffffffffffffffffffffffffffffffffffffffffffffff1916145b8061419a57507f6e0000000000000000000000000000000000000000000000000000000000000086896000015181518110151561412b57fe5b9060200101517f010000000000000000000000000000000000000000000000000000000000000090047f0100000000000000000000000000000000000000000000000000000000000000027effffffffffffffffffffffffffffffffffffffffffffffffffffffffffffff1916145b8061424257507f62000000000000000000000000000000000000000000000000000000000000008689600001518151811015156141d357fe5b9060200101517f010000000000000000000000000000000000000000000000000000000000000090047f0100000000000000000000000000000000000000000000000000000000000000027effffffffffffffffffffffffffffffffffffffffffffffffffffffffffffff1916145b806142ea57507f740000000000000000000000000000000000000000000000000000000000000086896000015181518110151561427b57fe5b9060200101517f010000000000000000000000000000000000000000000000000000000000000090047f0100000000000000000000000000000000000000000000000000000000000000027effffffffffffffffffffffffffffffffffffffffffffffffffffffffffffff1916145b156142f5575061430e565b838860000181815250506001945050505050614335565b505b86600001805180919060010181525050613c56565b82876000018181525050600293505050505b9392505050565b600080600090506000856000015190506000806143576148db565b5b8651896000015110156146725786896000015181518110151561437757fe5b9060200101517f010000000000000000000000000000000000000000000000000000000000000090047f01000000000000000000000000000000000000000000000000000000000000000292507f2000000000000000000000000000000000000000000000000000000000000000837effffffffffffffffffffffffffffffffffffffffffffffffffffffffffffff1916148061445557507f0900000000000000000000000000000000000000000000000000000000000000837effffffffffffffffffffffffffffffffffffffffffffffffffffffffffffff1916145b806144a157507f0a00000000000000000000000000000000000000000000000000000000000000837effffffffffffffffffffffffffffffffffffffffffffffffffffffffffffff1916145b806144ed57507f0d00000000000000000000000000000000000000000000000000000000000000837effffffffffffffffffffffffffffffffffffffffffffffffffffffffffffff1916145b8061453957507f2c00000000000000000000000000000000000000000000000000000000000000837effffffffffffffffffffffffffffffffffffffffffffffffffffffffffffff1916145b806145885750607d7f010000000000000000000000000000000000000000000000000000000000000002837effffffffffffffffffffffffffffffffffffffffffffffffffffffffffffff1916145b806145d75750605d7f010000000000000000000000000000000000000000000000000000000000000002837effffffffffffffffffffffffffffffffffffffffffffffffffffffffffffff1916145b156145e55760019450614672565b6020837f0100000000000000000000000000000000000000000000000000000000000000900460ff1610806146405750607f837f0100000000000000000000000000000000000000000000000000000000000000900460ff16115b1561465d57838960000181815250506001955050505050506146ee565b88600001805180919060010181525050614358565b84151561469157838960000181815250506002955050505050506146ee565b61469b8989613b5f565b80925081935050508115156146c257838960000181815250506003955050505050506146ee565b6146d3816004868c600001516147c9565b88600001805180919060019003815250506000955050505050505b9392505050565b60606000825184518651606001010190506000855190506000855190506000855190506000806000806060886040519080825280601f01601f1916602001820160405280156147535781602001600182028038833980820191505090505b50905060208d01945060208c01935060208b01925087602082015286604082015285606082015260208101915061478f60608301868f5161483a565b6147a18d516060840101858e5161483a565b6147b68c518e51606085010101848d5161483a565b8099505050505050505050509392505050565b82846000019060048111156147da57fe5b908160048111156147e757fe5b8152505081846020018181525050600184604001901515908115158152505080846060018181525050600184608001901515908115158152505060008460a0019060ff16908160ff168152505050505050565b5b602081101515614860578151835260208301925060208201915060208103905061483b565b60006001826020036101000a0390508019835116818551168181178652505050505050565b604080519081016040528060008152602001600081525090565b604080519081016040528060008152602001600081525090565b6060604051908101604052806000815260200160008152602001600081525090565b60c060405190810160405280600060048111156148f457fe5b81526020016000815260200160001515815260200160008152602001600015158152602001600060ff1681525090565b61026060405190810160405280601390602082028038833980820191505090505090565b60c0604051908101604052806000600481111561496157fe5b81526020016000815260200160001515815260200160008152602001600015158152602001600060ff168152509056fe4142434445464748494a4b4c4d4e4f505152535455565758595a6162636465666768696a6b6c6d6e6f707172737475767778797a303132333435363738392d5f4578706563746564204a575420746f20636f6e7461696e206f6e6c7920737472696e67206b65797300000000000000000000000000000000000000000000000000000000000000000000000000000000000000000000000000000000000000000000000000000000000000000000000000000000000000000000000000000000000000000000000000000000000000000000000000000000000000000000000000000000000000000000000000000000000000000000000000000000000000000000000000000000000000000000000000000000000000000000000000000000000000000000000000000000000000000000000000000000000000000000000000000000000000000000000000000000000000000000000000000000000000000000000000010001a165627a7a723058208bc31425a40f955e2c1c754879556370c9e2011e20c5aefca1f2dce18adfa42c0029",
  "source": "pragma solidity ^0.5.0;\n\nimport \"./Base64.sol\";\nimport \"./JsmnSolLib.sol\";\nimport \"./JWT.sol\";\nimport \"./SolRsaVerify.sol\";\nimport \"./Strings.sol\";\nimport \"./JWKS.sol\";\n\ncontract Identity {\n\n  using Base64 for string;\n  using StringUtils for *;\n  using SolRsaVerify for *;\n  using JsmnSolLib for string;\n\n  mapping (address => bool) public accounts;\n  address[] private accountsList;\n  string public audience;\n  string public subject;\n  JWKS public keys;\n  \n  constructor(string memory sub, string memory aud, JWKS jwks) public payable {\n    accounts[msg.sender] = true;\n    accountsList.push(msg.sender);\n    audience = aud;\n    subject = sub;\n    keys = jwks;\n  }\n\n  function recover(string memory headerJson, string memory payloadJson, bytes memory signature) public {\n    string memory headerBase64 = headerJson.encode();\n    string memory payloadBase64 = payloadJson.encode();\n    StringUtils.slice[] memory slices = new StringUtils.slice[](2);\n    slices[0] = headerBase64.toSlice();\n    slices[1] = payloadBase64.toSlice();\n    string memory message = \".\".toSlice().join(slices);\n    string memory kid = parseHeader(headerJson);\n    bytes memory exponent = getRsaExponent(kid);\n    bytes memory modulus = getRsaModulus(kid);\n    require(message.pkcs1Sha256VerifyStr(signature, exponent, modulus) == 0, \"RSA signature check failed\");\n\n    (string memory aud, string memory nonce, string memory sub) = parseToken(payloadJson);\n    \n    require(aud.strCompare(audience) == 0 || true, \"Audience does not match\");\n    require(sub.strCompare(subject) == 0, \"Subject does not match\");\n\n    string memory senderBase64 = string(abi.encodePacked(msg.sender)).encode();\n    require(senderBase64.strCompare(nonce) == 0, \"Sender does not match nonce\");\n\n    if (!accounts[msg.sender]) {\n      accounts[msg.sender] = true;\n      accountsList.push(msg.sender);\n    }\n  }\n\n  function parseHeader(string memory json) internal pure returns (string memory kid) {\n    (uint exitCode, JsmnSolLib.Token[] memory tokens, uint ntokens) = json.parse(20);\n    require(exitCode == 0, \"JSON parse failed\");\n    \n    require(tokens[0].jsmnType == JsmnSolLib.JsmnType.OBJECT, \"Expected JWT to be an object\");\n    uint i = 1;\n    while (i < ntokens) {\n      require(tokens[i].jsmnType == JsmnSolLib.JsmnType.STRING, \"Expected JWT to contain only string keys\");\n      string memory key = json.getBytes(tokens[i].start, tokens[i].end);\n      if (key.strCompare(\"kid\") == 0) {\n        require(tokens[i+1].jsmnType == JsmnSolLib.JsmnType.STRING, \"Expected kid to be a string\");\n        return json.getBytes(tokens[i+1].start, tokens[i+1].end);\n      }\n      i += 2;\n    }\n  }\n\n  function parseToken(string memory json) internal pure returns (string memory aud, string memory nonce, string memory sub) {\n    (uint exitCode, JsmnSolLib.Token[] memory tokens, uint ntokens) = json.parse(40);\n    require(exitCode == 0, \"JSON parse failed\");\n    \n    require(tokens[0].jsmnType == JsmnSolLib.JsmnType.OBJECT, \"Expected JWT to be an object\");\n    uint i = 1;\n    while (i < ntokens) {\n      require(tokens[i].jsmnType == JsmnSolLib.JsmnType.STRING, \"Expected JWT to contain only string keys\");\n      string memory key = json.getBytes(tokens[i].start, tokens[i].end);\n      if (key.strCompare(\"sub\") == 0) {\n        require(tokens[i+1].jsmnType == JsmnSolLib.JsmnType.STRING, \"Expected sub to be a string\");\n        sub = json.getBytes(tokens[i+1].start, tokens[i+1].end);\n      } else if (key.strCompare(\"aud\") == 0) {\n        require(tokens[i+1].jsmnType == JsmnSolLib.JsmnType.STRING, \"Expected aud to be a string\");\n        aud = json.getBytes(tokens[i+1].start, tokens[i+1].end);\n      } else if (key.strCompare(\"nonce\") == 0) {\n        require(tokens[i+1].jsmnType == JsmnSolLib.JsmnType.STRING, \"Expected nonce to be a string\");\n        nonce = json.getBytes(tokens[i+1].start, tokens[i+1].end);\n      }\n      i += 2;\n    }\n  }\n\n  function getRsaModulus(string memory kid) internal view returns (bytes memory modulus) {\n    modulus = keys.getModulus(kid);\n    if (modulus.length == 0) revert(\"Key not found\");\n  }\n\n  function getRsaExponent(string memory) internal pure returns (bytes memory) {\n    return hex\"00000000000000000000000000000000000000000000000000000000000000000000000000000000000000000000000000000000000000000000000000000000000000000000000000000000000000000000000000000000000000000000000000000000000000000000000000000000000000000000000000000000000000000000000000000000000000000000000000000000000000000000000000000000000000000000000000000000000000000000000000000000000000000000000000000000000000000000000000000000000000000000000000000000000000000000000000000000000000000000000000000000000000000000000000010001\";\n  }\n\n  function getAccounts() public view returns (address[] memory) {\n    return accountsList;\n  }\n}",
  "sourcePath": "/home/spalladino/Projects/solidity-jwt/contracts/Identity.sol",
  "compiler": {
    "name": "solc",
    "version": "0.5.4+commit.9549d8ff.Emscripten.clang"
  },
  "schemaVersion": "3.0.6",
  "updatedAt": "2019-10-26T14:52:38.434Z",
  "devdoc": {
    "methods": {}
  },
  "userdoc": {
    "methods": {}
  }
}