{
  "contractName": "JWKS",
  "abi": [
    {
      "inputs": [],
      "payable": false,
      "stateMutability": "nonpayable",
      "type": "constructor"
    },
    {
      "constant": false,
      "inputs": [
        {
          "name": "kid",
          "type": "string"
        },
        {
          "name": "modulus",
          "type": "bytes"
        }
      ],
      "name": "addKey",
      "outputs": [],
      "payable": false,
      "stateMutability": "nonpayable",
      "type": "function"
    },
    {
      "constant": true,
      "inputs": [
        {
          "name": "kid",
          "type": "string"
        }
      ],
      "name": "getModulus",
      "outputs": [
        {
          "name": "",
          "type": "bytes"
        }
      ],
      "payable": false,
      "stateMutability": "view",
      "type": "function"
    }
  ],
  "bytecode": "0x608060405234801561001057600080fd5b50336000806101000a81548173ffffffffffffffffffffffffffffffffffffffff021916908373ffffffffffffffffffffffffffffffffffffffff160217905550610540806100606000396000f3fe608060405234801561001057600080fd5b5060043610610053576000357c010000000000000000000000000000000000000000000000000000000090048063497fc8f414610058578063c4436bb51461018c575b600080fd5b6101116004803603602081101561006e57600080fd5b810190808035906020019064010000000081111561008b57600080fd5b82018360208201111561009d57600080fd5b803590602001918460018302840111640100000000831117156100bf57600080fd5b91908080601f016020809104026020016040519081016040528093929190818152602001838380828437600081840152601f19601f8201169050808301925050505050505091929192905050506102de565b6040518080602001828103825283818151815260200191508051906020019080838360005b83811015610151578082015181840152602081019050610136565b50505050905090810190601f16801561017e5780820380516001836020036101000a031916815260200191505b509250505060405180910390f35b6102dc600480360360408110156101a257600080fd5b81019080803590602001906401000000008111156101bf57600080fd5b8201836020820111156101d157600080fd5b803590602001918460018302840111640100000000831117156101f357600080fd5b91908080601f016020809104026020016040519081016040528093929190818152602001838380828437600081840152601f19601f8201169050808301925050505050505091929192908035906020019064010000000081111561025657600080fd5b82018360208201111561026857600080fd5b8035906020019184600183028401116401000000008311171561028a57600080fd5b91908080601f016020809104026020016040519081016040528093929190818152602001838380828437600081840152601f19601f8201169050808301925050505050505091929192905050506103eb565b005b60606001826040518082805190602001908083835b60208310151561031857805182526020820191506020810190506020830392506102f3565b6001836020036101000a03801982511681845116808217855250505050505090500191505090815260200160405180910390208054600181600116156101000203166002900480601f0160208091040260200160405190810160405280929190818152602001828054600181600116156101000203166002900480156103df5780601f106103b4576101008083540402835291602001916103df565b820191906000526020600020905b8154815290600101906020018083116103c257829003601f168201915b50505050509050919050565b806001836040518082805190602001908083835b60208310151561042457805182526020820191506020810190506020830392506103ff565b6001836020036101000a0380198251168184511680821785525050505050509050019150509081526020016040518091039020908051906020019061046a92919061046f565b505050565b828054600181600116156101000203166002900490600052602060002090601f016020900481019282601f106104b057805160ff19168380011785556104de565b828001600101855582156104de579182015b828111156104dd5782518255916020019190600101906104c2565b5b5090506104eb91906104ef565b5090565b61051191905b8082111561050d5760008160009055506001016104f5565b5090565b9056fea165627a7a723058208511b243706b86e3b7681ebe81dbf0057422a7cb9b65b08888d7f5e5eb8e80860029",
  "source": "pragma solidity ^0.5;\n\ncontract JWKS {\n  address admin;\n  \n  mapping(string => bytes) keys;\n\n  constructor() public {\n    admin = msg.sender;\n  }\n\n  function addKey(string memory kid, bytes memory modulus) public {\n    keys[kid] = modulus;\n  }\n\n  function getModulus(string memory kid) public view returns (bytes memory) {\n    return keys[kid];\n  }\n}",
  "sourcePath": "/home/spalladino/Projects/solidity-jwt/contracts/JWKS.sol",
  "compiler": {
    "name": "solc",
    "version": "0.5.4+commit.9549d8ff.Emscripten.clang"
  },
  "schemaVersion": "3.0.6",
  "updatedAt": "2019-10-26T13:56:39.733Z",
  "devdoc": {
    "methods": {}
  },
  "userdoc": {
    "methods": {}
  }
}