{
  "contractName": "JWT",
  "abi": [
    {
      "constant": true,
      "inputs": [
        {
          "name": "json",
          "type": "string"
        }
      ],
      "name": "getSub",
      "outputs": [
        {
          "name": "",
          "type": "string"
        }
      ],
      "payable": false,
      "stateMutability": "pure",
      "type": "function"
    }
  ],
  "bytecode": "0x608060405234801561001057600080fd5b50612508806100206000396000f3fe608060405234801561001057600080fd5b5060043610610048576000357c01000000000000000000000000000000000000000000000000000000009004806394b4dca11461004d575b600080fd5b6101066004803603602081101561006357600080fd5b810190808035906020019064010000000081111561008057600080fd5b82018360208201111561009257600080fd5b803590602001918460018302840111640100000000831117156100b457600080fd5b91908080601f016020809104026020016040519081016040528093929190818152602001838380828437600081840152601f19601f820116905080830192505050505050509192919290505050610181565b6040518080602001828103825283818151815260200191508051906020019080838360005b8381101561014657808201518184015260208101905061012b565b50505050905090810190601f1680156101735780820380516001836020036101000a031916815260200191505b509250505060405180910390f35b606060006060600061019d60148661058790919063ffffffff16565b92509250925060008314151561021b576040517f08c379a00000000000000000000000000000000000000000000000000000000081526004018080602001828103825260118152602001807f4a534f4e207061727365206661696c656400000000000000000000000000000081525060200191505060405180910390fd5b6001600481111561022857fe5b82600081518110151561023757fe5b9060200190602002015160000151600481111561025057fe5b1415156102c5576040517f08c379a000000000000000000000000000000000000000000000000000000000815260040180806020018281038252601c8152602001807f4578706563746564204a575420746f20626520616e206f626a6563740000000081525060200191505060405180910390fd5b6000600190505b8181101561051457600360048111156102e157fe5b83828151811015156102ef57fe5b9060200190602002015160000151600481111561030857fe5b141515610360576040517f08c379a00000000000000000000000000000000000000000000000000000000081526004018080602001828103825260288152602001806124b56028913960400191505060405180910390fd5b60606103ad848381518110151561037357fe5b9060200190602002015160200151858481518110151561038f57fe5b9060200190602002015160600151896113949092919063ffffffff16565b905060006103f96040805190810160405280600381526020017f73756200000000000000000000000000000000000000000000000000000000008152508361149590919063ffffffff16565b1415610508576003600481111561040c57fe5b846001840181518110151561041d57fe5b9060200190602002015160000151600481111561043657fe5b1415156104ab576040517f08c379a000000000000000000000000000000000000000000000000000000000815260040180806020018281038252601b8152602001807f45787065637465642073756220746f206265206120737472696e67000000000081525060200191505060405180910390fd5b6104fc84600184018151811015156104bf57fe5b906020019060200201516020015185600185018151811015156104de57fe5b9060200190602002015160600151896113949092919063ffffffff16565b95505050505050610582565b600282019150506102cc565b6040517f08c379a00000000000000000000000000000000000000000000000000000000081526004018080602001828103825260208152602001807f436f756c64206e6f742066696e642073756220696e204a5754206f626a65637481525060200191505060405180910390fd5b919050565b6000606060006060859050600061059c612400565b6105a58761175b565b80965081925050506000808260200151905060006105c1612422565b5b8651856000015110156113775760008786600001518151811015156105e357fe5b9060200101517f010000000000000000000000000000000000000000000000000000000000000090047f0100000000000000000000000000000000000000000000000000000000000000029050607b7f010000000000000000000000000000000000000000000000000000000000000002817effffffffffffffffffffffffffffffffffffffffffffffffffffffffffffff191614806106c75750605b7f010000000000000000000000000000000000000000000000000000000000000002817effffffffffffffffffffffffffffffffffffffffffffffffffffffffffffff1916145b156108145783806001019450506106de868b6117f9565b80935081985050508615156107085760038a60008090509a509a509a50505050505050505061138d565b7fffffffffffffffffffffffffffffffffffffffffffffffffffffffffffffffff86604001511415156107675789866040015181518110151561074757fe5b9060200190602002015160a001805180919060010160ff1660ff16815250505b607b7f010000000000000000000000000000000000000000000000000000000000000002817effffffffffffffffffffffffffffffffffffffffffffffffffffffffffffff1916146107ba5760026107bd565b60015b826000019060048111156107cd57fe5b908160048111156107da57fe5b8152505085600001518260200181815250506001826040019015159081151581525050600186602001510386604001818152505050611362565b607d7f010000000000000000000000000000000000000000000000000000000000000002817effffffffffffffffffffffffffffffffffffffffffffffffffffffffffffff191614806108ab5750605d7f010000000000000000000000000000000000000000000000000000000000000002817effffffffffffffffffffffffffffffffffffffffffffffffffffffffffffff1916145b15610b05576000607d7f010000000000000000000000000000000000000000000000000000000000000002827effffffffffffffffffffffffffffffffffffffffffffffffffffffffffffff191614610905576002610908565b60015b90506000809050600188602001510394505b600085101515610a27578b8581518110151561093257fe5b9060200190602002015193508360400151801561095157508360800151155b15610a195781600481111561096257fe5b8460000151600481111561097257fe5b1415156109965760018c60008090509c509c509c505050505050505050505061138d565b7fffffffffffffffffffffffffffffffffffffffffffffffffffffffffffffffff88604001818152505060018860000151018c868151811015156109d657fe5b90602001906020020151606001818152505060018c868151811015156109f857fe5b90602001906020020151608001901515908115158152505060019050610a27565b84806001900395505061091a565b801515610a4b5760018c60008090509c509c509c505050505050505050505061138d565b5b6000851115610aa4578b85815181101515610a6357fe5b90602001906020020151935083604001518015610a8257508360800151155b15610a965784886040018181525050610aa4565b848060019003955050610a4c565b6000851415610afd578b85815181101515610abb57fe5b90602001906020020151935083604001518015610ada57508360800151155b15610afc57846fffffffffffffffffffffffffffffffff168860400181815250505b5b505050611362565b7f2200000000000000000000000000000000000000000000000000000000000000817effffffffffffffffffffffffffffffffffffffffffffffffffffffffffffff19161415610bed57610b5a868b8a6118cb565b9450600085141515610b8057848a60008090509a509a509a50505050505050505061138d565b83806001019450507fffffffffffffffffffffffffffffffffffffffffffffffffffffffffffffffff8660400151141515610be757898660400151815181101515610bc757fe5b9060200190602002015160a001805180919060010160ff1660ff16815250505b50611362565b7f2000000000000000000000000000000000000000000000000000000000000000817effffffffffffffffffffffffffffffffffffffffffffffffffffffffffffff19161480610c81575060117f010000000000000000000000000000000000000000000000000000000000000002817effffffffffffffffffffffffffffffffffffffffffffffffffffffffffffff1916145b80610cd0575060127f010000000000000000000000000000000000000000000000000000000000000002817effffffffffffffffffffffffffffffffffffffffffffffffffffffffffffff1916145b80610d1f575060147f010000000000000000000000000000000000000000000000000000000000000002817effffffffffffffffffffffffffffffffffffffffffffffffffffffffffffff1916145b15610d2a5750611362565b7f3a00000000000000000000000000000000000000000000000000000000000000817effffffffffffffffffffffffffffffffffffffffffffffffffffffffffffff19161415610d8b57600186602001510386604001818152505050611362565b7f2c00000000000000000000000000000000000000000000000000000000000000817effffffffffffffffffffffffffffffffffffffffffffffffffffffffffffff19161415610f7c577fffffffffffffffffffffffffffffffffffffffffffffffffffffffffffffffff866040015114158015610e3f575060026004811115610e1157fe5b8a8760400151815181101515610e2357fe5b90602001906020020151600001516004811115610e3c57fe5b14155b8015610e81575060016004811115610e5357fe5b8a8760400151815181101515610e6557fe5b90602001906020020151600001516004811115610e7e57fe5b14155b15610f7657600186602001510392505b600083101515610f755760026004811115610ea857fe5b8a84815181101515610eb657fe5b90602001906020020151600001516004811115610ecf57fe5b1480610f0c575060016004811115610ee357fe5b8a84815181101515610ef157fe5b90602001906020020151600001516004811115610f0a57fe5b145b15610f67578983815181101515610f1f57fe5b90602001906020020151604001518015610f5257508983815181101515610f4257fe5b9060200190602002015160800151155b15610f665782866040018181525050610f75565b5b828060019003935050610e91565b5b50611362565b7f3000000000000000000000000000000000000000000000000000000000000000817effffffffffffffffffffffffffffffffffffffffffffffffffffffffffffff19161015801561101057507f3900000000000000000000000000000000000000000000000000000000000000817effffffffffffffffffffffffffffffffffffffffffffffffffffffffffffff191611155b8061105c57507f2d00000000000000000000000000000000000000000000000000000000000000817effffffffffffffffffffffffffffffffffffffffffffffffffffffffffffff1916145b806110a857507f6600000000000000000000000000000000000000000000000000000000000000817effffffffffffffffffffffffffffffffffffffffffffffffffffffffffffff1916145b806110f457507f7400000000000000000000000000000000000000000000000000000000000000817effffffffffffffffffffffffffffffffffffffffffffffffffffffffffffff1916145b8061114057507f6e00000000000000000000000000000000000000000000000000000000000000817effffffffffffffffffffffffffffffffffffffffffffffffffffffffffffff1916145b156112a6577fffffffffffffffffffffffffffffffffffffffffffffffffffffffffffffffff86604001511415156112085789866040015181518110151561118457fe5b9060200190602002015191506001600481111561119d57fe5b826000015160048111156111ad57fe5b14806111e75750600360048111156111c157fe5b826000015160048111156111d157fe5b1480156111e6575060008260a0015160ff1614155b5b156112075760018a60008090509a509a509a50505050505050505061138d565b5b611213868b8a611fd6565b945060008514151561123957848a60008090509a509a509a50505050505050505061138d565b83806001019450507fffffffffffffffffffffffffffffffffffffffffffffffffffffffffffffffff86604001511415156112a05789866040015181518110151561128057fe5b9060200190602002015160a001805180919060010160ff1660ff16815250505b50611362565b60207f010000000000000000000000000000000000000000000000000000000000000002817effffffffffffffffffffffffffffffffffffffffffffffffffffffffffffff1916101580156113405750607e7f010000000000000000000000000000000000000000000000000000000000000002817effffffffffffffffffffffffffffffffffffffffffffffffffffffffffffff191611155b156113605760018a60008090509a509a509a50505050505050505061138d565b505b846000018051809190600101815250506105c2565b6000898660200151995099509950505050505050505b9250925092565b60608084905060608484036040519080825280601f01601f1916602001820160405280156113d15781602001600182028038833980820191505090505b50905060008590505b848110156114885782818151811015156113f057fe5b9060200101517f010000000000000000000000000000000000000000000000000000000000000090047f0100000000000000000000000000000000000000000000000000000000000000028287830381518110151561144b57fe5b9060200101907effffffffffffffffffffffffffffffffffffffffffffffffffffffffffffff1916908160001a90535080806001019150506113da565b5080925050509392505050565b60006060839050606083905060008251905080825110156114b557815190505b60008090505b818110156117015782818151811015156114d157fe5b9060200101517f010000000000000000000000000000000000000000000000000000000000000090047f0100000000000000000000000000000000000000000000000000000000000000027effffffffffffffffffffffffffffffffffffffffffffffffffffffffffffff1916848281518110151561154c57fe5b9060200101517f010000000000000000000000000000000000000000000000000000000000000090047f0100000000000000000000000000000000000000000000000000000000000000027effffffffffffffffffffffffffffffffffffffffffffffffffffffffffffff191610156115eb577fffffffffffffffffffffffffffffffffffffffffffffffffffffffffffffffff945050505050611755565b82818151811015156115f957fe5b9060200101517f010000000000000000000000000000000000000000000000000000000000000090047f0100000000000000000000000000000000000000000000000000000000000000027effffffffffffffffffffffffffffffffffffffffffffffffffffffffffffff1916848281518110151561167457fe5b9060200101517f010000000000000000000000000000000000000000000000000000000000000090047f0100000000000000000000000000000000000000000000000000000000000000027effffffffffffffffffffffffffffffffffffffffffffffffffffffffffffff191611156116f4576001945050505050611755565b80806001019150506114bb565b50815183511015611737577fffffffffffffffffffffffffffffffffffffffffffffffffffffffffffffffff9350505050611755565b81518351111561174d5760019350505050611755565b600093505050505b92915050565b611763612400565b606061176d612400565b60606040519081016040528060008152602001600081526020017fffffffffffffffffffffffffffffffffffffffffffffffffffffffffffffffff81525090506060846040519080825280602002602001820160405280156117e957816020015b6117d661246b565b8152602001906001900390816117ce5790505b5090508181935093505050915091565b6000611803612422565b8251846020015110151561183b57600083600185510381518110151561182557fe5b90602001906020020151809050915091506118c4565b611843612422565b60c0604051908101604052806000600481111561185c57fe5b81526020016000815260200160001515815260200160008152602001600015158152602001600060ff1681525090508084866020015181518110151561189e57fe5b906020019060200201819052508460200180518091906001018152505060018192509250505b9250929050565b6000808460000151905060006118df612422565b866000018051809190600101815250505b845187600001511015611fbd57600085886000015181518110151561191157fe5b9060200101517f010000000000000000000000000000000000000000000000000000000000000090047f01000000000000000000000000000000000000000000000000000000000000000290507f2200000000000000000000000000000000000000000000000000000000000000817effffffffffffffffffffffffffffffffffffffffffffffffffffffffffffff191614156119f9576119b288886117f9565b80935081945050508215156119d857838860000181815250506003945050505050611fcf565b6119ec826003600187018b6000015161238f565b6000945050505050611fcf565b605c817f0100000000000000000000000000000000000000000000000000000000000000900460ff16148015611a36575085516001896000015101105b15611fa657876000018051809190600101815250507f2200000000000000000000000000000000000000000000000000000000000000868960000151815181101515611a7e57fe5b9060200101517f010000000000000000000000000000000000000000000000000000000000000090047f0100000000000000000000000000000000000000000000000000000000000000027effffffffffffffffffffffffffffffffffffffffffffffffffffffffffffff19161480611b9457507f2f00000000000000000000000000000000000000000000000000000000000000868960000151815181101515611b2557fe5b9060200101517f010000000000000000000000000000000000000000000000000000000000000090047f0100000000000000000000000000000000000000000000000000000000000000027effffffffffffffffffffffffffffffffffffffffffffffffffffffffffffff1916145b80611c3c57507f5c00000000000000000000000000000000000000000000000000000000000000868960000151815181101515611bcd57fe5b9060200101517f010000000000000000000000000000000000000000000000000000000000000090047f0100000000000000000000000000000000000000000000000000000000000000027effffffffffffffffffffffffffffffffffffffffffffffffffffffffffffff1916145b80611ce457507f6600000000000000000000000000000000000000000000000000000000000000868960000151815181101515611c7557fe5b9060200101517f010000000000000000000000000000000000000000000000000000000000000090047f0100000000000000000000000000000000000000000000000000000000000000027effffffffffffffffffffffffffffffffffffffffffffffffffffffffffffff1916145b80611d8c57507f7200000000000000000000000000000000000000000000000000000000000000868960000151815181101515611d1d57fe5b9060200101517f010000000000000000000000000000000000000000000000000000000000000090047f0100000000000000000000000000000000000000000000000000000000000000027effffffffffffffffffffffffffffffffffffffffffffffffffffffffffffff1916145b80611e3457507f6e00000000000000000000000000000000000000000000000000000000000000868960000151815181101515611dc557fe5b9060200101517f010000000000000000000000000000000000000000000000000000000000000090047f0100000000000000000000000000000000000000000000000000000000000000027effffffffffffffffffffffffffffffffffffffffffffffffffffffffffffff1916145b80611edc57507f6200000000000000000000000000000000000000000000000000000000000000868960000151815181101515611e6d57fe5b9060200101517f010000000000000000000000000000000000000000000000000000000000000090047f0100000000000000000000000000000000000000000000000000000000000000027effffffffffffffffffffffffffffffffffffffffffffffffffffffffffffff1916145b80611f8457507f7400000000000000000000000000000000000000000000000000000000000000868960000151815181101515611f1557fe5b9060200101517f010000000000000000000000000000000000000000000000000000000000000090047f0100000000000000000000000000000000000000000000000000000000000000027effffffffffffffffffffffffffffffffffffffffffffffffffffffffffffff1916145b15611f8f5750611fa8565b838860000181815250506001945050505050611fcf565b505b866000018051809190600101815250506118f0565b82876000018181525050600293505050505b9392505050565b60008060009050600085600001519050600080611ff1612422565b5b86518960000151101561230c5786896000015181518110151561201157fe5b9060200101517f010000000000000000000000000000000000000000000000000000000000000090047f01000000000000000000000000000000000000000000000000000000000000000292507f2000000000000000000000000000000000000000000000000000000000000000837effffffffffffffffffffffffffffffffffffffffffffffffffffffffffffff191614806120ef57507f0900000000000000000000000000000000000000000000000000000000000000837effffffffffffffffffffffffffffffffffffffffffffffffffffffffffffff1916145b8061213b57507f0a00000000000000000000000000000000000000000000000000000000000000837effffffffffffffffffffffffffffffffffffffffffffffffffffffffffffff1916145b8061218757507f0d00000000000000000000000000000000000000000000000000000000000000837effffffffffffffffffffffffffffffffffffffffffffffffffffffffffffff1916145b806121d357507f2c00000000000000000000000000000000000000000000000000000000000000837effffffffffffffffffffffffffffffffffffffffffffffffffffffffffffff1916145b806122225750607d7f010000000000000000000000000000000000000000000000000000000000000002837effffffffffffffffffffffffffffffffffffffffffffffffffffffffffffff1916145b806122715750605d7f010000000000000000000000000000000000000000000000000000000000000002837effffffffffffffffffffffffffffffffffffffffffffffffffffffffffffff1916145b1561227f576001945061230c565b6020837f0100000000000000000000000000000000000000000000000000000000000000900460ff1610806122da5750607f837f0100000000000000000000000000000000000000000000000000000000000000900460ff16115b156122f75783896000018181525050600195505050505050612388565b88600001805180919060010181525050611ff2565b84151561232b5783896000018181525050600295505050505050612388565b61233589896117f9565b809250819350505081151561235c5783896000018181525050600395505050505050612388565b61236d816004868c6000015161238f565b88600001805180919060019003815250506000955050505050505b9392505050565b82846000019060048111156123a057fe5b908160048111156123ad57fe5b8152505081846020018181525050600184604001901515908115158152505080846060018181525050600184608001901515908115158152505060008460a0019060ff16908160ff168152505050505050565b6060604051908101604052806000815260200160008152602001600081525090565b60c0604051908101604052806000600481111561243b57fe5b81526020016000815260200160001515815260200160008152602001600015158152602001600060ff1681525090565b60c0604051908101604052806000600481111561248457fe5b81526020016000815260200160001515815260200160008152602001600015158152602001600060ff168152509056fe4578706563746564204a575420746f20636f6e7461696e206f6e6c7920737472696e67206b657973a165627a7a72305820f41754689d64c93e04aaffe3d6a384519f4fcb10ebbf73fe668e26829b1a01b10029",
  "source": "pragma solidity ^0.5.0;\n\nimport \"./JsmnSolLib.sol\";\n\ncontract JWT {\n    using JsmnSolLib for string;\n    \n    function getSub(string memory json) public pure returns (string memory) {\n        (uint exitCode, JsmnSolLib.Token[] memory tokens, uint ntokens) = json.parse(20);\n        require(exitCode == 0, \"JSON parse failed\");\n        \n        require(tokens[0].jsmnType == JsmnSolLib.JsmnType.OBJECT, \"Expected JWT to be an object\");\n        uint i = 1;\n        while (i < ntokens) {\n            require(tokens[i].jsmnType == JsmnSolLib.JsmnType.STRING, \"Expected JWT to contain only string keys\");\n            string memory key = json.getBytes(tokens[i].start, tokens[i].end);\n            if (key.strCompare(\"sub\") == 0) {\n                require(tokens[i+1].jsmnType == JsmnSolLib.JsmnType.STRING, \"Expected sub to be a string\");\n                return json.getBytes(tokens[i+1].start, tokens[i+1].end);\n            }\n            i += 2;\n        }\n        \n        revert(\"Could not find sub in JWT object\");\n    }\n}\n",
  "sourcePath": "/home/spalladino/Projects/solidity-jwt/contracts/JWT.sol",
  "compiler": {
    "name": "solc",
    "version": "0.5.4+commit.9549d8ff.Emscripten.clang"
  },
  "schemaVersion": "3.0.6",
  "updatedAt": "2019-04-05T21:44:12.126Z",
  "devdoc": {
    "methods": {}
  },
  "userdoc": {
    "methods": {}
  }
}