{
  "contractName": "TestIdentity",
  "abi": [
    {
      "constant": true,
      "inputs": [],
      "name": "subject",
      "outputs": [
        {
          "name": "",
          "type": "string"
        }
      ],
      "payable": false,
      "stateMutability": "view",
      "type": "function"
    },
    {
      "constant": true,
      "inputs": [],
      "name": "audience",
      "outputs": [
        {
          "name": "",
          "type": "string"
        }
      ],
      "payable": false,
      "stateMutability": "view",
      "type": "function"
    },
    {
      "constant": true,
      "inputs": [],
      "name": "keys",
      "outputs": [
        {
          "name": "",
          "type": "address"
        }
      ],
      "payable": false,
      "stateMutability": "view",
      "type": "function"
    },
    {
      "constant": true,
      "inputs": [
        {
          "name": "",
          "type": "address"
        }
      ],
      "name": "accounts",
      "outputs": [
        {
          "name": "",
          "type": "bool"
        }
      ],
      "payable": false,
      "stateMutability": "view",
      "type": "function"
    },
    {
      "constant": false,
      "inputs": [
        {
          "name": "headerJson",
          "type": "string"
        },
        {
          "name": "payloadJson",
          "type": "string"
        },
        {
          "name": "signature",
          "type": "bytes"
        }
      ],
      "name": "recover",
      "outputs": [],
      "payable": false,
      "stateMutability": "nonpayable",
      "type": "function"
    },
    {
      "constant": true,
      "inputs": [],
      "name": "getAccounts",
      "outputs": [
        {
          "name": "",
          "type": "address[]"
        }
      ],
      "payable": false,
      "stateMutability": "view",
      "type": "function"
    },
    {
      "inputs": [
        {
          "name": "sub",
          "type": "string"
        },
        {
          "name": "aud",
          "type": "string"
        }
      ],
      "payable": true,
      "stateMutability": "payable",
      "type": "constructor"
    }
  ],
  "bytecode": "0x608060405260405162004c9138038062004c91833981018060405260408110156200002957600080fd5b8101908080516401000000008111156200004257600080fd5b828101905060208101848111156200005957600080fd5b81518560018202830111640100000000821117156200007757600080fd5b505092919060200180516401000000008111156200009457600080fd5b82810190506020810184811115620000ab57600080fd5b8151856001820283011164010000000082111715620000c957600080fd5b50509291905050508181600060016000803373ffffffffffffffffffffffffffffffffffffffff1673ffffffffffffffffffffffffffffffffffffffff16815260200190815260200160002060006101000a81548160ff02191690831515021790555060013390806001815401808255809150509060018203906000526020600020016000909192909190916101000a81548173ffffffffffffffffffffffffffffffffffffffff021916908373ffffffffffffffffffffffffffffffffffffffff160217905550508160029080519060200190620001aa92919062000210565b508260039080519060200190620001c392919062000210565b5080600460006101000a81548173ffffffffffffffffffffffffffffffffffffffff021916908373ffffffffffffffffffffffffffffffffffffffff1602179055505050505050620002bf565b828054600181600116156101000203166002900490600052602060002090601f016020900481019282601f106200025357805160ff191683800117855562000284565b8280016001018555821562000284579182015b828111156200028357825182559160200191906001019062000266565b5b50905062000293919062000297565b5090565b620002bc91905b80821115620002b85760008160009055506001016200029e565b5090565b90565b6149c280620002cf6000396000f3fe608060405234801561001057600080fd5b506004361061007f576000357c0100000000000000000000000000000000000000000000000000000000900480630a59a98c146100845780631ee1f80014610107578063307540f61461018a5780635e5c06e2146101d45780637fac7eec146102305780638a48ac0314610419575b600080fd5b61008c610478565b6040518080602001828103825283818151815260200191508051906020019080838360005b838110156100cc5780820151818401526020810190506100b1565b50505050905090810190601f1680156100f95780820380516001836020036101000a031916815260200191505b509250505060405180910390f35b61010f610516565b6040518080602001828103825283818151815260200191508051906020019080838360005b8381101561014f578082015181840152602081019050610134565b50505050905090810190601f16801561017c5780820380516001836020036101000a031916815260200191505b509250505060405180910390f35b6101926105b4565b604051808273ffffffffffffffffffffffffffffffffffffffff1673ffffffffffffffffffffffffffffffffffffffff16815260200191505060405180910390f35b610216600480360360208110156101ea57600080fd5b81019080803573ffffffffffffffffffffffffffffffffffffffff1690602001909291905050506105da565b604051808215151515815260200191505060405180910390f35b6104176004803603606081101561024657600080fd5b810190808035906020019064010000000081111561026357600080fd5b82018360208201111561027557600080fd5b8035906020019184600183028401116401000000008311171561029757600080fd5b91908080601f016020809104026020016040519081016040528093929190818152602001838380828437600081840152601f19601f820116905080830192505050505050509192919290803590602001906401000000008111156102fa57600080fd5b82018360208201111561030c57600080fd5b8035906020019184600183028401116401000000008311171561032e57600080fd5b91908080601f016020809104026020016040519081016040528093929190818152602001838380828437600081840152601f19601f8201169050808301925050505050505091929192908035906020019064010000000081111561039157600080fd5b8201836020820111156103a357600080fd5b803590602001918460018302840111640100000000831117156103c557600080fd5b91908080601f016020809104026020016040519081016040528093929190818152602001838380828437600081840152601f19601f8201169050808301925050505050505091929192905050506105fa565b005b610421610c1d565b6040518080602001828103825283818151815260200191508051906020019060200280838360005b83811015610464578082015181840152602081019050610449565b505050509050019250505060405180910390f35b60038054600181600116156101000203166002900480601f01602080910402602001604051908101604052809291908181526020018280546001816001161561010002031660029004801561050e5780601f106104e35761010080835404028352916020019161050e565b820191906000526020600020905b8154815290600101906020018083116104f157829003601f168201915b505050505081565b60028054600181600116156101000203166002900480601f0160208091040260200160405190810160405280929190818152602001828054600181600116156101000203166002900480156105ac5780601f10610581576101008083540402835291602001916105ac565b820191906000526020600020905b81548152906001019060200180831161058f57829003601f168201915b505050505081565b600460009054906101000a900473ffffffffffffffffffffffffffffffffffffffff1681565b60006020528060005260406000206000915054906101000a900460ff1681565b606061060584610cab565b9050606061061284610cab565b90506060600260405190808252806020026020018201604052801561065157816020015b61063e6146a2565b8152602001906001900390816106365790505b50905061065d836111f1565b81600081518110151561066c57fe5b90602001906020020181905250610682826111f1565b81600181518110151561069157fe5b9060200190602002018190525060606106f0826106e26040805190810160405280600181526020017f2e000000000000000000000000000000000000000000000000000000000000008152506111f1565b61121f90919063ffffffff16565b905060606106fd88611383565b9050606061070a82611720565b9050606061071783611743565b9050600061073289848488611769909392919063ffffffff16565b1415156107a7576040517f08c379a000000000000000000000000000000000000000000000000000000000815260040180806020018281038252601a8152602001807f525341207369676e617475726520636865636b206661696c656400000000000081525060200191505060405180910390fd5b60608060606107b58c611820565b925092509250600061086a60028054600181600116156101000203166002900480601f0160208091040260200160405190810160405280929190818152602001828054600181600116156101000203166002900480156108565780601f1061082b57610100808354040283529160200191610856565b820191906000526020600020905b81548152906001019060200180831161083957829003601f168201915b505050505085611e6290919063ffffffff16565b1480610874575060015b15156108e8576040517f08c379a00000000000000000000000000000000000000000000000000000000081526004018080602001828103825260178152602001807f41756469656e636520646f6573206e6f74206d6174636800000000000000000081525060200191505060405180910390fd5b600061099760038054600181600116156101000203166002900480601f0160208091040260200160405190810160405280929190818152602001828054600181600116156101000203166002900480156109835780601f1061095857610100808354040283529160200191610983565b820191906000526020600020905b81548152906001019060200180831161096657829003601f168201915b505050505083611e6290919063ffffffff16565b141515610a0c576040517f08c379a00000000000000000000000000000000000000000000000000000000081526004018080602001828103825260168152602001807f5375626a65637420646f6573206e6f74206d617463680000000000000000000081525060200191505060405180910390fd5b6060610a7133604051602001808273ffffffffffffffffffffffffffffffffffffffff1673ffffffffffffffffffffffffffffffffffffffff166c01000000000000000000000000028152601401915050604051602081830303815290604052610cab565b90506000610a888483611e6290919063ffffffff16565b141515610afd576040517f08c379a000000000000000000000000000000000000000000000000000000000815260040180806020018281038252601b8152602001807f53656e64657220646f6573206e6f74206d61746368206e6f6e6365000000000081525060200191505060405180910390fd5b6000803373ffffffffffffffffffffffffffffffffffffffff1673ffffffffffffffffffffffffffffffffffffffff16815260200190815260200160002060009054906101000a900460ff161515610c0d5760016000803373ffffffffffffffffffffffffffffffffffffffff1673ffffffffffffffffffffffffffffffffffffffff16815260200190815260200160002060006101000a81548160ff02191690831515021790555060013390806001815401808255809150509060018203906000526020600020016000909192909190916101000a81548173ffffffffffffffffffffffffffffffffffffffff021916908373ffffffffffffffffffffffffffffffffffffffff160217905550505b5050505050505050505050505050565b60606001805480602002602001604051908101604052809291908181526020018280548015610ca157602002820191906000526020600020905b8160009054906101000a900473ffffffffffffffffffffffffffffffffffffffff1673ffffffffffffffffffffffffffffffffffffffff1681526020019060010190808311610c57575b5050505050905090565b606080829050600060038251811515610cc057fe5b0690506000600382600303811515610cd457fe5b06600460036002865101811515610ce757fe5b04020390506060816040519080825280601f01601f191660200182016040528015610d215781602001600182028038833980820191505090505b509050600080905060008090505b855160038301111515610fd157610ec78683815181101515610d4d57fe5b9060200101517f010000000000000000000000000000000000000000000000000000000000000090047f0100000000000000000000000000000000000000000000000000000000000000027f0100000000000000000000000000000000000000000000000000000000000000900460ff168760018501815181101515610dcf57fe5b9060200101517f010000000000000000000000000000000000000000000000000000000000000090047f0100000000000000000000000000000000000000000000000000000000000000027f0100000000000000000000000000000000000000000000000000000000000000900460ff168860028601815181101515610e5157fe5b9060200101517f010000000000000000000000000000000000000000000000000000000000000090047f0100000000000000000000000000000000000000000000000000000000000000027f0100000000000000000000000000000000000000000000000000000000000000900460ff16612128565b8685815181101515610ed557fe5b90602001018760018701815181101515610eeb57fe5b90602001018860028801815181101515610f0157fe5b90602001018960038901815181101515610f1757fe5b9060200101847effffffffffffffffffffffffffffffffffffffffffffffffffffffffffffff191660001a9053847effffffffffffffffffffffffffffffffffffffffffffffffffffffffffffff191660001a9053847effffffffffffffffffffffffffffffffffffffffffffffffffffffffffffff191660001a9053847effffffffffffffffffffffffffffffffffffffffffffffffffffffffffffff191660001a905350505050600481019050600382019150610d2f565b6000851415156111e35760008686885103815181101515610fee57fe5b9060200101517f010000000000000000000000000000000000000000000000000000000000000090047f0100000000000000000000000000000000000000000000000000000000000000027f010000000000000000000000000000000000000000000000000000000000000090049050600080905060028714156110ef5787600189510381518110151561107e57fe5b9060200101517f010000000000000000000000000000000000000000000000000000000000000090047f0100000000000000000000000000000000000000000000000000000000000000027f0100000000000000000000000000000000000000000000000000000000000000900490505b6000806000806111078660ff168660ff166000612128565b935093509350935083898881518110151561111e57fe5b9060200101907effffffffffffffffffffffffffffffffffffffffffffffffffffffffffffff1916908160001a90535082896001890181518110151561116057fe5b9060200101907effffffffffffffffffffffffffffffffffffffffffffffffffffffffffffff1916908160001a90535060028b14156111dc578189600289018151811015156111ab57fe5b9060200101907effffffffffffffffffffffffffffffffffffffffffffffffffffffffffffff1916908160001a9053505b5050505050505b829650505050505050919050565b6111f96146bc565b600060208301905060408051908101604052808451815260200182815250915050919050565b6060600082511415611243576020604051908101604052806000815250905061137d565b60006001835103846000015102905060008090505b835181101561128e57838181518110151561126f57fe5b9060200190602002015160000151820191508080600101915050611258565b506060816040519080825280601f01601f1916602001820160405280156112c45781602001600182028038833980820191505090505b509050600060208201905060008090505b85518110156113755761131f8287838151811015156112f057fe5b9060200190602002015160200151888481518110151561130c57fe5b9060200190602002015160000151612367565b858181518110151561132d57fe5b90602001906020020151600001518201915060018651038110156113685761135e8288602001518960000151612367565b8660000151820191505b80806001019150506112d5565b508193505050505b92915050565b606060006060600061139f6014866123b290919063ffffffff16565b92509250925060008314151561141d576040517f08c379a00000000000000000000000000000000000000000000000000000000081526004018080602001828103825260118152602001807f4a534f4e207061727365206661696c656400000000000000000000000000000081525060200191505060405180910390fd5b6001600481111561142a57fe5b82600081518110151561143957fe5b9060200190602002015160000151600481111561145257fe5b1415156114c7576040517f08c379a000000000000000000000000000000000000000000000000000000000815260040180806020018281038252601c8152602001807f4578706563746564204a575420746f20626520616e206f626a6563740000000081525060200191505060405180910390fd5b6000600190505b8181101561171657600360048111156114e357fe5b83828151811015156114f157fe5b9060200190602002015160000151600481111561150a57fe5b141515611562576040517f08c379a000000000000000000000000000000000000000000000000000000000815260040180806020018281038252602881526020018061496f6028913960400191505060405180910390fd5b60606115af848381518110151561157557fe5b9060200190602002015160200151858481518110151561159157fe5b9060200190602002015160600151896131bf9092919063ffffffff16565b905060006115fb6040805190810160405280600381526020017f6b6964000000000000000000000000000000000000000000000000000000000081525083611e6290919063ffffffff16565b141561170a576003600481111561160e57fe5b846001840181518110151561161f57fe5b9060200190602002015160000151600481111561163857fe5b1415156116ad576040517f08c379a000000000000000000000000000000000000000000000000000000000815260040180806020018281038252601b8152602001807f4578706563746564206b696420746f206265206120737472696e67000000000081525060200191505060405180910390fd5b6116fe84600184018151811015156116c157fe5b906020019060200201516020015185600185018151811015156116e057fe5b9060200190602002015160600151896131bf9092919063ffffffff16565b9550505050505061171b565b600282019150506114ce565b505050505b919050565b606060a060405190810160405280608081526020016147af608091399050919050565b606061012060405190810160405280610100815260200161486f61010091399050919050565b60006118166002866040518082805190602001908083835b6020831015156117a65780518252602082019150602081019050602083039250611781565b6001836020036101000a038019825116818451168082178552505050505050905001915050602060405180830381855afa1580156117e8573d6000803e3d6000fd5b5050506040513d60208110156117fd57600080fd5b81019080805190602001909291905050508585856132c0565b9050949350505050565b606080606060006060600061183f6028886123b290919063ffffffff16565b9250925092506000831415156118bd576040517f08c379a00000000000000000000000000000000000000000000000000000000081526004018080602001828103825260118152602001807f4a534f4e207061727365206661696c656400000000000000000000000000000081525060200191505060405180910390fd5b600160048111156118ca57fe5b8260008151811015156118d957fe5b906020019060200201516000015160048111156118f257fe5b141515611967576040517f08c379a000000000000000000000000000000000000000000000000000000000815260040180806020018281038252601c8152602001807f4578706563746564204a575420746f20626520616e206f626a6563740000000081525060200191505060405180910390fd5b6000600190505b81811015611e57576003600481111561198357fe5b838281518110151561199157fe5b906020019060200201516000015160048111156119aa57fe5b141515611a02576040517f08c379a000000000000000000000000000000000000000000000000000000000815260040180806020018281038252602881526020018061496f6028913960400191505060405180910390fd5b6060611a4f8483815181101515611a1557fe5b90602001906020020151602001518584815181101515611a3157fe5b90602001906020020151606001518b6131bf9092919063ffffffff16565b90506000611a9b6040805190810160405280600381526020017f737562000000000000000000000000000000000000000000000000000000000081525083611e6290919063ffffffff16565b1415611ba55760036004811115611aae57fe5b8460018401815181101515611abf57fe5b90602001906020020151600001516004811115611ad857fe5b141515611b4d576040517f08c379a000000000000000000000000000000000000000000000000000000000815260040180806020018281038252601b8152602001807f45787065637465642073756220746f206265206120737472696e67000000000081525060200191505060405180910390fd5b611b9e8460018401815181101515611b6157fe5b90602001906020020151602001518560018501815181101515611b8057fe5b90602001906020020151606001518b6131bf9092919063ffffffff16565b9550611e4b565b6000611bef6040805190810160405280600381526020017f617564000000000000000000000000000000000000000000000000000000000081525083611e6290919063ffffffff16565b1415611cf95760036004811115611c0257fe5b8460018401815181101515611c1357fe5b90602001906020020151600001516004811115611c2c57fe5b141515611ca1576040517f08c379a000000000000000000000000000000000000000000000000000000000815260040180806020018281038252601b8152602001807f45787065637465642061756420746f206265206120737472696e67000000000081525060200191505060405180910390fd5b611cf28460018401815181101515611cb557fe5b90602001906020020151602001518560018501815181101515611cd457fe5b90602001906020020151606001518b6131bf9092919063ffffffff16565b9750611e4a565b6000611d436040805190810160405280600581526020017f6e6f6e636500000000000000000000000000000000000000000000000000000081525083611e6290919063ffffffff16565b1415611e495760036004811115611d5657fe5b8460018401815181101515611d6757fe5b90602001906020020151600001516004811115611d8057fe5b141515611df5576040517f08c379a000000000000000000000000000000000000000000000000000000000815260040180806020018281038252601d8152602001807f4578706563746564206e6f6e636520746f206265206120737472696e6700000081525060200191505060405180910390fd5b611e468460018401815181101515611e0957fe5b90602001906020020151602001518560018501815181101515611e2857fe5b90602001906020020151606001518b6131bf9092919063ffffffff16565b96505b5b5b6002820191505061196e565b505050509193909250565b6000606083905060608390506000825190508082511015611e8257815190505b60008090505b818110156120ce578281815181101515611e9e57fe5b9060200101517f010000000000000000000000000000000000000000000000000000000000000090047f0100000000000000000000000000000000000000000000000000000000000000027effffffffffffffffffffffffffffffffffffffffffffffffffffffffffffff19168482815181101515611f1957fe5b9060200101517f010000000000000000000000000000000000000000000000000000000000000090047f0100000000000000000000000000000000000000000000000000000000000000027effffffffffffffffffffffffffffffffffffffffffffffffffffffffffffff19161015611fb8577fffffffffffffffffffffffffffffffffffffffffffffffffffffffffffffffff945050505050612122565b8281815181101515611fc657fe5b9060200101517f010000000000000000000000000000000000000000000000000000000000000090047f0100000000000000000000000000000000000000000000000000000000000000027effffffffffffffffffffffffffffffffffffffffffffffffffffffffffffff1916848281518110151561204157fe5b9060200101517f010000000000000000000000000000000000000000000000000000000000000090047f0100000000000000000000000000000000000000000000000000000000000000027effffffffffffffffffffffffffffffffffffffffffffffffffffffffffffff191611156120c1576001945050505050612122565b8080600101915050611e88565b50815183511015612104577fffffffffffffffffffffffffffffffffffffffffffffffffffffffffffffffff9350505050612122565b81518351111561211a5760019350505050612122565b600093505050505b92915050565b6000806000806000856008889060020a0260108a9060020a02171790506000603f601283908060020a82049150501690506000603f600c84908060020a82049150501690506000603f600685908060020a82049150501690506000603f851690506060604051908101604052806040815260200161482f60409139848151811015156121b057fe5b9060200101517f010000000000000000000000000000000000000000000000000000000000000090047f01000000000000000000000000000000000000000000000000000000000000000298506060604051908101604052806040815260200161482f604091398381518110151561222457fe5b9060200101517f010000000000000000000000000000000000000000000000000000000000000090047f01000000000000000000000000000000000000000000000000000000000000000297506060604051908101604052806040815260200161482f604091398281518110151561229857fe5b9060200101517f010000000000000000000000000000000000000000000000000000000000000090047f01000000000000000000000000000000000000000000000000000000000000000296506060604051908101604052806040815260200161482f604091398181518110151561230c57fe5b9060200101517f010000000000000000000000000000000000000000000000000000000000000090047f0100000000000000000000000000000000000000000000000000000000000000029550505050505093509350935093565b5b60208110151561238d5781518352602083019250602082019150602081039050612368565b60006001826020036101000a0390508019835116818551168181178652505050505050565b600060606000606085905060006123c76146d6565b6123d0876138de565b80965081925050506000808260200151905060006123ec6146f8565b5b8651856000015110156131a257600087866000015181518110151561240e57fe5b9060200101517f010000000000000000000000000000000000000000000000000000000000000090047f0100000000000000000000000000000000000000000000000000000000000000029050607b7f010000000000000000000000000000000000000000000000000000000000000002817effffffffffffffffffffffffffffffffffffffffffffffffffffffffffffff191614806124f25750605b7f010000000000000000000000000000000000000000000000000000000000000002817effffffffffffffffffffffffffffffffffffffffffffffffffffffffffffff1916145b1561263f578380600101945050612509868b61397c565b80935081985050508615156125335760038a60008090509a509a509a5050505050505050506131b8565b7fffffffffffffffffffffffffffffffffffffffffffffffffffffffffffffffff86604001511415156125925789866040015181518110151561257257fe5b9060200190602002015160a001805180919060010160ff1660ff16815250505b607b7f010000000000000000000000000000000000000000000000000000000000000002817effffffffffffffffffffffffffffffffffffffffffffffffffffffffffffff1916146125e55760026125e8565b60015b826000019060048111156125f857fe5b9081600481111561260557fe5b815250508560000151826020018181525050600182604001901515908115158152505060018660200151038660400181815250505061318d565b607d7f010000000000000000000000000000000000000000000000000000000000000002817effffffffffffffffffffffffffffffffffffffffffffffffffffffffffffff191614806126d65750605d7f010000000000000000000000000000000000000000000000000000000000000002817effffffffffffffffffffffffffffffffffffffffffffffffffffffffffffff1916145b15612930576000607d7f010000000000000000000000000000000000000000000000000000000000000002827effffffffffffffffffffffffffffffffffffffffffffffffffffffffffffff191614612730576002612733565b60015b90506000809050600188602001510394505b600085101515612852578b8581518110151561275d57fe5b9060200190602002015193508360400151801561277c57508360800151155b156128445781600481111561278d57fe5b8460000151600481111561279d57fe5b1415156127c15760018c60008090509c509c509c50505050505050505050506131b8565b7fffffffffffffffffffffffffffffffffffffffffffffffffffffffffffffffff88604001818152505060018860000151018c8681518110151561280157fe5b90602001906020020151606001818152505060018c8681518110151561282357fe5b90602001906020020151608001901515908115158152505060019050612852565b848060019003955050612745565b8015156128765760018c60008090509c509c509c50505050505050505050506131b8565b5b60008511156128cf578b8581518110151561288e57fe5b906020019060200201519350836040015180156128ad57508360800151155b156128c157848860400181815250506128cf565b848060019003955050612877565b6000851415612928578b858151811015156128e657fe5b9060200190602002015193508360400151801561290557508360800151155b1561292757846fffffffffffffffffffffffffffffffff168860400181815250505b5b50505061318d565b7f2200000000000000000000000000000000000000000000000000000000000000817effffffffffffffffffffffffffffffffffffffffffffffffffffffffffffff19161415612a1857612985868b8a613a4e565b94506000851415156129ab57848a60008090509a509a509a5050505050505050506131b8565b83806001019450507fffffffffffffffffffffffffffffffffffffffffffffffffffffffffffffffff8660400151141515612a12578986604001518151811015156129f257fe5b9060200190602002015160a001805180919060010160ff1660ff16815250505b5061318d565b7f2000000000000000000000000000000000000000000000000000000000000000817effffffffffffffffffffffffffffffffffffffffffffffffffffffffffffff19161480612aac575060117f010000000000000000000000000000000000000000000000000000000000000002817effffffffffffffffffffffffffffffffffffffffffffffffffffffffffffff1916145b80612afb575060127f010000000000000000000000000000000000000000000000000000000000000002817effffffffffffffffffffffffffffffffffffffffffffffffffffffffffffff1916145b80612b4a575060147f010000000000000000000000000000000000000000000000000000000000000002817effffffffffffffffffffffffffffffffffffffffffffffffffffffffffffff1916145b15612b55575061318d565b7f3a00000000000000000000000000000000000000000000000000000000000000817effffffffffffffffffffffffffffffffffffffffffffffffffffffffffffff19161415612bb65760018660200151038660400181815250505061318d565b7f2c00000000000000000000000000000000000000000000000000000000000000817effffffffffffffffffffffffffffffffffffffffffffffffffffffffffffff19161415612da7577fffffffffffffffffffffffffffffffffffffffffffffffffffffffffffffffff866040015114158015612c6a575060026004811115612c3c57fe5b8a8760400151815181101515612c4e57fe5b90602001906020020151600001516004811115612c6757fe5b14155b8015612cac575060016004811115612c7e57fe5b8a8760400151815181101515612c9057fe5b90602001906020020151600001516004811115612ca957fe5b14155b15612da157600186602001510392505b600083101515612da05760026004811115612cd357fe5b8a84815181101515612ce157fe5b90602001906020020151600001516004811115612cfa57fe5b1480612d37575060016004811115612d0e57fe5b8a84815181101515612d1c57fe5b90602001906020020151600001516004811115612d3557fe5b145b15612d92578983815181101515612d4a57fe5b90602001906020020151604001518015612d7d57508983815181101515612d6d57fe5b9060200190602002015160800151155b15612d915782866040018181525050612da0565b5b828060019003935050612cbc565b5b5061318d565b7f3000000000000000000000000000000000000000000000000000000000000000817effffffffffffffffffffffffffffffffffffffffffffffffffffffffffffff191610158015612e3b57507f3900000000000000000000000000000000000000000000000000000000000000817effffffffffffffffffffffffffffffffffffffffffffffffffffffffffffff191611155b80612e8757507f2d00000000000000000000000000000000000000000000000000000000000000817effffffffffffffffffffffffffffffffffffffffffffffffffffffffffffff1916145b80612ed357507f6600000000000000000000000000000000000000000000000000000000000000817effffffffffffffffffffffffffffffffffffffffffffffffffffffffffffff1916145b80612f1f57507f7400000000000000000000000000000000000000000000000000000000000000817effffffffffffffffffffffffffffffffffffffffffffffffffffffffffffff1916145b80612f6b57507f6e00000000000000000000000000000000000000000000000000000000000000817effffffffffffffffffffffffffffffffffffffffffffffffffffffffffffff1916145b156130d1577fffffffffffffffffffffffffffffffffffffffffffffffffffffffffffffffff866040015114151561303357898660400151815181101515612faf57fe5b90602001906020020151915060016004811115612fc857fe5b82600001516004811115612fd857fe5b1480613012575060036004811115612fec57fe5b82600001516004811115612ffc57fe5b148015613011575060008260a0015160ff1614155b5b156130325760018a60008090509a509a509a5050505050505050506131b8565b5b61303e868b8a614159565b945060008514151561306457848a60008090509a509a509a5050505050505050506131b8565b83806001019450507fffffffffffffffffffffffffffffffffffffffffffffffffffffffffffffffff86604001511415156130cb578986604001518151811015156130ab57fe5b9060200190602002015160a001805180919060010160ff1660ff16815250505b5061318d565b60207f010000000000000000000000000000000000000000000000000000000000000002817effffffffffffffffffffffffffffffffffffffffffffffffffffffffffffff19161015801561316b5750607e7f010000000000000000000000000000000000000000000000000000000000000002817effffffffffffffffffffffffffffffffffffffffffffffffffffffffffffff191611155b1561318b5760018a60008090509a509a509a5050505050505050506131b8565b505b846000018051809190600101815250506123ed565b6000898660200151995099509950505050505050505b9250925092565b60608084905060608484036040519080825280601f01601f1916602001820160405280156131fc5781602001600182028038833980820191505090505b50905060008590505b848110156132b357828181518110151561321b57fe5b9060200101517f010000000000000000000000000000000000000000000000000000000000000090047f0100000000000000000000000000000000000000000000000000000000000000028287830381518110151561327657fe5b9060200101907effffffffffffffffffffffffffffffffffffffffffffffffffffffffffffff1916908160001a9053508080600101915050613205565b5080925050509392505050565b60006132ca614741565b61026060405190810160405280603060ff168152602001603160ff168152602001603060ff168152602001600d60ff168152602001600660ff168152602001600960ff168152602001606060ff168152602001608660ff168152602001604860ff168152602001600160ff168152602001606560ff168152602001600360ff168152602001600460ff168152602001600260ff168152602001600160ff168152602001600560ff168152602001600060ff168152602001600460ff168152602001602060ff168152509050600b602060ff16601301018351101515156133af57600080fd5b600060606133be878787614512565b90506000815190506000865190506060816040519080825280601f01601f1916602001820160405280156134015781602001600182028038833980820191505090505b5090508160208201846020870160056107d05a03fa50600060206013600385030303905060007f01000000000000000000000000000000000000000000000000000000000000000282600081518110151561345857fe5b9060200101517f010000000000000000000000000000000000000000000000000000000000000090047f0100000000000000000000000000000000000000000000000000000000000000027effffffffffffffffffffffffffffffffffffffffffffffffffffffffffffff1916141580613552575060018260018151811015156134de57fe5b9060200101517f010000000000000000000000000000000000000000000000000000000000000090047f0100000000000000000000000000000000000000000000000000000000000000027f0100000000000000000000000000000000000000000000000000000000000000900460ff1614155b156135675760019750505050505050506138d6565b600295505b8060020186101561363a5760ff7f01000000000000000000000000000000000000000000000000000000000000000282878151811015156135a957fe5b9060200101517f010000000000000000000000000000000000000000000000000000000000000090047f0100000000000000000000000000000000000000000000000000000000000000027effffffffffffffffffffffffffffffffffffffffffffffffffffffffffffff191614151561362d5760029750505050505050506138d6565b858060010196505061356c565b60007f010000000000000000000000000000000000000000000000000000000000000002828260020181518110151561366f57fe5b9060200101517f010000000000000000000000000000000000000000000000000000000000000090047f0100000000000000000000000000000000000000000000000000000000000000027effffffffffffffffffffffffffffffffffffffffffffffffffffffffffffff19161415156136f35760039750505050505050506138d6565b600095505b60138610156137bf57868660138110151561370f57fe5b602002015160ff168287836003010181518110151561372a57fe5b9060200101517f010000000000000000000000000000000000000000000000000000000000000090047f0100000000000000000000000000000000000000000000000000000000000000027f0100000000000000000000000000000000000000000000000000000000000000900460ff161415156137b25760049750505050505050506138d6565b85806001019650506136f8565b600095505b602060ff168610156138ca578b866020811015156137de57fe5b1a7f0100000000000000000000000000000000000000000000000000000000000000027effffffffffffffffffffffffffffffffffffffffffffffffffffffffffffff19168287601384600301010181518110151561383957fe5b9060200101517f010000000000000000000000000000000000000000000000000000000000000090047f0100000000000000000000000000000000000000000000000000000000000000027effffffffffffffffffffffffffffffffffffffffffffffffffffffffffffff19161415156138bd5760059750505050505050506138d6565b85806001019650506137c4565b60009750505050505050505b949350505050565b6138e66146d6565b60606138f06146d6565b60606040519081016040528060008152602001600081526020017fffffffffffffffffffffffffffffffffffffffffffffffffffffffffffffffff815250905060608460405190808252806020026020018201604052801561396c57816020015b613959614765565b8152602001906001900390816139515790505b5090508181935093505050915091565b60006139866146f8565b825184602001511015156139be5760008360018551038151811015156139a857fe5b9060200190602002015180905091509150613a47565b6139c66146f8565b60c060405190810160405280600060048111156139df57fe5b81526020016000815260200160001515815260200160008152602001600015158152602001600060ff16815250905080848660200151815181101515613a2157fe5b906020019060200201819052508460200180518091906001018152505060018192509250505b9250929050565b600080846000015190506000613a626146f8565b866000018051809190600101815250505b845187600001511015614140576000858860000151815181101515613a9457fe5b9060200101517f010000000000000000000000000000000000000000000000000000000000000090047f01000000000000000000000000000000000000000000000000000000000000000290507f2200000000000000000000000000000000000000000000000000000000000000817effffffffffffffffffffffffffffffffffffffffffffffffffffffffffffff19161415613b7c57613b35888861397c565b8093508194505050821515613b5b57838860000181815250506003945050505050614152565b613b6f826003600187018b600001516145e6565b6000945050505050614152565b605c817f0100000000000000000000000000000000000000000000000000000000000000900460ff16148015613bb9575085516001896000015101105b1561412957876000018051809190600101815250507f2200000000000000000000000000000000000000000000000000000000000000868960000151815181101515613c0157fe5b9060200101517f010000000000000000000000000000000000000000000000000000000000000090047f0100000000000000000000000000000000000000000000000000000000000000027effffffffffffffffffffffffffffffffffffffffffffffffffffffffffffff19161480613d1757507f2f00000000000000000000000000000000000000000000000000000000000000868960000151815181101515613ca857fe5b9060200101517f010000000000000000000000000000000000000000000000000000000000000090047f0100000000000000000000000000000000000000000000000000000000000000027effffffffffffffffffffffffffffffffffffffffffffffffffffffffffffff1916145b80613dbf57507f5c00000000000000000000000000000000000000000000000000000000000000868960000151815181101515613d5057fe5b9060200101517f010000000000000000000000000000000000000000000000000000000000000090047f0100000000000000000000000000000000000000000000000000000000000000027effffffffffffffffffffffffffffffffffffffffffffffffffffffffffffff1916145b80613e6757507f6600000000000000000000000000000000000000000000000000000000000000868960000151815181101515613df857fe5b9060200101517f010000000000000000000000000000000000000000000000000000000000000090047f0100000000000000000000000000000000000000000000000000000000000000027effffffffffffffffffffffffffffffffffffffffffffffffffffffffffffff1916145b80613f0f57507f7200000000000000000000000000000000000000000000000000000000000000868960000151815181101515613ea057fe5b9060200101517f010000000000000000000000000000000000000000000000000000000000000090047f0100000000000000000000000000000000000000000000000000000000000000027effffffffffffffffffffffffffffffffffffffffffffffffffffffffffffff1916145b80613fb757507f6e00000000000000000000000000000000000000000000000000000000000000868960000151815181101515613f4857fe5b9060200101517f010000000000000000000000000000000000000000000000000000000000000090047f0100000000000000000000000000000000000000000000000000000000000000027effffffffffffffffffffffffffffffffffffffffffffffffffffffffffffff1916145b8061405f57507f6200000000000000000000000000000000000000000000000000000000000000868960000151815181101515613ff057fe5b9060200101517f010000000000000000000000000000000000000000000000000000000000000090047f0100000000000000000000000000000000000000000000000000000000000000027effffffffffffffffffffffffffffffffffffffffffffffffffffffffffffff1916145b8061410757507f740000000000000000000000000000000000000000000000000000000000000086896000015181518110151561409857fe5b9060200101517f010000000000000000000000000000000000000000000000000000000000000090047f0100000000000000000000000000000000000000000000000000000000000000027effffffffffffffffffffffffffffffffffffffffffffffffffffffffffffff1916145b15614112575061412b565b838860000181815250506001945050505050614152565b505b86600001805180919060010181525050613a73565b82876000018181525050600293505050505b9392505050565b600080600090506000856000015190506000806141746146f8565b5b86518960000151101561448f5786896000015181518110151561419457fe5b9060200101517f010000000000000000000000000000000000000000000000000000000000000090047f01000000000000000000000000000000000000000000000000000000000000000292507f2000000000000000000000000000000000000000000000000000000000000000837effffffffffffffffffffffffffffffffffffffffffffffffffffffffffffff1916148061427257507f0900000000000000000000000000000000000000000000000000000000000000837effffffffffffffffffffffffffffffffffffffffffffffffffffffffffffff1916145b806142be57507f0a00000000000000000000000000000000000000000000000000000000000000837effffffffffffffffffffffffffffffffffffffffffffffffffffffffffffff1916145b8061430a57507f0d00000000000000000000000000000000000000000000000000000000000000837effffffffffffffffffffffffffffffffffffffffffffffffffffffffffffff1916145b8061435657507f2c00000000000000000000000000000000000000000000000000000000000000837effffffffffffffffffffffffffffffffffffffffffffffffffffffffffffff1916145b806143a55750607d7f010000000000000000000000000000000000000000000000000000000000000002837effffffffffffffffffffffffffffffffffffffffffffffffffffffffffffff1916145b806143f45750605d7f010000000000000000000000000000000000000000000000000000000000000002837effffffffffffffffffffffffffffffffffffffffffffffffffffffffffffff1916145b15614402576001945061448f565b6020837f0100000000000000000000000000000000000000000000000000000000000000900460ff16108061445d5750607f837f0100000000000000000000000000000000000000000000000000000000000000900460ff16115b1561447a578389600001818152505060019550505050505061450b565b88600001805180919060010181525050614175565b8415156144ae578389600001818152505060029550505050505061450b565b6144b8898961397c565b80925081935050508115156144df578389600001818152505060039550505050505061450b565b6144f0816004868c600001516145e6565b88600001805180919060019003815250506000955050505050505b9392505050565b60606000825184518651606001010190506000855190506000855190506000855190506000806000806060886040519080825280601f01601f1916602001820160405280156145705781602001600182028038833980820191505090505b50905060208d01945060208c01935060208b0192508760208201528660408201528560608201526020810191506145ac60608301868f51614657565b6145be8d516060840101858e51614657565b6145d38c518e51606085010101848d51614657565b8099505050505050505050509392505050565b82846000019060048111156145f757fe5b9081600481111561460457fe5b8152505081846020018181525050600184604001901515908115158152505080846060018181525050600184608001901515908115158152505060008460a0019060ff16908160ff168152505050505050565b5b60208110151561467d5781518352602083019250602082019150602081039050614658565b60006001826020036101000a0390508019835116818551168181178652505050505050565b604080519081016040528060008152602001600081525090565b604080519081016040528060008152602001600081525090565b6060604051908101604052806000815260200160008152602001600081525090565b60c0604051908101604052806000600481111561471157fe5b81526020016000815260200160001515815260200160008152602001600015158152602001600060ff1681525090565b61026060405190810160405280601390602082028038833980820191505090505090565b60c0604051908101604052806000600481111561477e57fe5b81526020016000815260200160001515815260200160008152602001600015158152602001600060ff168152509056fe00000000000000000000000000000000000000000000000000000000000000000000000000000000000000000000000000000000000000000000000000000000000000000000000000000000000000000000000000000000000000000000000000000000000000000000000000000000000000000000000000000000000100014142434445464748494a4b4c4d4e4f505152535455565758595a6162636465666768696a6b6c6d6e6f707172737475767778797a303132333435363738392d5fb0ca0a0eeba26cda6c0fa56527056d49c91045cfd6598a050f7ca831173416426f3630264221c94b8189f19cbfa2073682ce16a459c5e59978320ffc9af811a8e9b1264c4dd3b32339791458efd65776229ff82ce26389bacfb606fdfd05ad0253045931b7bfd1383ca5d2e5f49796c828a59321f1632ced38fe66fd668d9c2851f47e50cf337a1fe37c189da93e2cfc5cfcb833c06f749ff405e33c94aea36d120b622e9c61beaddf677458eea985c6567c7a54b3f6d079fbfb6c563548c0349e5d08972d9e6be932e69001ab0390363a342a9a874c70b231eb0b0cd90d4599d914c7adf755ee5e5012099aa1dc5a7152b598b8f90c2b16842a26f650fe5e6f4578706563746564204a575420746f20636f6e7461696e206f6e6c7920737472696e67206b657973a165627a7a72305820d017bd9b731a7e72d8212fd83388b56afcad9eaa29fd1f33712860b62770edf70029",
  "source": "pragma solidity ^0.5.0;\n\nimport \"./Identity.sol\";\n\ncontract TestIdentity is Identity {\n  bytes private constant rsaExponent = hex\"0000000000000000000000000000000000000000000000000000000000000000000000000000000000000000000000000000000000000000000000000000000000000000000000000000000000000000000000000000000000000000000000000000000000000000000000000000000000000000000000000000000000010001\";\n  bytes private constant rsaModulus = hex\"B0CA0A0EEBA26CDA6C0FA56527056D49C91045CFD6598A050F7CA831173416426F3630264221C94B8189F19CBFA2073682CE16A459C5E59978320FFC9AF811A8E9B1264C4DD3B32339791458EFD65776229FF82CE26389BACFB606FDFD05AD0253045931B7BFD1383CA5D2E5F49796C828A59321F1632CED38FE66FD668D9C2851F47E50CF337A1FE37C189DA93E2CFC5CFCB833C06F749FF405E33C94AEA36D120B622E9C61BEADDF677458EEA985C6567C7A54B3F6D079FBFB6C563548C0349E5D08972D9E6BE932E69001AB0390363A342A9A874C70B231EB0B0CD90D4599D914C7ADF755EE5E5012099AA1DC5A7152B598B8F90C2B16842A26F650FE5E6F\";\n\n  constructor(string memory sub, string memory aud)\n    Identity(sub, aud, JWKS(0))\n    public payable { }\n\n  function getRsaExponent(string memory) internal pure returns (bytes memory) {\n    return rsaExponent;\n  }\n\n  function getRsaModulus(string memory) internal view returns (bytes memory) {\n    return rsaModulus;\n  }\n}",
  "sourcePath": "/home/spalladino/Projects/solidity-jwt/contracts/TestIdentity.sol",
  "compiler": {
    "name": "solc",
    "version": "0.5.4+commit.9549d8ff.Emscripten.clang"
  },
  "schemaVersion": "3.0.6",
  "updatedAt": "2019-10-26T14:52:38.428Z",
  "devdoc": {
    "methods": {}
  },
  "userdoc": {
    "methods": {}
  }
}