{
  "contractName": "TestIdentity",
  "abi": [
    {
      "constant": true,
      "inputs": [],
      "name": "subject",
      "outputs": [
        {
          "name": "",
          "type": "string"
        }
      ],
      "payable": false,
      "stateMutability": "view",
      "type": "function"
    },
    {
      "constant": true,
      "inputs": [],
      "name": "audience",
      "outputs": [
        {
          "name": "",
          "type": "string"
        }
      ],
      "payable": false,
      "stateMutability": "view",
      "type": "function"
    },
    {
      "constant": true,
      "inputs": [
        {
          "name": "",
          "type": "address"
        }
      ],
      "name": "accounts",
      "outputs": [
        {
          "name": "",
          "type": "bool"
        }
      ],
      "payable": false,
      "stateMutability": "view",
      "type": "function"
    },
    {
      "constant": false,
      "inputs": [
        {
          "name": "headerJson",
          "type": "string"
        },
        {
          "name": "payloadJson",
          "type": "string"
        },
        {
          "name": "signature",
          "type": "bytes"
        }
      ],
      "name": "recover",
      "outputs": [],
      "payable": false,
      "stateMutability": "nonpayable",
      "type": "function"
    },
    {
      "inputs": [
        {
          "name": "sub",
          "type": "string"
        },
        {
          "name": "aud",
          "type": "string"
        }
      ],
      "payable": true,
      "stateMutability": "payable",
      "type": "constructor"
    }
  ],
  "bytecode": "0x6080604052604051620049bb380380620049bb833981018060405260408110156200002957600080fd5b8101908080516401000000008111156200004257600080fd5b828101905060208101848111156200005957600080fd5b81518560018202830111640100000000821117156200007757600080fd5b505092919060200180516401000000008111156200009457600080fd5b82810190506020810184811115620000ab57600080fd5b8151856001820283011164010000000082111715620000c957600080fd5b5050929190505050818160016000803373ffffffffffffffffffffffffffffffffffffffff1673ffffffffffffffffffffffffffffffffffffffff16815260200190815260200160002060006101000a81548160ff02191690831515021790555080600190805190602001906200014292919062000166565b5081600290805190602001906200015b92919062000166565b505050505062000215565b828054600181600116156101000203166002900490600052602060002090601f016020900481019282601f10620001a957805160ff1916838001178555620001da565b82800160010185558215620001da579182015b82811115620001d9578251825591602001919060010190620001bc565b5b509050620001e99190620001ed565b5090565b6200021291905b808211156200020e576000816000905550600101620001f4565b5090565b90565b61479680620002256000396000f3fe608060405234801561001057600080fd5b5060043610610069576000357c0100000000000000000000000000000000000000000000000000000000900480630a59a98c1461006e5780631ee1f800146100f15780635e5c06e2146101745780637fac7eec146101d0575b600080fd5b6100766103b9565b6040518080602001828103825283818151815260200191508051906020019080838360005b838110156100b657808201518184015260208101905061009b565b50505050905090810190601f1680156100e35780820380516001836020036101000a031916815260200191505b509250505060405180910390f35b6100f9610457565b6040518080602001828103825283818151815260200191508051906020019080838360005b8381101561013957808201518184015260208101905061011e565b50505050905090810190601f1680156101665780820380516001836020036101000a031916815260200191505b509250505060405180910390f35b6101b66004803603602081101561018a57600080fd5b81019080803573ffffffffffffffffffffffffffffffffffffffff1690602001909291905050506104f5565b604051808215151515815260200191505060405180910390f35b6103b7600480360360608110156101e657600080fd5b810190808035906020019064010000000081111561020357600080fd5b82018360208201111561021557600080fd5b8035906020019184600183028401116401000000008311171561023757600080fd5b91908080601f016020809104026020016040519081016040528093929190818152602001838380828437600081840152601f19601f8201169050808301925050505050505091929192908035906020019064010000000081111561029a57600080fd5b8201836020820111156102ac57600080fd5b803590602001918460018302840111640100000000831117156102ce57600080fd5b91908080601f016020809104026020016040519081016040528093929190818152602001838380828437600081840152601f19601f8201169050808301925050505050505091929192908035906020019064010000000081111561033157600080fd5b82018360208201111561034357600080fd5b8035906020019184600183028401116401000000008311171561036557600080fd5b91908080601f016020809104026020016040519081016040528093929190818152602001838380828437600081840152601f19601f820116905080830192505050505050509192919290505050610515565b005b60028054600181600116156101000203166002900480601f01602080910402602001604051908101604052809291908181526020018280546001816001161561010002031660029004801561044f5780601f106104245761010080835404028352916020019161044f565b820191906000526020600020905b81548152906001019060200180831161043257829003601f168201915b505050505081565b60018054600181600116156101000203166002900480601f0160208091040260200160405190810160405280929190818152602001828054600181600116156101000203166002900480156104ed5780601f106104c2576101008083540402835291602001916104ed565b820191906000526020600020905b8154815290600101906020018083116104d057829003601f168201915b505050505081565b60006020528060005260406000206000915054906101000a900460ff1681565b606061052084610a7f565b9050606061052d84610a7f565b90506060600260405190808252806020026020018201604052801561056c57816020015b610559614476565b8152602001906001900390816105515790505b50905061057883610fc5565b81600081518110151561058757fe5b9060200190602002018190525061059d82610fc5565b8160018151811015156105ac57fe5b90602001906020020181905250606061060b826105fd6040805190810160405280600181526020017f2e00000000000000000000000000000000000000000000000000000000000000815250610fc5565b610ff390919063ffffffff16565b9050606061061888611157565b90506060610625826114f4565b9050606061063283611517565b9050600061064d8984848861153d909392919063ffffffff16565b1415156106c2576040517f08c379a000000000000000000000000000000000000000000000000000000000815260040180806020018281038252601a8152602001807f525341207369676e617475726520636865636b206661696c656400000000000081525060200191505060405180910390fd5b60608060606106d08c6115f4565b925092509250600061078560018054600181600116156101000203166002900480601f0160208091040260200160405190810160405280929190818152602001828054600181600116156101000203166002900480156107715780601f1061074657610100808354040283529160200191610771565b820191906000526020600020905b81548152906001019060200180831161075457829003601f168201915b505050505085611c3690919063ffffffff16565b148061078f575060015b1515610803576040517f08c379a00000000000000000000000000000000000000000000000000000000081526004018080602001828103825260178152602001807f41756469656e636520646f6573206e6f74206d6174636800000000000000000081525060200191505060405180910390fd5b60006108b260028054600181600116156101000203166002900480601f01602080910402602001604051908101604052809291908181526020018280546001816001161561010002031660029004801561089e5780601f106108735761010080835404028352916020019161089e565b820191906000526020600020905b81548152906001019060200180831161088157829003601f168201915b505050505083611c3690919063ffffffff16565b141515610927576040517f08c379a00000000000000000000000000000000000000000000000000000000081526004018080602001828103825260168152602001807f5375626a65637420646f6573206e6f74206d617463680000000000000000000081525060200191505060405180910390fd5b606061098c33604051602001808273ffffffffffffffffffffffffffffffffffffffff1673ffffffffffffffffffffffffffffffffffffffff166c01000000000000000000000000028152601401915050604051602081830303815290604052610a7f565b905060006109a38483611c3690919063ffffffff16565b141515610a18576040517f08c379a000000000000000000000000000000000000000000000000000000000815260040180806020018281038252601b8152602001807f53656e64657220646f6573206e6f74206d61746368206e6f6e6365000000000081525060200191505060405180910390fd5b60016000803373ffffffffffffffffffffffffffffffffffffffff1673ffffffffffffffffffffffffffffffffffffffff16815260200190815260200160002060006101000a81548160ff0219169083151502179055505050505050505050505050505050565b606080829050600060038251811515610a9457fe5b0690506000600382600303811515610aa857fe5b06600460036002865101811515610abb57fe5b04020390506060816040519080825280601f01601f191660200182016040528015610af55781602001600182028038833980820191505090505b509050600080905060008090505b855160038301111515610da557610c9b8683815181101515610b2157fe5b9060200101517f010000000000000000000000000000000000000000000000000000000000000090047f0100000000000000000000000000000000000000000000000000000000000000027f0100000000000000000000000000000000000000000000000000000000000000900460ff168760018501815181101515610ba357fe5b9060200101517f010000000000000000000000000000000000000000000000000000000000000090047f0100000000000000000000000000000000000000000000000000000000000000027f0100000000000000000000000000000000000000000000000000000000000000900460ff168860028601815181101515610c2557fe5b9060200101517f010000000000000000000000000000000000000000000000000000000000000090047f0100000000000000000000000000000000000000000000000000000000000000027f0100000000000000000000000000000000000000000000000000000000000000900460ff16611efc565b8685815181101515610ca957fe5b90602001018760018701815181101515610cbf57fe5b90602001018860028801815181101515610cd557fe5b90602001018960038901815181101515610ceb57fe5b9060200101847effffffffffffffffffffffffffffffffffffffffffffffffffffffffffffff191660001a9053847effffffffffffffffffffffffffffffffffffffffffffffffffffffffffffff191660001a9053847effffffffffffffffffffffffffffffffffffffffffffffffffffffffffffff191660001a9053847effffffffffffffffffffffffffffffffffffffffffffffffffffffffffffff191660001a905350505050600481019050600382019150610b03565b600085141515610fb75760008686885103815181101515610dc257fe5b9060200101517f010000000000000000000000000000000000000000000000000000000000000090047f0100000000000000000000000000000000000000000000000000000000000000027f01000000000000000000000000000000000000000000000000000000000000009004905060008090506002871415610ec357876001895103815181101515610e5257fe5b9060200101517f010000000000000000000000000000000000000000000000000000000000000090047f0100000000000000000000000000000000000000000000000000000000000000027f0100000000000000000000000000000000000000000000000000000000000000900490505b600080600080610edb8660ff168660ff166000611efc565b9350935093509350838988815181101515610ef257fe5b9060200101907effffffffffffffffffffffffffffffffffffffffffffffffffffffffffffff1916908160001a905350828960018901815181101515610f3457fe5b9060200101907effffffffffffffffffffffffffffffffffffffffffffffffffffffffffffff1916908160001a90535060028b1415610fb057818960028901815181101515610f7f57fe5b9060200101907effffffffffffffffffffffffffffffffffffffffffffffffffffffffffffff1916908160001a9053505b5050505050505b829650505050505050919050565b610fcd614490565b600060208301905060408051908101604052808451815260200182815250915050919050565b60606000825114156110175760206040519081016040528060008152509050611151565b60006001835103846000015102905060008090505b835181101561106257838181518110151561104357fe5b906020019060200201516000015182019150808060010191505061102c565b506060816040519080825280601f01601f1916602001820160405280156110985781602001600182028038833980820191505090505b509050600060208201905060008090505b8551811015611149576110f38287838151811015156110c457fe5b906020019060200201516020015188848151811015156110e057fe5b906020019060200201516000015161213b565b858181518110151561110157fe5b906020019060200201516000015182019150600186510381101561113c57611132828860200151896000015161213b565b8660000151820191505b80806001019150506110a9565b508193505050505b92915050565b606060006060600061117360148661218690919063ffffffff16565b9250925092506000831415156111f1576040517f08c379a00000000000000000000000000000000000000000000000000000000081526004018080602001828103825260118152602001807f4a534f4e207061727365206661696c656400000000000000000000000000000081525060200191505060405180910390fd5b600160048111156111fe57fe5b82600081518110151561120d57fe5b9060200190602002015160000151600481111561122657fe5b14151561129b576040517f08c379a000000000000000000000000000000000000000000000000000000000815260040180806020018281038252601c8152602001807f4578706563746564204a575420746f20626520616e206f626a6563740000000081525060200191505060405180910390fd5b6000600190505b818110156114ea57600360048111156112b757fe5b83828151811015156112c557fe5b906020019060200201516000015160048111156112de57fe5b141515611336576040517f08c379a00000000000000000000000000000000000000000000000000000000081526004018080602001828103825260288152602001806147436028913960400191505060405180910390fd5b6060611383848381518110151561134957fe5b9060200190602002015160200151858481518110151561136557fe5b906020019060200201516060015189612f939092919063ffffffff16565b905060006113cf6040805190810160405280600381526020017f6b6964000000000000000000000000000000000000000000000000000000000081525083611c3690919063ffffffff16565b14156114de57600360048111156113e257fe5b84600184018151811015156113f357fe5b9060200190602002015160000151600481111561140c57fe5b141515611481576040517f08c379a000000000000000000000000000000000000000000000000000000000815260040180806020018281038252601b8152602001807f4578706563746564206b696420746f206265206120737472696e67000000000081525060200191505060405180910390fd5b6114d2846001840181518110151561149557fe5b906020019060200201516020015185600185018151811015156114b457fe5b906020019060200201516060015189612f939092919063ffffffff16565b955050505050506114ef565b600282019150506112a2565b505050505b919050565b606060a06040519081016040528060808152602001614583608091399050919050565b606061012060405190810160405280610100815260200161464361010091399050919050565b60006115ea6002866040518082805190602001908083835b60208310151561157a5780518252602082019150602081019050602083039250611555565b6001836020036101000a038019825116818451168082178552505050505050905001915050602060405180830381855afa1580156115bc573d6000803e3d6000fd5b5050506040513d60208110156115d157600080fd5b8101908080519060200190929190505050858585613094565b9050949350505050565b606080606060006060600061161360288861218690919063ffffffff16565b925092509250600083141515611691576040517f08c379a00000000000000000000000000000000000000000000000000000000081526004018080602001828103825260118152602001807f4a534f4e207061727365206661696c656400000000000000000000000000000081525060200191505060405180910390fd5b6001600481111561169e57fe5b8260008151811015156116ad57fe5b906020019060200201516000015160048111156116c657fe5b14151561173b576040517f08c379a000000000000000000000000000000000000000000000000000000000815260040180806020018281038252601c8152602001807f4578706563746564204a575420746f20626520616e206f626a6563740000000081525060200191505060405180910390fd5b6000600190505b81811015611c2b576003600481111561175757fe5b838281518110151561176557fe5b9060200190602002015160000151600481111561177e57fe5b1415156117d6576040517f08c379a00000000000000000000000000000000000000000000000000000000081526004018080602001828103825260288152602001806147436028913960400191505060405180910390fd5b606061182384838151811015156117e957fe5b9060200190602002015160200151858481518110151561180557fe5b90602001906020020151606001518b612f939092919063ffffffff16565b9050600061186f6040805190810160405280600381526020017f737562000000000000000000000000000000000000000000000000000000000081525083611c3690919063ffffffff16565b1415611979576003600481111561188257fe5b846001840181518110151561189357fe5b906020019060200201516000015160048111156118ac57fe5b141515611921576040517f08c379a000000000000000000000000000000000000000000000000000000000815260040180806020018281038252601b8152602001807f45787065637465642073756220746f206265206120737472696e67000000000081525060200191505060405180910390fd5b611972846001840181518110151561193557fe5b9060200190602002015160200151856001850181518110151561195457fe5b90602001906020020151606001518b612f939092919063ffffffff16565b9550611c1f565b60006119c36040805190810160405280600381526020017f617564000000000000000000000000000000000000000000000000000000000081525083611c3690919063ffffffff16565b1415611acd57600360048111156119d657fe5b84600184018151811015156119e757fe5b90602001906020020151600001516004811115611a0057fe5b141515611a75576040517f08c379a000000000000000000000000000000000000000000000000000000000815260040180806020018281038252601b8152602001807f45787065637465642061756420746f206265206120737472696e67000000000081525060200191505060405180910390fd5b611ac68460018401815181101515611a8957fe5b90602001906020020151602001518560018501815181101515611aa857fe5b90602001906020020151606001518b612f939092919063ffffffff16565b9750611c1e565b6000611b176040805190810160405280600581526020017f6e6f6e636500000000000000000000000000000000000000000000000000000081525083611c3690919063ffffffff16565b1415611c1d5760036004811115611b2a57fe5b8460018401815181101515611b3b57fe5b90602001906020020151600001516004811115611b5457fe5b141515611bc9576040517f08c379a000000000000000000000000000000000000000000000000000000000815260040180806020018281038252601d8152602001807f4578706563746564206e6f6e636520746f206265206120737472696e6700000081525060200191505060405180910390fd5b611c1a8460018401815181101515611bdd57fe5b90602001906020020151602001518560018501815181101515611bfc57fe5b90602001906020020151606001518b612f939092919063ffffffff16565b96505b5b5b60028201915050611742565b505050509193909250565b6000606083905060608390506000825190508082511015611c5657815190505b60008090505b81811015611ea2578281815181101515611c7257fe5b9060200101517f010000000000000000000000000000000000000000000000000000000000000090047f0100000000000000000000000000000000000000000000000000000000000000027effffffffffffffffffffffffffffffffffffffffffffffffffffffffffffff19168482815181101515611ced57fe5b9060200101517f010000000000000000000000000000000000000000000000000000000000000090047f0100000000000000000000000000000000000000000000000000000000000000027effffffffffffffffffffffffffffffffffffffffffffffffffffffffffffff19161015611d8c577fffffffffffffffffffffffffffffffffffffffffffffffffffffffffffffffff945050505050611ef6565b8281815181101515611d9a57fe5b9060200101517f010000000000000000000000000000000000000000000000000000000000000090047f0100000000000000000000000000000000000000000000000000000000000000027effffffffffffffffffffffffffffffffffffffffffffffffffffffffffffff19168482815181101515611e1557fe5b9060200101517f010000000000000000000000000000000000000000000000000000000000000090047f0100000000000000000000000000000000000000000000000000000000000000027effffffffffffffffffffffffffffffffffffffffffffffffffffffffffffff19161115611e95576001945050505050611ef6565b8080600101915050611c5c565b50815183511015611ed8577fffffffffffffffffffffffffffffffffffffffffffffffffffffffffffffffff9350505050611ef6565b815183511115611eee5760019350505050611ef6565b600093505050505b92915050565b6000806000806000856008889060020a0260108a9060020a02171790506000603f601283908060020a82049150501690506000603f600c84908060020a82049150501690506000603f600685908060020a82049150501690506000603f85169050606060405190810160405280604081526020016146036040913984815181101515611f8457fe5b9060200101517f010000000000000000000000000000000000000000000000000000000000000090047f0100000000000000000000000000000000000000000000000000000000000000029850606060405190810160405280604081526020016146036040913983815181101515611ff857fe5b9060200101517f010000000000000000000000000000000000000000000000000000000000000090047f010000000000000000000000000000000000000000000000000000000000000002975060606040519081016040528060408152602001614603604091398281518110151561206c57fe5b9060200101517f010000000000000000000000000000000000000000000000000000000000000090047f01000000000000000000000000000000000000000000000000000000000000000296506060604051908101604052806040815260200161460360409139818151811015156120e057fe5b9060200101517f010000000000000000000000000000000000000000000000000000000000000090047f0100000000000000000000000000000000000000000000000000000000000000029550505050505093509350935093565b5b602081101515612161578151835260208301925060208201915060208103905061213c565b60006001826020036101000a0390508019835116818551168181178652505050505050565b6000606060006060859050600061219b6144aa565b6121a4876136b2565b80965081925050506000808260200151905060006121c06144cc565b5b865185600001511015612f765760008786600001518151811015156121e257fe5b9060200101517f010000000000000000000000000000000000000000000000000000000000000090047f0100000000000000000000000000000000000000000000000000000000000000029050607b7f010000000000000000000000000000000000000000000000000000000000000002817effffffffffffffffffffffffffffffffffffffffffffffffffffffffffffff191614806122c65750605b7f010000000000000000000000000000000000000000000000000000000000000002817effffffffffffffffffffffffffffffffffffffffffffffffffffffffffffff1916145b156124135783806001019450506122dd868b613750565b80935081985050508615156123075760038a60008090509a509a509a505050505050505050612f8c565b7fffffffffffffffffffffffffffffffffffffffffffffffffffffffffffffffff86604001511415156123665789866040015181518110151561234657fe5b9060200190602002015160a001805180919060010160ff1660ff16815250505b607b7f010000000000000000000000000000000000000000000000000000000000000002817effffffffffffffffffffffffffffffffffffffffffffffffffffffffffffff1916146123b95760026123bc565b60015b826000019060048111156123cc57fe5b908160048111156123d957fe5b8152505085600001518260200181815250506001826040019015159081151581525050600186602001510386604001818152505050612f61565b607d7f010000000000000000000000000000000000000000000000000000000000000002817effffffffffffffffffffffffffffffffffffffffffffffffffffffffffffff191614806124aa5750605d7f010000000000000000000000000000000000000000000000000000000000000002817effffffffffffffffffffffffffffffffffffffffffffffffffffffffffffff1916145b15612704576000607d7f010000000000000000000000000000000000000000000000000000000000000002827effffffffffffffffffffffffffffffffffffffffffffffffffffffffffffff191614612504576002612507565b60015b90506000809050600188602001510394505b600085101515612626578b8581518110151561253157fe5b9060200190602002015193508360400151801561255057508360800151155b156126185781600481111561256157fe5b8460000151600481111561257157fe5b1415156125955760018c60008090509c509c509c5050505050505050505050612f8c565b7fffffffffffffffffffffffffffffffffffffffffffffffffffffffffffffffff88604001818152505060018860000151018c868151811015156125d557fe5b90602001906020020151606001818152505060018c868151811015156125f757fe5b90602001906020020151608001901515908115158152505060019050612626565b848060019003955050612519565b80151561264a5760018c60008090509c509c509c5050505050505050505050612f8c565b5b60008511156126a3578b8581518110151561266257fe5b9060200190602002015193508360400151801561268157508360800151155b1561269557848860400181815250506126a3565b84806001900395505061264b565b60008514156126fc578b858151811015156126ba57fe5b906020019060200201519350836040015180156126d957508360800151155b156126fb57846fffffffffffffffffffffffffffffffff168860400181815250505b5b505050612f61565b7f2200000000000000000000000000000000000000000000000000000000000000817effffffffffffffffffffffffffffffffffffffffffffffffffffffffffffff191614156127ec57612759868b8a613822565b945060008514151561277f57848a60008090509a509a509a505050505050505050612f8c565b83806001019450507fffffffffffffffffffffffffffffffffffffffffffffffffffffffffffffffff86604001511415156127e6578986604001518151811015156127c657fe5b9060200190602002015160a001805180919060010160ff1660ff16815250505b50612f61565b7f2000000000000000000000000000000000000000000000000000000000000000817effffffffffffffffffffffffffffffffffffffffffffffffffffffffffffff19161480612880575060117f010000000000000000000000000000000000000000000000000000000000000002817effffffffffffffffffffffffffffffffffffffffffffffffffffffffffffff1916145b806128cf575060127f010000000000000000000000000000000000000000000000000000000000000002817effffffffffffffffffffffffffffffffffffffffffffffffffffffffffffff1916145b8061291e575060147f010000000000000000000000000000000000000000000000000000000000000002817effffffffffffffffffffffffffffffffffffffffffffffffffffffffffffff1916145b156129295750612f61565b7f3a00000000000000000000000000000000000000000000000000000000000000817effffffffffffffffffffffffffffffffffffffffffffffffffffffffffffff1916141561298a57600186602001510386604001818152505050612f61565b7f2c00000000000000000000000000000000000000000000000000000000000000817effffffffffffffffffffffffffffffffffffffffffffffffffffffffffffff19161415612b7b577fffffffffffffffffffffffffffffffffffffffffffffffffffffffffffffffff866040015114158015612a3e575060026004811115612a1057fe5b8a8760400151815181101515612a2257fe5b90602001906020020151600001516004811115612a3b57fe5b14155b8015612a80575060016004811115612a5257fe5b8a8760400151815181101515612a6457fe5b90602001906020020151600001516004811115612a7d57fe5b14155b15612b7557600186602001510392505b600083101515612b745760026004811115612aa757fe5b8a84815181101515612ab557fe5b90602001906020020151600001516004811115612ace57fe5b1480612b0b575060016004811115612ae257fe5b8a84815181101515612af057fe5b90602001906020020151600001516004811115612b0957fe5b145b15612b66578983815181101515612b1e57fe5b90602001906020020151604001518015612b5157508983815181101515612b4157fe5b9060200190602002015160800151155b15612b655782866040018181525050612b74565b5b828060019003935050612a90565b5b50612f61565b7f3000000000000000000000000000000000000000000000000000000000000000817effffffffffffffffffffffffffffffffffffffffffffffffffffffffffffff191610158015612c0f57507f3900000000000000000000000000000000000000000000000000000000000000817effffffffffffffffffffffffffffffffffffffffffffffffffffffffffffff191611155b80612c5b57507f2d00000000000000000000000000000000000000000000000000000000000000817effffffffffffffffffffffffffffffffffffffffffffffffffffffffffffff1916145b80612ca757507f6600000000000000000000000000000000000000000000000000000000000000817effffffffffffffffffffffffffffffffffffffffffffffffffffffffffffff1916145b80612cf357507f7400000000000000000000000000000000000000000000000000000000000000817effffffffffffffffffffffffffffffffffffffffffffffffffffffffffffff1916145b80612d3f57507f6e00000000000000000000000000000000000000000000000000000000000000817effffffffffffffffffffffffffffffffffffffffffffffffffffffffffffff1916145b15612ea5577fffffffffffffffffffffffffffffffffffffffffffffffffffffffffffffffff8660400151141515612e0757898660400151815181101515612d8357fe5b90602001906020020151915060016004811115612d9c57fe5b82600001516004811115612dac57fe5b1480612de6575060036004811115612dc057fe5b82600001516004811115612dd057fe5b148015612de5575060008260a0015160ff1614155b5b15612e065760018a60008090509a509a509a505050505050505050612f8c565b5b612e12868b8a613f2d565b9450600085141515612e3857848a60008090509a509a509a505050505050505050612f8c565b83806001019450507fffffffffffffffffffffffffffffffffffffffffffffffffffffffffffffffff8660400151141515612e9f57898660400151815181101515612e7f57fe5b9060200190602002015160a001805180919060010160ff1660ff16815250505b50612f61565b60207f010000000000000000000000000000000000000000000000000000000000000002817effffffffffffffffffffffffffffffffffffffffffffffffffffffffffffff191610158015612f3f5750607e7f010000000000000000000000000000000000000000000000000000000000000002817effffffffffffffffffffffffffffffffffffffffffffffffffffffffffffff191611155b15612f5f5760018a60008090509a509a509a505050505050505050612f8c565b505b846000018051809190600101815250506121c1565b6000898660200151995099509950505050505050505b9250925092565b60608084905060608484036040519080825280601f01601f191660200182016040528015612fd05781602001600182028038833980820191505090505b50905060008590505b84811015613087578281815181101515612fef57fe5b9060200101517f010000000000000000000000000000000000000000000000000000000000000090047f0100000000000000000000000000000000000000000000000000000000000000028287830381518110151561304a57fe5b9060200101907effffffffffffffffffffffffffffffffffffffffffffffffffffffffffffff1916908160001a9053508080600101915050612fd9565b5080925050509392505050565b600061309e614515565b61026060405190810160405280603060ff168152602001603160ff168152602001603060ff168152602001600d60ff168152602001600660ff168152602001600960ff168152602001606060ff168152602001608660ff168152602001604860ff168152602001600160ff168152602001606560ff168152602001600360ff168152602001600460ff168152602001600260ff168152602001600160ff168152602001600560ff168152602001600060ff168152602001600460ff168152602001602060ff168152509050600b602060ff166013010183511015151561318357600080fd5b600060606131928787876142e6565b90506000815190506000865190506060816040519080825280601f01601f1916602001820160405280156131d55781602001600182028038833980820191505090505b5090508160208201846020870160056107d05a03fa50600060206013600385030303905060007f01000000000000000000000000000000000000000000000000000000000000000282600081518110151561322c57fe5b9060200101517f010000000000000000000000000000000000000000000000000000000000000090047f0100000000000000000000000000000000000000000000000000000000000000027effffffffffffffffffffffffffffffffffffffffffffffffffffffffffffff1916141580613326575060018260018151811015156132b257fe5b9060200101517f010000000000000000000000000000000000000000000000000000000000000090047f0100000000000000000000000000000000000000000000000000000000000000027f0100000000000000000000000000000000000000000000000000000000000000900460ff1614155b1561333b5760019750505050505050506136aa565b600295505b8060020186101561340e5760ff7f010000000000000000000000000000000000000000000000000000000000000002828781518110151561337d57fe5b9060200101517f010000000000000000000000000000000000000000000000000000000000000090047f0100000000000000000000000000000000000000000000000000000000000000027effffffffffffffffffffffffffffffffffffffffffffffffffffffffffffff19161415156134015760029750505050505050506136aa565b8580600101965050613340565b60007f010000000000000000000000000000000000000000000000000000000000000002828260020181518110151561344357fe5b9060200101517f010000000000000000000000000000000000000000000000000000000000000090047f0100000000000000000000000000000000000000000000000000000000000000027effffffffffffffffffffffffffffffffffffffffffffffffffffffffffffff19161415156134c75760039750505050505050506136aa565b600095505b60138610156135935786866013811015156134e357fe5b602002015160ff16828783600301018151811015156134fe57fe5b9060200101517f010000000000000000000000000000000000000000000000000000000000000090047f0100000000000000000000000000000000000000000000000000000000000000027f0100000000000000000000000000000000000000000000000000000000000000900460ff161415156135865760049750505050505050506136aa565b85806001019650506134cc565b600095505b602060ff1686101561369e578b866020811015156135b257fe5b1a7f0100000000000000000000000000000000000000000000000000000000000000027effffffffffffffffffffffffffffffffffffffffffffffffffffffffffffff19168287601384600301010181518110151561360d57fe5b9060200101517f010000000000000000000000000000000000000000000000000000000000000090047f0100000000000000000000000000000000000000000000000000000000000000027effffffffffffffffffffffffffffffffffffffffffffffffffffffffffffff19161415156136915760059750505050505050506136aa565b8580600101965050613598565b60009750505050505050505b949350505050565b6136ba6144aa565b60606136c46144aa565b60606040519081016040528060008152602001600081526020017fffffffffffffffffffffffffffffffffffffffffffffffffffffffffffffffff815250905060608460405190808252806020026020018201604052801561374057816020015b61372d614539565b8152602001906001900390816137255790505b5090508181935093505050915091565b600061375a6144cc565b8251846020015110151561379257600083600185510381518110151561377c57fe5b906020019060200201518090509150915061381b565b61379a6144cc565b60c060405190810160405280600060048111156137b357fe5b81526020016000815260200160001515815260200160008152602001600015158152602001600060ff168152509050808486602001518151811015156137f557fe5b906020019060200201819052508460200180518091906001018152505060018192509250505b9250929050565b6000808460000151905060006138366144cc565b866000018051809190600101815250505b845187600001511015613f1457600085886000015181518110151561386857fe5b9060200101517f010000000000000000000000000000000000000000000000000000000000000090047f01000000000000000000000000000000000000000000000000000000000000000290507f2200000000000000000000000000000000000000000000000000000000000000817effffffffffffffffffffffffffffffffffffffffffffffffffffffffffffff19161415613950576139098888613750565b809350819450505082151561392f57838860000181815250506003945050505050613f26565b613943826003600187018b600001516143ba565b6000945050505050613f26565b605c817f0100000000000000000000000000000000000000000000000000000000000000900460ff1614801561398d575085516001896000015101105b15613efd57876000018051809190600101815250507f22000000000000000000000000000000000000000000000000000000000000008689600001518151811015156139d557fe5b9060200101517f010000000000000000000000000000000000000000000000000000000000000090047f0100000000000000000000000000000000000000000000000000000000000000027effffffffffffffffffffffffffffffffffffffffffffffffffffffffffffff19161480613aeb57507f2f00000000000000000000000000000000000000000000000000000000000000868960000151815181101515613a7c57fe5b9060200101517f010000000000000000000000000000000000000000000000000000000000000090047f0100000000000000000000000000000000000000000000000000000000000000027effffffffffffffffffffffffffffffffffffffffffffffffffffffffffffff1916145b80613b9357507f5c00000000000000000000000000000000000000000000000000000000000000868960000151815181101515613b2457fe5b9060200101517f010000000000000000000000000000000000000000000000000000000000000090047f0100000000000000000000000000000000000000000000000000000000000000027effffffffffffffffffffffffffffffffffffffffffffffffffffffffffffff1916145b80613c3b57507f6600000000000000000000000000000000000000000000000000000000000000868960000151815181101515613bcc57fe5b9060200101517f010000000000000000000000000000000000000000000000000000000000000090047f0100000000000000000000000000000000000000000000000000000000000000027effffffffffffffffffffffffffffffffffffffffffffffffffffffffffffff1916145b80613ce357507f7200000000000000000000000000000000000000000000000000000000000000868960000151815181101515613c7457fe5b9060200101517f010000000000000000000000000000000000000000000000000000000000000090047f0100000000000000000000000000000000000000000000000000000000000000027effffffffffffffffffffffffffffffffffffffffffffffffffffffffffffff1916145b80613d8b57507f6e00000000000000000000000000000000000000000000000000000000000000868960000151815181101515613d1c57fe5b9060200101517f010000000000000000000000000000000000000000000000000000000000000090047f0100000000000000000000000000000000000000000000000000000000000000027effffffffffffffffffffffffffffffffffffffffffffffffffffffffffffff1916145b80613e3357507f6200000000000000000000000000000000000000000000000000000000000000868960000151815181101515613dc457fe5b9060200101517f010000000000000000000000000000000000000000000000000000000000000090047f0100000000000000000000000000000000000000000000000000000000000000027effffffffffffffffffffffffffffffffffffffffffffffffffffffffffffff1916145b80613edb57507f7400000000000000000000000000000000000000000000000000000000000000868960000151815181101515613e6c57fe5b9060200101517f010000000000000000000000000000000000000000000000000000000000000090047f0100000000000000000000000000000000000000000000000000000000000000027effffffffffffffffffffffffffffffffffffffffffffffffffffffffffffff1916145b15613ee65750613eff565b838860000181815250506001945050505050613f26565b505b86600001805180919060010181525050613847565b82876000018181525050600293505050505b9392505050565b60008060009050600085600001519050600080613f486144cc565b5b86518960000151101561426357868960000151815181101515613f6857fe5b9060200101517f010000000000000000000000000000000000000000000000000000000000000090047f01000000000000000000000000000000000000000000000000000000000000000292507f2000000000000000000000000000000000000000000000000000000000000000837effffffffffffffffffffffffffffffffffffffffffffffffffffffffffffff1916148061404657507f0900000000000000000000000000000000000000000000000000000000000000837effffffffffffffffffffffffffffffffffffffffffffffffffffffffffffff1916145b8061409257507f0a00000000000000000000000000000000000000000000000000000000000000837effffffffffffffffffffffffffffffffffffffffffffffffffffffffffffff1916145b806140de57507f0d00000000000000000000000000000000000000000000000000000000000000837effffffffffffffffffffffffffffffffffffffffffffffffffffffffffffff1916145b8061412a57507f2c00000000000000000000000000000000000000000000000000000000000000837effffffffffffffffffffffffffffffffffffffffffffffffffffffffffffff1916145b806141795750607d7f010000000000000000000000000000000000000000000000000000000000000002837effffffffffffffffffffffffffffffffffffffffffffffffffffffffffffff1916145b806141c85750605d7f010000000000000000000000000000000000000000000000000000000000000002837effffffffffffffffffffffffffffffffffffffffffffffffffffffffffffff1916145b156141d65760019450614263565b6020837f0100000000000000000000000000000000000000000000000000000000000000900460ff1610806142315750607f837f0100000000000000000000000000000000000000000000000000000000000000900460ff16115b1561424e57838960000181815250506001955050505050506142df565b88600001805180919060010181525050613f49565b84151561428257838960000181815250506002955050505050506142df565b61428c8989613750565b80925081935050508115156142b357838960000181815250506003955050505050506142df565b6142c4816004868c600001516143ba565b88600001805180919060019003815250506000955050505050505b9392505050565b60606000825184518651606001010190506000855190506000855190506000855190506000806000806060886040519080825280601f01601f1916602001820160405280156143445781602001600182028038833980820191505090505b50905060208d01945060208c01935060208b01925087602082015286604082015285606082015260208101915061438060608301868f5161442b565b6143928d516060840101858e5161442b565b6143a78c518e51606085010101848d5161442b565b8099505050505050505050509392505050565b82846000019060048111156143cb57fe5b908160048111156143d857fe5b8152505081846020018181525050600184604001901515908115158152505080846060018181525050600184608001901515908115158152505060008460a0019060ff16908160ff168152505050505050565b5b602081101515614451578151835260208301925060208201915060208103905061442c565b60006001826020036101000a0390508019835116818551168181178652505050505050565b604080519081016040528060008152602001600081525090565b604080519081016040528060008152602001600081525090565b6060604051908101604052806000815260200160008152602001600081525090565b60c060405190810160405280600060048111156144e557fe5b81526020016000815260200160001515815260200160008152602001600015158152602001600060ff1681525090565b61026060405190810160405280601390602082028038833980820191505090505090565b60c0604051908101604052806000600481111561455257fe5b81526020016000815260200160001515815260200160008152602001600015158152602001600060ff168152509056fe00000000000000000000000000000000000000000000000000000000000000000000000000000000000000000000000000000000000000000000000000000000000000000000000000000000000000000000000000000000000000000000000000000000000000000000000000000000000000000000000000000000000100014142434445464748494a4b4c4d4e4f505152535455565758595a6162636465666768696a6b6c6d6e6f707172737475767778797a303132333435363738392d5fb0ca0a0eeba26cda6c0fa56527056d49c91045cfd6598a050f7ca831173416426f3630264221c94b8189f19cbfa2073682ce16a459c5e59978320ffc9af811a8e9b1264c4dd3b32339791458efd65776229ff82ce26389bacfb606fdfd05ad0253045931b7bfd1383ca5d2e5f49796c828a59321f1632ced38fe66fd668d9c2851f47e50cf337a1fe37c189da93e2cfc5cfcb833c06f749ff405e33c94aea36d120b622e9c61beaddf677458eea985c6567c7a54b3f6d079fbfb6c563548c0349e5d08972d9e6be932e69001ab0390363a342a9a874c70b231eb0b0cd90d4599d914c7adf755ee5e5012099aa1dc5a7152b598b8f90c2b16842a26f650fe5e6f4578706563746564204a575420746f20636f6e7461696e206f6e6c7920737472696e67206b657973a165627a7a72305820ad34a37704ace4537d9f1b86a401d1fbb9d765b4408b7bc7a8b9aed71e8210510029",
  "source": "pragma solidity ^0.5.0;\n\nimport \"./Identity.sol\";\n\ncontract TestIdentity is Identity {\n  bytes private constant rsaExponent = hex\"0000000000000000000000000000000000000000000000000000000000000000000000000000000000000000000000000000000000000000000000000000000000000000000000000000000000000000000000000000000000000000000000000000000000000000000000000000000000000000000000000000000000010001\";\n  bytes private constant rsaModulus = hex\"B0CA0A0EEBA26CDA6C0FA56527056D49C91045CFD6598A050F7CA831173416426F3630264221C94B8189F19CBFA2073682CE16A459C5E59978320FFC9AF811A8E9B1264C4DD3B32339791458EFD65776229FF82CE26389BACFB606FDFD05AD0253045931B7BFD1383CA5D2E5F49796C828A59321F1632CED38FE66FD668D9C2851F47E50CF337A1FE37C189DA93E2CFC5CFCB833C06F749FF405E33C94AEA36D120B622E9C61BEADDF677458EEA985C6567C7A54B3F6D079FBFB6C563548C0349E5D08972D9E6BE932E69001AB0390363A342A9A874C70B231EB0B0CD90D4599D914C7ADF755EE5E5012099AA1DC5A7152B598B8F90C2B16842A26F650FE5E6F\";\n\n  constructor(string memory sub, string memory aud)\n    Identity(sub, aud)\n    public payable { }\n\n  function getRsaExponent(string memory _kid) internal pure returns (bytes memory) {\n    return rsaExponent;\n  }\n\n  function getRsaModulus(string memory _kid) internal pure returns (bytes memory) {\n    return rsaModulus;\n  }\n}",
  "sourcePath": "/home/spalladino/Projects/solidity-jwt/contracts/TestIdentity.sol",
  "compiler": {
    "name": "solc",
    "version": "0.5.4+commit.9549d8ff.Emscripten.clang"
  },
  "schemaVersion": "3.0.6",
  "updatedAt": "2019-05-02T01:17:43.165Z",
  "devdoc": {
    "methods": {}
  },
  "userdoc": {
    "methods": {}
  }
}